:020000040800F2
:10000000383B01202103000809360008D52B0008E1
:1000100005360008350C0008534B000800000000AE
:10002000000000000000000000000000690200085D
:10003000B71E000800000000BD020008E1440008EF
:100040003B0300083B0300083B0300083B03000898
:100050003B0300083B0300083B0300083B03000888
:100060003B0300083B0300083B0300083B03000878
:100070003B0300083B0300083B0300083B03000868
:100080003B0300083B0300083B030008C90E0008BF
:10009000610D00083B0300083B030008B91E00087F
:1000A0003B0300083B0300083B0300083B03000838
:1000B0003B0300083B0300083B0300083B03000828
:1000C0003B0300083B0300083B0300083B03000818
:1000D0003B030008894800083B0300081149000859
:1000E0003B0300083B0300083B0300083B030008F8
:1000F0003B0300083B0300083B0300083B030008E8
:100100003B0300083B0300083B0300083B030008D7
:100110003B0300083B030008594500083B03000867
:100120003B0300083B0300083B0300083B030008B7
:100130003B0300083B0300083B030008C91100080B
:10014000A51000083B0300083B0300083B03000820
:100150003B0300083B030008791900083B03000833
:100160003B0300083B0300083B0300083B03000877
:100170003B0300083B0300083B0300083B03000867
:100180003B0300083B03000800F002F800F05CF8B5
:100190000AA090E8000C82448344AAF10107DA45E2
:1001A00001D100F051F8AFF2090EBAE80F0013F0D8
:1001B000010F18BFFB1A43F001031847248B0000FE
:1001C000448B00000A444FF0000C10F8013B13F080
:1001D000070408BF10F8014B1D1108BF10F8015BA0
:1001E000641E05D010F8016B641E01F8016BF9D193
:1001F00013F0080F1EBF10F8014BAD1C0C1B09D1EA
:100200006D1E58BF01F801CBFAD505E014F8016B5B
:1002100001F8016B6D1EF9D59142D6D370470000ED
:100220000023002400250026103A28BF78C1FBD8FF
:10023000520728BF30C148BF0B6070471FB508F098
:10024000CAFC1FBD10B510BD00F06AF91146FFF7DA
:10025000F5FF05F053FC00F088F903B4FFF7F2FF57
:1002600003BC00F08BF900002A4B19680868B0E85D
:10027000F04F80F30988BFF36F8F4FF0000080F3D9
:10028000118870470000000006480068006880F38D
:10029000088862B661B6BFF34F8FBFF36F8F00DF80
:1002A00000BF00BF08ED00E0DFF80C00016841F47A
:1002B00070010160704700BF88ED00E0EFF3098036
:1002C000BFF36F8F134B1A681EF0100F08BF20ED9D
:1002D000108A20E9F04F106008B44FF0500080F30E
:1002E0001188BFF34F8FBFF36F8F06F093FE4FF06F
:1002F000000080F3118808BC19680868B0E8F04F66
:100300001EF0100F08BFB0EC108A80F30988BFF30D
:100310006F8F7047E4000020EFF305807047000006
:100320000948804709480047FEE7FEE7FEE7FEE789
:10033000FEE7FEE7FEE7FEE7FEE7FEE704480549C5
:10034000054A064B70470000F14400088901000887
:1003500038350120383B012038370120383701205B
:10036000032A40F2308010F0030C00F0158011F8E1
:10037000013BBCF1020F624498BF11F801CB00F8B9
:10038000013B38BF11F8013BA2F1040298BF00F80D
:1003900001CB38BF00F8013B11F0030300F03B80B4
:1003A000083AC0F0088051F8043B083A51F804CBF1
:1003B000A0E80810F5E7121D5CBF51F8043B40F8B7
:1003C000043BAFF30080D20724BF11F8013B11F8C2
:1003D00001CB48BF11F8012B24BF00F8013B00F806
:1003E00001CB48BF00F8012B704702F0FF0343EA3E
:1003F000032242EA024200F042B870477047704759
:1004000010B500F05DF8006810BD10B5044600F0AE
:1004100057F8046010BD10B5203AC0F00B80B1E869
:100420001850203AA0E81850B1E81850A0E8185029
:10043000BFF4F5AF5FEA027C24BFB1E81850A0E832
:10044000185044BF18C918C0BDE810405FEA827C4C
:1004500024BF51F8043B40F8043B08BF7047D20763
:1004600028BF31F8023B48BF11F8012B28BF20F804
:10047000023B48BF00F8012B70474FF000020429EF
:10048000C0F0128010F0030C00F02080CCF1040CBE
:10049000BCF1020F18BF00F8012BA8BF20F8022BF7
:1004A000A1EB0C0100F012B85FEAC17C24BF00F898
:1004B000012B00F8012B48BF00F8012B704700000A
:1004C00000487047D43401204FF0000200B51346B5
:1004D00094469646203922BFA0E80C50A0E80C5064
:1004E000B1F12001BFF4F7AF090728BFA0E80C5015
:1004F00048BF0CC05DF804EB890028BF40F8042B0E
:1005000008BF704748BF20F8022B11F0804F18BF7A
:1005100000F8012B7047000000487047D4340120D8
:100520007546FFF7F9FFAE4605006946534620F0D1
:100530000700854618B020B5FFF700FFBDE8204052
:100540004FF000064FF000074FF000084FF0000B8F
:1005500021F00701AC46ACE8C009ACE8C009ACE842
:10056000C009ACE8C0098D46704710B50446AFF32A
:1005700000802046BDE81040FFF76FBE01491820FB
:10058000ABBEFEE726000200704702468A4202DA4E
:1005900002F5005070471046FCE7000010B510212E
:1005A000014801F0F7FD10BD0000024010B5102118
:1005B000014801F0EDFD10BD0000024010B5012121
:1005C000014801F0E7FD10BD0004024010B5012113
:1005D000014801F0DDFD10BD000402401CB5002003
:1005E00000900190FFF7E2FF922000F04BFA062204
:1005F0006946122000F027FAFFF7D0FF9DF80100AE
:10060000000200B29DF8001040EA01045D48048039
:100610009DF80300000200B29DF8021040EA0104B8
:10062000584844809DF80500000200B29DF804106F
:1006300040EA010453488480FFF7C8FF0822694656
:10064000002000F000FAFFF7B9FF9DF800000F2826
:1006500029D19DF80300000200B29DF8021040EA83
:1006600001044848408B201A00B24649C8819DF8D1
:100670000500000200B29DF8041040EA0104414860
:10068000808B201A00B23F4908829DF807000002C3
:1006900000B29DF8061040EA01043A48C08B201AC7
:1006A00000B238494882FFF781FFA22000F0EAF942
:1006B00002226946222000F0C6F9FFF76FFF9DF87D
:1006C0000000C0009DF8011040EA6114B4F5806F8D
:1006D00002DBA4F5006004B22A4884810146B1F926
:1006E0001200002801DB014600E04142142902DA31
:1006F000002024494882244822490A6802604A6846
:100700004260896881601F48B0F90C0000EE100A51
:10071000F8EEC00AB4EE001AB3EE070A00EE810A42
:10072000194880ED030A1748B0F90E0000EE100AD0
:10073000B8EEC00A1548D0ED000A20EE200A124893
:1007400080ED040A0F48B0F9100000EE100AB8EE70
:10075000C00A0E48D0ED000A20EE200A0A4880EDBB
:10076000050A0848B0F9120000EE100AB8EEC00AF7
:100770000648D0ED000A20EE200A034880ED060A64
:100780001CBD0000FE0200202003002018000020F5
:100790001CB5002000900190002460E0FFF706FFE8
:1007A000922000F06FF906226946122000F04BF902
:1007B000FFF7F4FEFFF70AFF08226946002000F069
:1007C00042F9FFF7FBFE9DF801009DF8001041EA99
:1007D00000204349898A084400B2414988829DF833
:1007E00003009DF8021041EA00203D49C98A0844EF
:1007F00000B23B49C8829DF805009DF8041041EA0B
:1008000000203749098B084400B2354908839DF818
:1008100003009DF8021041EA00203149498B084449
:1008200000B22F4948839DF805009DF8041041EA65
:1008300000202B49898B084400B2294988839DF800
:1008400007009DF8061041EA00202549C98B08449D
:1008500000B22349C883052005F062F8641CB4F592
:10086000967F9BDB1E48B0F914004FF4967190FB05
:10087000F1F000B21A4988820846B0F916004FF428
:10088000967190FBF1F000B21549C8820846B0F9A4
:1008900018004FF4967190FBF1F000B210490883F4
:1008A0000846B0F91A004FF4967190FBF1F000B2CF
:1008B0000B4948830846B0F91C004FF4967190FB31
:1008C000F1F000B2064988830846B0F91E004FF4E3
:1008D000967190FBF1F000B20149C8831CBD000085
:1008E000FE02002000B587B00121084603F088FA17
:1008F0000121022003F084FA0121080303F0B0FA79
:100900008020059002208DF8180000208DF81A0034
:100910008DF81B0003208DF8190005A93E4801F051
:10092000CCFB1820059002208DF8180000208DF8CF
:100930001A008DF81B0003208DF8190005A937480F
:1009400001F0BBFB1020059001208DF8180000205D
:100950008DF81A0001208DF81B0003208DF8190076
:1009600005A92D4801F0A9FB10212B4801F012FC2C
:10097000012005908DF8180000208DF81A00012044
:100980008DF81B0003208DF8190005A9234801F0FC
:1009900094FB0121214801F0FDFB052207211E489F
:1009A00001F0D3FB052203211C4801F0CEFB0522F8
:1009B00004211A4801F0C9FB0121080303F060FA81
:1009C00000214FF4805003F05BFA0020ADF80000E6
:1009D0004FF48270ADF802003820ADF80C00002012
:1009E000ADF804004FF40070ADF80A000220ADF835
:1009F00006000120ADF808000020ADF80E000A2026
:100A0000ADF810006946064803F0D8FA0121044801
:100A100003F0BAFA07B000BD000002400004024033
:100A20000030014010B50024FFF75CFF04F0CEFD5C
:100A3000044304F05FFE04430A2004F02BFFFFF799
:100A4000A7FE204610BD70B506460C46154646F07A
:100A5000800000F017F806E0552000F013F8207031
:100A6000641C681EC5B2002DF6D170BD70B5044679
:100A70000D4644F0800000F005F8552000F002F823
:100A8000287070BD10B5044600BF02210A4803F06B
:100A900087FA0028F9D02146074803F08DFA00BFF5
:100AA0000121054803F07CFA0028F9D0024803F040
:100AB00080FAC0B210BD00000030014070B505469C
:100AC0000C462846FFF7DEFF2046FFF7DBFF70BD30
:100AD00010B502F059FD02F075FD01F03DF900F08E
:100AE000ABF8FFF79FFF4FF47A7003F071FD00F051
:100AF00011F800F0DFFE02F0DFFD01F0B7FE03F0B9
:100B0000A1FB10BD024A1060014A1032116070470B
:100B10002C08004000B58BB00121042003F080F9BF
:100B20000121082003F06CF902220E211F4801F078
:100B30000CFB4FF48040099002208DF82800002023
:100B40008DF82A0003208DF8290009A9174801F023
:100B5000B4FA5320ADF818000020ADF81A0040F2A6
:100B6000572007900020ADF8200006A9104803F098
:100B700045FE002003906020ADF804000120ADF890
:100B800006000020ADF8100001A9094803F0DAFDC5
:100B90000821074803F026FE0121054803F046FD21
:100BA0000121034803F051FD0BB000BD000C0240D1
:100BB000000800401A48B0F9040042F2107188425F
:100BC00004DD18480068401C164908601648006893
:100BD000E8B115480068401C1349086008460068E1
:100BE0001E2804DD002008600E49086016E00C484D
:100BF000B0F9040010F57A6F03DD0C480C49086069
:100C00000CE00020084908600649086006E0054835
:100C100000680A2802D101200349086070470000DB
:100C20004C020020C4010020C801002030F8FFFF62
:100C3000C001002000BFFEE710B500F003F800F08F
:100C40009DF910BD00B58BB00121082003F0D8F844
:100C50000121480603F0E4F8092200213E4801F092
:100C600074FA092201213C4801F06FFA032009902F
:100C700002208DF8280003208DF8290000208DF82F
:100C80002A0009A9344801F018FA14208DF8200030
:100C900002208DF8210000208DF8220001208DF81F
:100CA000230008A802F00EFF13208DF82000022078
:100CB0008DF8210000208DF8220001208DF82300FE
:100CC00008A802F0FFFE254800F00CFB05A800F084
:100CD00044FD0320ADF8140000208DF816008DF8B7
:100CE000170008208DF8180003208DF81900002047
:100CF0008DF81A008DF81B008DF81C008DF81D0072
:100D00008DF81E0001208DF81F0005A9134800F082
:100D100022FC0020ADF80400ADF80600ADF8080094
:100D2000ADF80A00ADF80C008DF80E008DF80F003C
:100D300001208DF810008DF8110001A800F0EEFAE6
:100D400001220221054800F0FDFB01221146034863
:100D500000F0F8FB0BB000BD000C02400064004046
:100D600000B585B00221294800F05CFB00284AD07C
:100D70006A460021254800F078FC9DF8080000280C
:100D80003DD19DF80900002839D19DF80A000828B6
:100D900035D132201E4908600098A0F201200828B1
:100DA0002BD2DFE800F0042A090E14191F2469462B
:100DB000184800F06FFA21E06946174800F06AFA17
:100DC0001CE069461448103000F064FA16E06946E9
:100DD000124800F05FFA11E069461048103000F048
:100DE00059FA0BE069460E4800F054FA06E06946ED
:100DF0000B48103000F04EFA00E000BF00BF0221A7
:100E0000024800F0F3F905B000BD000000640040A6
:100E100040000020CC0100202C0200200C02002009
:100E20004C02002000B585B000208DF808008DF838
:100E3000090008208DF80A0040F2FF1000901D48BC
:100E40008089000A8DF80B001A48017B8DF80C1080
:100E5000808B010A8DF80D101648017F8DF80E1059
:100E600015488089010A8DF80F101348017B8DF811
:100E70001010808B010A8DF811100F48017F8DF83A
:100E8000121000200D4908700D480068002803DD8D
:100E900069460C4800F071FC04E00948006800282D
:100EA00000DC03E0054800780028F6D000BF05B05C
:100EB00000BD00000C0200204C0200204800002071
:100EC000400000200064004010B50121054800F0FA
:100ED000A9FA30B10120044908700121014800F04D
:100EE00085F910BD006400404800002000B585B0C1
:100EF00000208DF808008DF8090008208DF80A0000
:100F00008001009000208DF80B0000218DF80C105E
:100F10008DF80D108DF80E1014488089010A8DF897
:100F20000F101248017B8DF81010808B010A8DF88C
:100F300011100E48017F8DF8121000200C49087026
:100F40000C480068002803DD69460B4800F015FCDA
:100F500004E008480068002800DC03E0044800784A
:100F60000028F6D000BF05B000BD00002C02002014
:100F700048000020400000200064004000B58BB015
:100F80000121022002F03CFF0121480602F048FF47
:100F90000121880602F044FF092205213F4801F0A3
:100FA000D4F8092206213D4801F0CFF860200990CD
:100FB00002208DF8280003208DF8290000208DF8EC
:100FC0002A0009A9354801F078F840208DF8200062
:100FD00002208DF8210000208DF8220001208DF8DC
:100FE000230008A802F06EFD3F208DF820000220AB
:100FF0008DF8210000208DF8220001208DF82300BB
:1010000008A802F05FFD264800F06CF905A800F082
:10101000A4FB0320ADF8140000208DF816008DF815
:10102000170008208DF8180003208DF81900002003
:101030008DF81A008DF81B008DF81C008DF81D002E
:101040008DF81E0001208DF81F0005A9144800F03E
:1010500082FA0020ADF80400ADF80600ADF80800F3
:10106000ADF80A00ADF80C000E208DF80E0000203F
:101070008DF80F0001208DF810008DF8110001A8E7
:1010800000F04CF901220221054800F05BFA012230
:101090001146034800F056FA0BB000BD00040240B0
:1010A0000068004010B50221234800F0BBF9002879
:1010B00040D0224A0021204800F0D7FA1F48007A89
:1010C00088BB1E48407A70BB1C48807A08282DD106
:1010D00032201B49086019480068B0F5817F23D190
:1010E0006420184908601548007B1449C97A40EA11
:1010F000012000B2144988801048817B407B41EA7E
:10110000002000B21049C8800C48017CC07B41EA35
:10111000002000B20C4908810848407C88720748CA
:10112000807CC87201E001E000BF00BF02210248DC
:1011300000F05CF810BD0000006800406C02002068
:10114000440000204C000020A402002000B585B01F
:1011500000208DF808008DF8090008208DF80A009D
:1011600040F20110009001208DF80B0000218DF855
:101170000C108DF80D108DF80E108DF80F108DF8E5
:1011800010108DF811108DF8121000200B49087006
:101190000B480068002803DD69460A4800F0EDFAB4
:1011A00004E007480068002800DC03E003480078FA
:1011B0000028F6D000BF05B000BD000049000020A7
:1011C000440000200068004010B50121054800F0EF
:1011D00029F930B10120044908700121014800F0CB
:1011E00005F810BD0068004049000020B1F5007FFF
:1011F0003AD00FDC202928D006DC01291CD0042994
:101200001DD0082940D11DE0402921D0B1F5807FB3
:101210003AD126E0B1F5004F31D006DCB1F5806F50
:1012200025D0B1F5006F2FD124E0B1F5803F12D069
:10123000B1F5003F28D111E0154A826025E008226F
:10124000C26022E01022C2601FE0082202611CE09E
:101250001022026119E00822426016E0102242606A
:1012600013E00422426010E0042242600DE00422F8
:1012700042600AE0002282610422426005E000220E
:1012800082610422426000E000BF00BF704700009E
:10129000010101000A7BCB7A42EA032212B24281A9
:1012A0008B7B4A7B43EA022212B202800B7CCA7B10
:1012B00043EA022212B282804A7CC280028972B161
:1012C000B0F90A20B0F908309A4205DA428902F5ED
:1012D000005212B2428004E04289428001E0428919
:1012E0004280704710B504460B48844209D1012161
:1012F000480602F0A5FD00214FF0007002F0A0FDAD
:1013000008E00121880602F09BFD00214FF080607B
:1013100002F096FD10BD00000064004010B50021F1
:10132000837A012202FA03F13D4A126842F0010277
:101330003B4B1A603A4A1C3212688A43384B1C33C2
:101340001A60027BCAB9364A0C3212688A43344B9F
:101350000C331A604288C38842EA0343304A403261
:10136000847A42F834300288838842EA03432C4A64
:101370004032847A02EBC4025360027B012A19D105
:10138000274A0C3212680A43254B0C331A604288F4
:10139000038842EA0343224A4032847A42F83430D6
:1013A000C288838842EA03431D4A4032847A02EBB2
:1013B000C4025360C27A3AB9194A121D12688A43AC
:1013C000174B1B1D1A6006E0154A121D12680A43CE
:1013D000134B1B1D1A60028932B9114A143212686C
:1013E0008A430F4B14331A600289012A06D10C4A32
:1013F000143212680A430A4B14331A60427B012AE2
:1014000006D1074A1C3212680A43054B1C331A6086
:10141000034A126822F00102014B1A6010BD00005D
:101420000066004070B504460D46002660692840FD
:10143000002871D0B5F5807F5CD010DC082D35D048
:1014400006DC012D20D0022D24D0042D72D127E0FE
:10145000102D31D0202D35D0402D6BD138E0B5F591
:10146000004F60D009DCB5F5007F49D0B5F5806F3D
:101470004CD0B5F5006F5DD14FE0B5F5803F2DD074
:10148000B5F5003F56D12FE0A0682D4900F008FACD
:10149000064651E0E068032100F002FA06464BE000
:1014A000E068082100F0FCF9064645E0E0681021FC
:1014B00000F0F6F906463FE02069032100F0F0F95C
:1014C000064639E02069082100F0EAF9064633E0D3
:1014D0002069102100F0E4F906462DE0606808213B
:1014E00000F0DEF9064627E06068102100F0D8F928
:1014F000064621E0A069012100F0D2F906461BE072
:10150000A069022100F0CCF9064615E0A06904218B
:1015100000F0C6F906460FE00FE0A069702100F068
:10152000BFF9064608E06068042100F0B9F90646F4
:1015300002E0FFE7002600BF00E00026304670BD55
:10154000010101001AB143690B43436102E04369A1
:101550008B434361704730B5024600200023146876
:1015600024F002041460146844F00104146000E0E4
:101570005B1C546804F001041CB94FF6FF74A342CD
:10158000F6D1546804F001040CB900206CE08C79A9
:10159000012C04D1146844F08004146003E0146842
:1015A00024F080041460CC79012C04D1146844F038
:1015B0004004146003E0146824F0400414600C7AC2
:1015C000012C04D1146844F02004146003E0146872
:1015D00024F0200414604C7A012C04D1146844F0E7
:1015E0001004146003E0146824F0100414608C7A72
:1015F000012C04D1146844F00804146003E014685A
:1016000024F008041460CC7A012C04D1146844F04E
:101610000404146003E0146824F0040414608C785B
:10162000A407CD7844EA05640D7944EA05444D7970
:1016300044EA05540D886D1E2C43D461146824F0CF
:1016400001041460002300E05B1C546804F00104F2
:101650001CB14FF6FF74A342F6D1546804F00104A4
:101660000CB1002000E0012030BD10B500F5D873AA
:1016700003EB01131B6803F004031372137A53B9CD
:1016800000F5D87303EB01131B6840F2FF7404EA02
:101690005353136009E000F5D87303EB01131B6883
:1016A0006FF0604404EAD303536000F5D87303EB92
:1016B00001131B6803F00203537200F5D87303EBA8
:1016C00001135B6803F00F03937200F5D87303EB0B
:1016D00001135B681B0AD37400F5D87303EB011385
:1016E0009B68D37200F5D87303EB01139B681C0A47
:1016F000147300F5D87303EB01139B681C0C54732F
:1017000000F5D87303EB01139B681B0E937300F570
:10171000D87303EB0113DB68D37300F5D87303EBC5
:101720000113DB681C0A147400F5D87303EB011372
:10173000DB681C0C547400F5D87303EB0113DB68F1
:101740001B0E937421B9C36843F02003C36003E008
:10175000036943F02003036110BD00218171C17151
:10176000017241728172C1728170C1700321017175
:101770000221417101210180704710B5024600200D
:10178000936803F08063B3F1806F00D110E0936839
:1017900003F00063B3F1006F01D1012008E093680A
:1017A00003F08053B3F1805F01D1022000E00420F8
:1017B000042874D002F5C07303EB00131B6803F018
:1017C000010402F5C07303EB00131C600B7A7BB9B4
:1017D0004B7A0C8843EA445302F5C07404EB0014BE
:1017E0002468234302F5C07404EB0014236010E066
:1017F0000B7A4C6843EAC4034C7A234302F5C07465
:1018000004EB00142468234302F5C07404EB0014B5
:1018100023608B7A03F00F038B7202F5C07303EB26
:1018200000135B6823F00F0402F5C07303EB001391
:101830005C6002F5C07303EB00135B688C7A234392
:1018400002F5C07404EB001463608B7B1C064B7BB9
:1018500044EA03440B7B44EA0323CC7A234302F596
:10186000C07404EB0014A3608B7C1C064B7C44EA20
:1018700003440B7C44EA0323CC7B234302F5C0746E
:1018800004EB0014E36002F5C07303EB00131B6864
:1018900043F0010402F5C07303EB00131C6010BD9C
:1018A0000246002002EA01030BB1012000E0002003
:1018B0007047000010B500F009F840F63401024806
:1018C00002F099FF10BD00000000014000B58BB090
:1018D0000121084602F0C4FA0121102002F090FA1A
:1018E00001220921224800F030FC4FF400700990D9
:1018F00002208DF8280000208DF82A0003208DF8A2
:10190000290009A91A4800F0D8FBA720ADF8180053
:101910000020ADF81A0044F61F6007900020ADF8D3
:10192000200006A9134802F069FF4FF4FA60039003
:101930006020ADF804000120ADF806000020ADF8ED
:10194000100001A90B4802F0B5FE0821094802F079
:10195000EFFE0121074802F069FE0121054802F06F
:1019600080FE0121034802F070FE0BB000BD0000B4
:10197000001002400000014010B50949094800F07C
:101980000BF9012807D10021064800F027F817219C
:10199000044800F07DF90249024800F005F810BD46
:1019A00000800028B86402400246094B9A4201D2E6
:1019B000084801E00648103801F000531BB1064BFF
:1019C0000B40C36002E0044B0B4083607047000093
:1019D00010640240006002407D0F7D0F21B102685B
:1019E00042F00102026003E0026822F0010202609C
:1019F00070470000016821F00101016000210160D1
:101A000041608160C1600161212141614A49884290
:101A100004D13D21484A103A91608CE04649183182
:101A2000884205D14FF47461434A103A916082E0D4
:101A300041493031884205D14FF474113E4A103A81
:101A4000916078E03C494831884205D14FF074619B
:101A5000394A103A91606EE037496031884204D1CA
:101A60003649354A103AD16065E0334978318842C9
:101A700004D13349304A103AD1605CE02E499031AC
:101A8000884204D12F492C4A103AD16053E02A49A8
:101A9000A831884205D14FF03D51274A103AD16014
:101AA00049E02949884204D13D21274A083A11607A
:101AB00041E025491831884205D14FF47461224A2A
:101AC000083A116037E020493031884205D14FF49F
:101AD00074111D4A083A11602DE01B4948318842B3
:101AE00005D14FF07461184A083A116023E0164995
:101AF0006031884204D11149134A121F11601AE063
:101B000011497831884204D10D490F4A121F1160E2
:101B100011E00D499031884204D10A490A4A121F46
:101B2000116008E00849A831884204D14FF03D51C6
:101B3000054A121F11607047106002403D000020EE
:101B4000400F002000003D201064024021B10268D7
:101B500042F48022026003E0026822F480220260E4
:101B6000704722B1036843F40023036003E0036875
:101B700023F400230360016170470146486880B286
:101B80007047014600200A6802F400220AB10120D1
:101B900000E000207047000070B5024600200024DD
:101BA0000025124EB24201D2114B01E00F4B103B07
:101BB000104E0E4036B11E2606EAD124166806EAFB
:101BC000040502E0566906F0800501F000560EB1EA
:101BD0005C6800E01C68084E344004EA010616B157
:101BE0000DB1012000E0002070BD00001064024033
:101BF000006002403C0F3C0F7D0F7D0F10B501F0DF
:101C000080034BB122B1436943F08003436103E099
:101C1000436923F08003436180290BD02AB1036814
:101C200001F01E042343036004E0036801F01E0476
:101C3000A343036010BD000010B500220268134BDF
:101C40001A40CC680B6823434C6923438C692343B7
:101C5000CC6923430C6A23434C6A23438C6A234395
:101C60004C6B23438C6B23431A430260426922F07E
:101C70000702D1E90B3423431A4342610B694360E5
:101C80004B6883608B68C36010BD00003F801CF010
:101C90004160704764212E4A11600178427841EA20
:101CA0000221C1F30A01A1F580612A4A118041781D
:101CB000C910827841EA4211C1F30A01A1F580619D
:101CC000244A518081788911C27841EA82010279DF
:101CD00041EA8221C1F30A01A1F580611D4A918088
:101CE00001794910427941EAC211C1F30A01A1F513
:101CF0008061184AD180017C427C41EA0221C1F313
:101D00000A01A1F58061134A1181417909118908FD
:101D100091724179C1F30111D1728179C27941EA9D
:101D2000022109B20B4A9181017A427A41EA0221E9
:101D30000AB208494A83027B81F82820427B81F855
:101D40002920817BC27B41EA022202494A857047F1
:101D50004C000020A402002010B500F04DF800F067
:101D600099F800F001F810BD00B58FB001214805C9
:101D700002F046F81D48FFF73DFE4FF0006000906E
:101D80001B4801901B4802900020039012200490F1
:101D9000002005904FF48060069000200790089086
:101DA0004FF4807009904FF440300A9000200B905F
:101DB0000C900D900E9069460C48FFF73DFF0022F5
:101DC0000C4912310948FFF7CCFE01210748FFF703
:101DD000BDFE01210548FFF701FE01224021044814
:101DE000001F02F0EEFD0FB000BD000028600240B1
:101DF000044800408002002000B587B00121042083
:101E000001F0FEFF0121880402F00AF807220B21ED
:101E10001D4800F09AF94FF40060059002208DF8FB
:101E2000180003208DF8190000208DF81A000120F9
:101E30008DF81B0005A9144800F03FF913480190E4
:101E40000020ADF80800ADF80A004FF48060ADF84E
:101E50000C000020ADF810000420ADF80E0001A920
:101E60000B4802F007FE1021094802F095FD0122FF
:101E700040F22441064802F0D7FD0121044802F057
:101E800094FD07B000BD000000080240A0860100DC
:101E90000048004008B527208DF8000001208DF88B
:101EA000010000208DF8020001208DF80300684633
:101EB00001F008FE08BD704710B54FF4807000F0C7
:101EC0000BF84FF4807000F001F810BD0149086074
:101ED00070470000143C014001460020034A12688C
:101EE0000A400AB1012000E000207047143C014084
:101EF00001F58052B2F5005F04DBA1F5805212B209
:101F0000028103E001F5805212B2028170470000A5
:101F100030B10749096841F48061054A116005E064
:101F20000349096821F48061014A1160704700008B
:101F3000003C024070B504460A460026092502B955
:101F400009E0012A01D1160205E0022A01D1160298
:101F500001E04FF4407600F09FF80546092D28D1A6
:101F60001548006820F4407013490860084600686E
:101F7000304308600846006820F0F8000860084612
:101F8000006844F0020108430B49086008460068F5
:101F900040F48030086000F07FF80546064800688D
:101FA00020F00200044908600846006820F0F800AC
:101FB0000860284670BD0000103C0240092013490B
:101FC000096801F48031B1F5803F01D101201CE0A6
:101FD0000E49096801F0100109B1062015E00B490E
:101FE000096801F4807109B102200EE0074909680F
:101FF00001F0EF0109B1072007E00449096801F089
:10200000020109B1082000E0092070470C3C0240A1
:102010000348006840F00040014908607047000034
:10202000103C024030B502460C46092500F034F859
:102030000546092D19D10E48006820F440700C495E
:1020400008600846006840F40070086008460068B0
:1020500040F001000860146000F01EF805460448D6
:10206000006820F0010002490860284630BD0000E9
:10207000103C02400548006800F0004028B10448C8
:1020800002490C390860034808607047103C024060
:1020900023016745AB89EFCD08B509200090FFF714
:1020A0008DFF009002E0FFF789FF00909DF800008F
:1020B0000128F8D09DF8000008BDF0B50A460021BF
:1020C0000023002400BF3DE0012505FA01F3156857
:1020D00005EA03049C4234D105684F000326BE4044
:1020E000B543056015794E00B54006683543056077
:1020F0001579012D02D01579022D16D185684F0072
:102100000326BE40B543856055794E00B5408668CC
:1021100035438560456801268E40B5434560456876
:1021200096798E40B6B235434560C5684F000326A8
:10213000BE40B543C560D5794E00B540C66835434D
:10214000C560491C1029BFD3F0BDF0B500230024A1
:102150004D07ED0E02FA05F3CE1000F1200555F8FB
:1021600026504E07F70E0F26BE40B543CF1000F1A4
:10217000200646F82750CE1000F1200555F82650CD
:1021800045EA0304CE1000F1200545F82640F0BDD5
:10219000418370470183704742694A4042617047FA
:1021A0002248C07A022827D12048B0F90800B0F5AB
:1021B000167F02DD01201E4908601D4800680128C5
:1021C0001AD11A48B0F90800642815DA1748B0F98E
:1021D0000800002810DD1748007818B901201549BB
:1021E000087006E013480078012802D10020114948
:1021F000087000200E4908600F480078022809D1B5
:102200000E48807C012802D10A49087002E00020B3
:10221000084908700A48007830B940F26C700949E2
:10222000486300200349087070470000A4020020A2
:10223000A4010020B80100206801002080030020D4
:10224000B0010020000001401648807A012807D123
:102250001448C07A022803D101201349087019E0FC
:102260001048807A032806D10E48C07A022802D18D
:102270000D4908700EE00B48807A032807D1094801
:10228000C07A032803D102200749087002E0032026
:10229000054908700348807A022802D100200249CB
:1022A00008707047A4020020680100201A48C07A14
:1022B000022828D11848B0F9080010F5167F02DA74
:1022C0000120164908601548006801281BD11248F2
:1022D000B0F9080010F1640F15DD0F48B0F90800DF
:1022E000002810DA0E48007818B901200C4908704F
:1022F00006E00B480078012802D100200849087048
:102300000020064908600448807A022802D1002093
:102310000349087070470000A4020020A0010020BB
:10232000B001002010B55848807A02287DD1564867
:10233000C07A0228FAD15448B0F90400B0F5167FEB
:1023400073DD5148B0F9060010F5167F6DDA64218F
:102350004FF47A70FEF7D6FB4FF4FA7003F09AFA56
:102360006421C800FEF7CEFB4FF4FA7003F092FA36
:1023700000214FF44870FEF7C5FB64214FF47A70DA
:10238000FEF7C0FB4FF4FA7003F084FA6421C80032
:10239000FEF7B8FB4FF4FA7003F07CFA00214FF41B
:1023A0004870FEF7AFFB04E03848B0F90A0038493E
:1023B00008603548807A0328F6D164214FF47A709A
:1023C000FEF7A0FB4FF4FA7003F064FA00214FF41B
:1023D0007A70FEF797FB04E02C48B0F91A002C49FC
:1023E00048602948807A0128F6D164214FF47A7038
:1023F000FEF788FB4FF4FA7003F04CFA00214FF41B
:102400007A70FEF77FFB04E02048B0F91A002049FB
:1024100088601D48C07A0328F6D164214FF47A7091
:10242000FEF770FB4FF4FA7000E02BE003F032FA95
:1024300000214FF47A70FEF765FB04E01348B0F911
:102440001A001349C8601048C07A0128F6D16421E7
:102450004FF47A70FEF756FB4FF4FA7003F01AFA55
:102460006421C800FEF74EFB4FF4FA7003F012FA35
:1024700000214FF44870FEF745FB1022044905483F
:1024800001F01EFE10BD0000A40200200C0200207E
:10249000E002002000F00F0810B51C480021016088
:1024A00041608160C16010220146194801F0F4FDCD
:1024B0001648406848BB1548806830BB1348C06860
:1024C00018BB1248006800BB64214FF47A70FEF715
:1024D00019FB4FF4FA7003F0DDF96421C800FEF730
:1024E00011FB4FF4FA7003F0D5F964214FF47A70C0
:1024F000FEF708FB4FF4FA7003F0CCF900214FF41B
:102500004870FEF7FFFA00BFFEE710BDE0020020B2
:1025100000F00F0810B56A480078E8B36948B0F9D0
:10252000120000EE100AB8EEC00A674880ED000AFB
:10253000634890ED020A6448D0ED000A30EEC00A0C
:1025400080ED000A90ED000A6048D0ED000AB4EE7C
:10255000E00AF1EE10FA05DD90ED000A5A4880ED30
:10256000000A0FE0584890ED000A5948D0ED000AE3
:10257000B4EEE00AF1EE10FA04D290ED000A5248EF
:1025800080ED000A534890ED000A534880ED000AA0
:102590004B4890ED010A00E007E04F48D0ED000AFB
:1025A00030EEC00A80ED000A31E0474890ED000AA5
:1025B0004A48D0ED000A30EE200A434880ED000A78
:1025C00090ED000A4148D0ED000AB4EEE00AF1EEC9
:1025D00010FA0ADC3C4890ED000A3D48D0ED000AB4
:1025E000B4EEE00AF1EE10FA06D23C4890ED000A93
:1025F000B1EE400A80ED000A374890ED000A3848F5
:10260000D0ED000A30EE200A334880ED000A2D4854
:10261000B0F9120000EE900AF8EEE00AB0EE600A9F
:102620002948D0ED000A2F4801F092FA2D48503881
:1026300080ED1D0A90ED1D1AF0EE410A2A48B0F90E
:10264000100001EE100AB8EEC11ADFED281A21EED3
:10265000211AB0EE410A264801F07AFABDEEC00A0E
:1026600010EE100A01B2174881831B48D0ED000A12
:10267000184890ED000A1B48503801F069FA1948D3
:10268000503880ED090A90ED091AF0EE410A16481B
:10269000B0F9120001EE100AB8EEC11ADFED131AFC
:1026A00021EE211AB0EE410A1148503801F050FADB
:1026B000BDEEC00A10EE100A00B20249888110BDBA
:1026C000800300200C020020700100207401002013
:1026D00078010020C80000206C010020800100204B
:1026E0008401002024050020FE020020CDCCCC3D3A
:1026F000C405002010B54F48B0F9060000EE100ADE
:10270000B8EEC00ADFED4C0A80EE201A4B4890ED7F
:10271000000A31EE000A80ED000A90ED000A4848F8
:10272000D0ED000AB4EEE00AF1EE10FA05DD90ED0E
:10273000000A424880ED000A0FE0404890ED000A90
:102740004048D0ED000AB4EEE00AF1EE10FA04D2EF
:1027500090ED000A394880ED000A3B48B0F91200BC
:1027600000EE900AF8EEE00AB0EE600A3348D0EDD1
:10277000000A364801F0ECF93448503880ED1D0A63
:1027800090ED1D1AF0EE410A3148B0F9100001EE4B
:10279000100AB8EEC11ADFED2F1A21EE211AB0EEA1
:1027A000410A2D4801F0D4F9BDEEC00A10EE100A1E
:1027B00001B225488183808B284908801D48B0F9E3
:1027C000040000EE100AF8EEC00A9FED251A80EE14
:1027D000810A2448D0ED000A30EE200A80ED000A7C
:1027E000D0ED000A204890ED000A1848503801F05A
:1027F000AFF91648503880ED090A90ED091AF0EE4D
:10280000410A1348B0F9120001EE100AB8EEC11ADD
:10281000DFED101A21EE211AB0EE410A0E485038B1
:1028200001F096F9BDEEC00A10EE100A00B206499A
:10283000888110BDA40200200000484270010020E1
:1028400074010020780100200C02002024050020E3
:10285000FE020020CDCCCC3DC40500207C01002030
:102860000000FA436C010020C800002010B5FFF7FB
:1028700059FD724801F05CFA7048503001F058FA86
:102880006F4801F055FA6E48503001F051FA0221BC
:10289000DFED6C4A9FED6C4AF7EE003A9FED6B3A24
:1028A000DFED692A9FED6A2ADFED681A9FED651A50
:1028B000DFED640AB0EE000A6048503001F088FA9B
:1028C0000221DFED604A9FED604AF7EE003A9FED8E
:1028D0005E3ADFED5D2A9FED5F2ADFED5B1A9FED2B
:1028E000591ADFED580A9FED5C0A5548503001F047
:1028F0006FFA9FED5A0A524880ED1E0A0221DFED61
:10290000514A9FED514AF7EE003A9FED503ADFED04
:102910004E2AB3EE042ADFED4C1A9FED4A1ADFED82
:10292000490AB3EE090A454801F052FA0221DFEDE7
:10293000454A9FED454AF7EE003A9FED433ADFEDF9
:10294000422A9FED472ADFED401AB2EE041ADFED6E
:102950003D0A9FED3F0A3A4801F03AFAFFF79CFD25
:102960004048008801B24048FFF7C2FA3D488088DD
:1029700001B23D481030FFF7BBFA3B4AB2F91810DC
:10298000384A5068FDF701FE00EE100AB8EEC00AA2
:10299000364880ED000A344AB2F91810314A90687E
:1029A000FDF7F3FD00EE100AB8EEC00A304880EDE6
:1029B000000A2D4AB2F918102A4AD068FDF7E5FD41
:1029C00000EE100AB8EEC00A2A4880ED000A284836
:1029D00090ED000A2748D0ED000AB4EEE00AF1EECF
:1029E00010FA13D2224890ED000A224880ED000A26
:1029F0001D4AB2F918101B4AD068FDF7C6FD00EE5B
:102A0000100AB8EEC00A1A4880ED000A164AB2F958
:102A10000810144A1068FDF7B8FD00B21649088086
:102A2000124890ED000ABDEEC00A10EE100A00B286
:102A3000124908800A2002F02DFF10BDD4040020A6
:102A400074050020000000000060EA4600401C46BB
:102A50000000C84200007A4500008C4200803B45DF
:102A600000409C45E00200200C0200207001002084
:102A70007401002078010020500000205200002046
:102A800010B5454890ED000A4448D0ED000AB4EE78
:102A9000E00AF1EE10FA05DD90ED000A3E4880ED07
:102AA000000A0FE03C4890ED000A3D48D0ED000AD6
:102AB000B4EEE00AF1EE10FA04D290ED000A3648C6
:102AC00080ED000A3748B0F9120000EE100AB8EEA7
:102AD000C00A314880ED000A334890ED000A3348BF
:102AE00080ED000A2F48B0F9120000EE900AF8EECF
:102AF000E00AB0EE600A2848D0ED000A2C4801F048
:102B000027F82B48503880ED1D0A90ED1D1AF0EE85
:102B1000410A2848B0F9100001EE100AB8EEC11AB7
:102B2000DFED251A21EE211AB0EE410A234801F00B
:102B30000FF8BDEEC00A10EE100A01B219488183E9
:102B40001A48D0ED000A184890ED000A184850388D
:102B500000F0FEFF1648503880ED090A90ED091A82
:102B6000F0EE410A1348B0F9120001EE100AB8EE77
:102B7000C11ADFED111A21EE211AB0EE410A0F48F9
:102B8000503800F0E5FFBDEEC00A10EE100A00B2AA
:102B90000449888110BD00007001002074010020EC
:102BA000780100200C020020C80000206C010020E9
:102BB00024050020FE020020CDCCCC3DC405002021
:102BC000002003498881002101488183704700006B
:102BD0000C02002000BFFEE700B52DED108B93B076
:102BE000FE4890ED000AD0ED000A20EE200A8DED9F
:102BF000060A90ED000AFA48D0ED000A20EE200AFD
:102C0000F0EE40CAF54890ED000AF648D0ED000A13
:102C100020EE200AB0EE409AF04890ED000AF2480B
:102C2000D0ED000A20EE200A8DED050AEC4890ED6B
:102C3000000AD0ED000A20EE200AB0EE40DA90ED56
:102C4000000AE848D0ED000A20EE200A8DED040AC3
:102C5000E34890ED000AE448D0ED000A20EE200A97
:102C6000F0EE409ADF4890ED000AD0ED000A20EE29
:102C7000200AB0EE40AA90ED000ADB48D0ED000A31
:102C800020EE200AF0EE40DA90ED000AD0ED000AC6
:102C900020EE200AB0EE40EAD44890ED040AD44871
:102CA00080ED000AD14890ED050AD24880ED000A77
:102CB000CE4890ED060AD04880ED000ACB48B0F926
:102CC000000000EE100AB8EEC00ACC4880ED000A01
:102CD000C648B0F9020000EE100AB8EEC00AC848B3
:102CE00080ED000AC148B0F9040000EE100AB8EE09
:102CF000C00AC44880ED000ABC48B0F9060000EEE6
:102D0000100AB8EEC00AC04880ED000AB748B0F912
:102D1000080000EE100AB8EEC00ABC4880ED000AB8
:102D2000B248B0F90A0000EE100AB8EEC00AB8487E
:102D300080ED000AB7480068B74908600846006897
:102D4000B6490968401A00EE100AB8EE400ADFEDF5
:102D5000B40A80EE201AF0EE418AAF480068AF490D
:102D60000860A648D0ED000A90ED001A60EE810AD6
:102D7000A34890ED001AD0ED001A41EE210AA148B7
:102D800090ED001AD0ED001A41EE210AB0EE600A73
:102D900002F052FEB0EE408A984890ED000A20EE14
:102DA000080A80ED000A964890ED000A20EE080A15
:102DB00080ED000A934890ED000A20EE080A80EDAD
:102DC000000A9FED980A904880ED000A9FED950A51
:102DD0008E4880ED000A9FED930A8D4880ED000A31
:102DE000894890ED000AF0EE000A20EE200AF6EE87
:102DF000000A70EECA0A70EECE0A20EE200A83485E
:102E0000D0ED000AB0EE001A60EE811ADDED040A82
:102E10009DED051A70EEC10A01EEA00A7C48D0EDC6
:102E2000000AB0EE001A60EE810A39EE891A00EE4F
:102E3000810A8DED110A744890ED000AF0EE000A47
:102E400020EE201A9DED040ADDED050A30EE200A81
:102E500021EE000A6D48D0ED000AB0EE001A60EED7
:102E6000810AB6EE001A31EE4D1A31EE4E1A00EE1E
:102E7000810A6748D0ED000AB0EE001A60EE810AC0
:102E80003DEEEC1A00EE810A8DED100A5E4890EDE1
:102E9000000AF0EE000A20EE200A79EEC90A20EEC0
:102EA000200A5A48D0ED000AB0EE001A60EE810AFE
:102EB0003DEEAC1A00EE810A5548D0ED000AB0EEA6
:102EC000001A60EE810AB6EE001A31EE4D1A31EEAC
:102ED0004A1A00EE810AF0EE40AA9DED110A60EE5A
:102EE000000A9DED100A40EE000A10EE901A084606
:102EF00005F000FECDE900019DED000B02F06AFA3D
:102F00008DED020B9DED020B51EC100B05F07CF8E2
:102F10000EEE900AB0EE6AFA39EEC90AF0EE000A37
:102F200020EE200A8DED0F0A3CEEAD0AF0EE000A0D
:102F300020EE200A8DED0E0A9DED060A30EE4D0AB8
:102F400030EE4A0A30EE0E0A8DED0D0AB0EE000AA0
:102F50002EEE800AF6EE000A70EECA0A70EECE0A75
:102F600020EE200AF0EE000A6FEE200A39EEC91AB0
:102F700000EE810A8DED0C0AB0EE000A2EEE801AEA
:102F80009DED040ADDED050A30EE600A21EE000A2F
:102F9000F0EE000A6FEE200A3CEEAD1A00EE810A58
:102FA0008DED0B0AB0EE000A2EEE800A79EE290AAA
:102FB00020EE200AF0EE000A6FEE200AB6EE001AAC
:102FC00031EE4D1A31EE4A1A00EE810A8DED0A0AF1
:102FD0000B48D0ED000A9DED0D0A25E054000020BD
:102FE000580000205C00002060000020200300202A
:102FF0007000002074000020780000207C00002079
:103000008000002084000020880000208C00002028
:1030100090000020C40000209800002094000020B0
:103020000000FA440000000020EE800AB54890ED50
:10303000001ADDED0E0A01EE600AB34890ED001AA9
:10304000DDED0A0A21EE201AB048D0ED001ADDEDC0
:103050000B0A01EEE01A30EE010AF0EE40FAA94840
:10306000D0ED000A9DED0F0A60EE800AA84890EDB1
:10307000001A9DED0D0A41EE400AA44890ED001A99
:103080009DED0C0A21EE001AA248D0ED001A9DED2C
:103090000A0A01EEC01A30EE810A8DED090A9C4839
:1030A000D0ED000A9DED0E0A20EE800A9A4890EDC0
:1030B000001ADDED0F0A01EE600A964890ED001A45
:1030C000DDED0B0A21EE201A8F48D0ED001ADDED60
:1030D0000C0A01EEE01A30EE010A8DED080AF5EE59
:1030E000C0FAF1EE10FA63D09DED090AB5EEC00A00
:1030F000F1EE10FA5CD09DED080AB5EEC00AF1EED3
:1031000010FA55D09FED850A6FEE800A844890ED45
:10311000000A00EEA80A80ED000A9DED090ADFED25
:103120007F0A60EE200A7F4890ED000A00EEA80AB0
:1031300080ED000A9DED080ADFED780A60EE200AB6
:10314000794890ED000A00EEA80A80ED000A774861
:1031500090ED000AF0EE000A00EEAF0A7048D0EDE4
:10316000000A30EE200A714880ED000A7048D0ED68
:10317000000A9DED090AB0EE001A41EE000A694806
:1031800090ED000A30EE800A694880ED000A694837
:10319000D0ED000A9DED080AB0EE001A41EE000ADB
:1031A000614890ED000A30EE800A624880ED000A26
:1031B000614890ED000AB1EE400A5C48D0ED000A8B
:1031C00020EE200A5D48D0ED000A594890ED001A23
:1031D00000EEC10A5A4890ED001A5648D0ED001A88
:1031E000F0EE400A41EE610A564890ED000A00EE0A
:1031F000A80A8DED070A90ED000A4C48D0ED000AB0
:1032000020EE200A4D48D0ED000A4A4890ED001A01
:1032100000EE810A4A48D0ED000A454890ED001AB8
:1032200000EEC10A4448D0ED000AB0EE60BA00EEEC
:1032300028BA444890ED000A3D48D0ED000A20EE3F
:10324000200A3D48D0ED000A3A4890ED001A00EE01
:10325000C10A3B48D0ED000A344890ED001A00EE58
:10326000810A3648D0ED000AF0EE60BA40EE28BA86
:10327000344890ED000A2F48D0ED000A20EE200AD5
:103280002D48D0ED000A2A4890ED001A00EE810A80
:103290002A48D0ED000A254890ED001A00EEC10A38
:1032A0002748D0ED000AB0EE60CA00EE28CADDED76
:1032B000070A60EEA00A4BEE0B0A4BEEAB0A4CEE8F
:1032C0000C0AB0EE600A02F0B7FBB0EE408A9DED4A
:1032D000070A20EE080A1B4880ED000A2BEE080AB8
:1032E000154880ED000A2BEE880A144880ED000A8C
:1032F0002CEE080A124880ED000A13B0BDEC108BCA
:1033000000BD0000840000208C0000209000002000
:103310007C00002088000020800000200AD7233C89
:1033200064000020680000206C0000207000002075
:103330007400002078000020580000205C0000206D
:10334000600000205400002010B52DED088B794856
:1033500090ED000AF8EE000A20EE200AD0ED000AF7
:1033600020EE200A7448D0ED000AB0EE001A60EE9C
:10337000810A90ED001A00EEC10AF7EE000A30EE65
:10338000200A10EE101A084605F0B4FB41EC1A0BA7
:10339000694890ED000AF0EE000A20EE200A674826
:1033A000D0ED000A20EE200A6548D0ED000AB0EE0C
:1033B000001A60EE810A5F4890ED001A00EE810A63
:1033C00010EE101A084605F095FB41EC1B0BB0EE11
:1033D0004A1AF0EE6A1AB0EE4B0AF0EE6B0A01F0F0
:1033E000EFFEB0EE409AF0EE609A9FED560B53EC74
:1033F000102B51EC190B05F0BDF841EC180B04F043
:1034000003FE524988624B4890ED000AF8EE000A2C
:1034100020EE200A4948D0ED000A20EE200A484854
:10342000D0ED000AB0EE001A60EE810A424890ED3D
:10343000001A00EE810A10EE101A084605F05AFB39
:1034400041EC1A0BB0EE4A0AF0EE6A0A01F09CFB5E
:10345000B0EE409AF0EE609A9FED3A0B53EC102BD1
:1034600051EC190B05F086F841EC180B04F0CCFD7B
:103470003649C862304890ED000AF8EE000A20EEA6
:10348000200AD0ED000A20EE200A2C48D0ED000AD8
:10349000B0EE001A60EE810A90ED001A00EEC10A4B
:1034A000F7EE000A30EE200A10EE101A084605F07A
:1034B00021FB41EC1A0B1F4890ED000AF0EE000AC8
:1034C00020EE200A1C48D0ED000A20EE200A1C48FD
:1034D000D0ED000AB0EE001A60EE810A174890EDB8
:1034E000001A00EE810A10EE101A084605F002FBE1
:1034F00041EC1B0BB0EE4A1AF0EE6A1AB0EE4B0A22
:10350000F0EE6B0A01F05CFEB0EE409AF0EE609ACD
:103510009FED0C0B53EC102B51EC190B05F02AF816
:1035200041EC180B04F070FD08490863BDEC088BF2
:1035300010BD0000580000205C000020600000204A
:10354000540000206666666666A64C402003002094
:103550001CB50121802000F053FC4FF4C0500090B6
:1035600000208DF8040001208DF8070003208DF85D
:10357000050000208DF8060069460248FEF79DFD13
:103580001CBD0000001C02401CB50121802000F081
:1035900037FC4FF4E050009001208DF8040000202B
:1035A0008DF8060003208DF8050069460448FEF7F3
:1035B00084FD4FF4E0510248FEF7EAFD1CBD000017
:1035C000001C02401CB50121042000F019FC4FF43E
:1035D0008070009001208DF8040000208DF8060016
:1035E00003208DF8050069460548FEF766FD4FF497
:1035F00080710348FEF7CEFDFFF7AAFF1CBD000057
:103600000008024000BFFEE7704700000178C27862
:10361000114442791144FF2291FBF2F302FB131192
:10362000427A914234D101781F2901D1012100E071
:1036300000211E4A91744178827841EA022109B240
:1036400000EE101AB8EEC00ADFED190A80EE201A5B
:10365000164981ED011AC178027941EA022109B2C5
:1036600000EE101AB8EEC00A104981ED020A817905
:1036700049B20E4A117011460978A9B99FED0D0A99
:10368000114681ED010A9FED0B0A81ED020A0BE064
:103690000021064A11709FED070A114681ED010ACB
:1036A0009FED040A81ED020A7047000080030020AC
:1036B0000000C8420000000010B500F085F900F0DD
:1036C000E1F900F009F910BD10B57648B0F9020033
:1036D0007549B1F90010401A00EE100AB8EEC00AA0
:1036E0009FED721AC0EE010A9FED710A20EE800A6A
:1036F000F2EE040A20EE200A6E4880ED000A6948C6
:10370000B0F912006C49B1F90010401A00EE100A2D
:10371000F8EEC00A9FED651A80EE810ADFED640ABB
:1037200020EE200AF2EE040A20EE200A634880ED23
:10373000000A5C48B0F9000000EE100AB8EEC00ABA
:10374000DFED5F0A60EE200A9FED5E1A80EE810ACF
:10375000F2EE040A20EE200A5B4880ED000A514890
:10376000B0F9100000EE100AB8EEC00ADFED540AFE
:1037700020EE200ADFED530A80EE201AB2EE040A92
:1037800021EE000A514880ED000A7A205049087065
:10379000484890ED000ABDEEC00A10EE100A01B2D2
:1037A000002001F00DFF4A498870424890ED000A60
:1037B000BDEEC00A10EE100A01B2012001F000FFB8
:1037C0004349C8703B4890ED000ABDEEC00A10EEB8
:1037D000100A01B2022001F0F3FE3D49087135489C
:1037E00090ED000ABDEEC00A10EE100A01B20320EF
:1037F00001F0E6FE36494871344890ED000ABDEE0E
:10380000C00A10EE100A01B2002002F0CFFF3049CA
:1038100088712E4890ED000ABDEEC00A10EE100A25
:1038200001B2012002F0C2FF2949C871264890ED7B
:10383000000ABDEEC00A10EE100A01B2002002F02C
:10384000B5FF23490872204890ED000ABDEEC00A7A
:1038500010EE100A01B2012002F0A8FF1C494872C4
:10386000164890ED000ABDEEC00A10EE100A01B233
:10387000002002F09BFF16498874104890ED000A62
:10388000BDEEC00A10EE100A01B2012002F08EFF58
:103890000F49C8747B20887501210E48FEF79EF8F9
:1038A00010BD00000C020020500000200000004667
:1038B00000003443B400002052000020B800002073
:1038C0000000B44300007042BC000020C000002093
:1038D00068030020B864024000B58FB0012188055C
:1038E00000F08EFA4FF000600090334801903348AA
:1038F0000290002003900A200490002005904FF4CD
:10390000806006900020079008904FF48070099026
:103910004FF440300A9000200B900C900D900E90C8
:1039200069462748FEF788F9002224490A312448CD
:10393000FEF717F901212248FEF708F9012240217C
:103940001D48001F01F03DF801211D48FEF746F813
:103950004FF000600090184801901A4802904020F3
:10396000039017200490002005904FF4806006908B
:1039700000200790089009904FF440300A900020F2
:103980000B900C900D900E9069460D487830FEF724
:1039900053F9012280210848001F01F012F801228A
:1039A000102107487830FEF729F9012104487830C2
:1039B000FEF714F80FB000BD0410014054030020BE
:1039C000406402406803002000B587B0012108462A
:1039D00000F016FA0121102000F042FA0722092116
:1039E0002548FEF7B2FB072211462448FEF7ADFB3F
:1039F0004FF40070059002208DF8180003208DF818
:103A0000190000208DF81A0005A91B48FEF755FB88
:103A10008020059002208DF8180003208DF81900F1
:103A200000208DF81A0005A91448FEF746FB4FF454
:103A3000E13001900020ADF80800ADF80A00ADF8C3
:103A40000C000C20ADF80E000020ADF8100001A90C
:103A50000B4801F00FF81021094800F09DFF0122EA
:103A600040F22441064800F0DFFF0121044800F045
:103A70009CFF07B000BD00000000024000040240AF
:103A80000010014008B525208DF8000001208DF8B8
:103A9000010000208DF8020001208DF80300684627
:103AA00000F010F846208DF8000001208DF801008C
:103AB00000208DF8020001208DF80300684600F018
:103AC00001F808BD70B5002100230F22C4781CB393
:103AD000174C246804F4E064C4F5E064C4F30721DF
:103AE000C1F10404E3B20A4144789C40E1B2847815
:103AF000144021430C07210E0E4C057861550478C3
:103B000004F01F050124AC4005786D11AD0005F1EE
:103B1000E025C5F8004109E0047804F01F05012400
:103B2000AC40054D0678761145F8264070BD000082
:103B30000CED00E000E400E080E100E00249014318
:103B4000024A1160704700000000FA050CED00E029
:103B500010B52DED088B0446B0EE408AF0EE608A79
:103B600094ED110AC8EE000AB0EE608AC4ED108A26
:103B700038EEC80A84ED030A94ED050A10EE101A17
:103B8000084604F0B7FF41EC190B94ED030A10EE60
:103B9000101A084604F0AEFF41EC1B0BB0EE4B0AC6
:103BA000F0EE6B0A01F00CFCB0EE40AAF0EE60AA59
:103BB00053EC192B51EC1A0B04F0A0FC03D29FED2F
:103BC0005B0A84ED030A94ED000AD4ED030A20EEAB
:103BD000200A84ED060A94ED060AD4ED0B0AB4EE31
:103BE000E00AF1EE10FA03DD94ED0B0A84ED060A0B
:103BF00094ED060AD4ED0B0AF1EE600AB4EEE00A89
:103C0000F1EE10FA05D294ED0B0AB1EE400A84ED04
:103C1000060A94ED070AD4ED010A94ED031A00EEAA
:103C2000810A84ED070A94ED070AD4ED0C0AB4EE7C
:103C3000E00AF1EE10FA03DD94ED0C0A84ED070AB8
:103C400094ED070AD4ED0C0AF1EE600AB4EEE00A36
:103C5000F1EE10FA05D294ED0C0AB1EE400A84EDB3
:103C6000070A94ED030AD4ED040A30EE600AD4ED9D
:103C7000020A20EE200A84ED080A94ED080AD4ED29
:103C80000D0AB4EEE00AF1EE10FA03DD94ED0D0A30
:103C900084ED080A94ED080AD4ED0D0AF1EE600AED
:103CA000B4EEE00AF1EE10FA05D294ED0D0AB1EE91
:103CB000400A84ED080A94ED060AD4ED070A30EEB6
:103CC000200AD4ED080A30EE200AD4ED0A0A30EEBC
:103CD000200A84ED090A94ED090AD4ED0E0AB4EE27
:103CE000E00AF1EE10FA03DD94ED0E0A84ED090A04
:103CF00094ED090AD4ED0E0AF1EE600AB4EEE00A82
:103D0000F1EE10FA05D294ED0E0AB1EE400A84ED00
:103D1000090A94ED090A84ED0F0A94ED030A84ED73
:103D2000040A94ED090ABDEC088B10BD00000000E8
:103D30009FED260A80ED000A9FED240A80ED010A1E
:103D40009FED220A80ED020A9FED200A80ED030A12
:103D50009FED1E0A80ED040A9FED1C0A80ED050A06
:103D60009FED1A0A80ED060A9FED180A80ED070AFA
:103D70009FED160A80ED080A9FED140A80ED090AEE
:103D80009FED120A80ED0A0A9FED100A80ED0B0AE2
:103D90009FED0E0A80ED0C0A9FED0C0A80ED0D0AD6
:103DA0009FED0A0A80ED0E0A9FED080A80ED0F0ACA
:103DB0009FED060A80ED100AB7EE000A80ED110AA9
:103DC0009FED020A80ED120A70470000000000001B
:103DD00080ED000AC0ED010A80ED021AC0ED0B1A59
:103DE00080ED0C2AC0ED0D2A80ED0E3AC0ED054A9B
:103DF000C0ED113A80ED124A80F84C107047000077
:103E000029B1064A12680243044B1A6004E0034ACF
:103E100012688243014B1A6070470000303802403C
:103E200029B1064A12680243044B1A6004E0034AAF
:103E300012688243014B1A6070470000403802400C
:103E400029B1064A12680243044B1A6004E0034A8F
:103E500012688243014B1A6070470000203802400C
:103E600029B1064A12680243044B1A6004E0034A6F
:103E700012688243014B1A607047000044380240C8
:103E800029B1064A12680243044B1A6004E0034A4F
:103E900012688243014B1A607047000024380240C8
:103EA000F0B5002100220024022500260223324F13
:103EB0003F6807F00C0121B1042905D0082937D14A
:103EC00005E02E4F076036E02D4F076033E02A4FA4
:103ED0003F1F3F68C7F38056274F3F1F3F6807F0DB
:103EE0003F036EB1264FB7FBF3F7DFF88CC0ACF1A0
:103EF000040CDCF800C0CCF3881C07FB0CF40CE0CD
:103F00001E4FB7FBF3F7DFF870C0ACF1040CDCF820
:103F100000C0CCF3881C07FB0CF4174F3F1F3F6811
:103F2000C7F301477F1C7D00B4FBF5F7076002E093
:103F3000124F076000BF00BF0F4F3F6807F0F0014E
:103F40000909104F7A5C0768D74047600A4F3F68FD
:103F500007F4E051890A0B4F7A5C4768D7408760C5
:103F6000054F3F6807F46041490B064F7A5C47688C
:103F7000D740C760F0BD0000083802400024F400BC
:103F8000001BB700D400002021B1028842F040029B
:103F9000028004E002884FF6BF731A400280704727
:103FA0000246002013890B400BB1012000E00020E5
:103FB00070470146888970478181704710B500229B
:103FC000028802F441520B884C8823438C88234397
:103FD000CC8823430C8923434C8923438C89234376
:103FE000CC8923431A430280838B4FF2FF74234012
:103FF00083830B8A038210BD01461C48814201D293
:10400000002070471A48814201D20820F9E7194878
:10401000814201D21020F4E71748814201D21820D2
:10402000EFE71648814201D22020EAE71448814296
:1040300001D22820E5E71348814201D23020E0E791
:104040001148814201D23820DBE71048814201D279
:104050004020D6E70E48814201D24820D1E70D48E2
:10406000814201D25020CCE75820CAE70040000826
:104070000080000800C000080000010800000208DD
:1040800000000408000006080000080800000A08F4
:1040900000000C0800000E0830B503460C4615461B
:1040A000002206E0184600F007F844F822001B1D25
:1040B000521CAA42F6D330BD014608687047000082
:1040C0002DE9F04704460E4617464FF00908002533
:1040D000A946B4F1006F02D304F0030008B1BDE8B3
:1040E000F087FDF7C7FF0020FDF712FF254604EB20
:1040F00087091848854215D211E02846FFF7DCFFF2
:10410000401C58B12846FFF777FF82460221FDF791
:1041100011FF8046B8F1090F01D002E02D1D4D4579
:10412000EBD300BFB8F1090F0CD108E0204631688D
:10413000FDF778FF092800D003E0241D361D4C450B
:10414000F4D300BF0120FDF7E3FEFDF761FF00BFE0
:10415000C5E700000000FF1F0CB500200190009093
:104160003448006840F480303249086000BF31486C
:10417000006800F4003000900198401C0190009805
:1041800018B90198B0F5A04FF1D12A48006800F4A1
:10419000003010B10120009001E000200090009854
:1041A000012846D123484030006840F08050214922
:1041B000403108602048006840F440401E490860D3
:1041C0001C48083000681B49083108600846006830
:1041D00040F4004008600846006840F4A0500860C1
:1041E0001648091F0860081F006840F08070091F0A
:1041F000086000BF0F48006800F000700028F9D088
:1042000040F205700E4908600A480830006820F046
:1042100003000849083108600846006840F00200C1
:10422000086000BF03480830006800F00C00082850
:10423000F8D10CBD00380240007000400C5440071B
:10424000003C024010B53848FFF772FD3648503048
:10425000FFF76EFD3548FFF76BFD34485030FFF730
:1042600067FD0221DFED324A9FED324AF7EE003A58
:104270009FED303ADFED2F2A9FED2F2ADFED2D1A2B
:104280009FED2B1ADFED2A0AB2EE040A2648FFF74B
:104290009FFD0221DFED264A9FED264AF7EE003A08
:1042A0009FED243ADFED232A9FED232ADFED211A2B
:1042B0009FED1F1ADFED1E0AB2EE040A1A485030B5
:1042C000FFF786FD0221DFED1A4A9FED1A4AF7EE4D
:1042D000003A9FED183ADFED172A9FED172ADFED20
:1042E000151A9FED131ADFED120AB2EE040A0F48F9
:1042F000FFF76EFD0221DFED0E4A9FED0E4AF7EE4D
:10430000003A9FED0C3ADFED0B2A9FED0B2ADFED13
:10431000091A9FED071ADFED060AB2EE040A0348F8
:104320005030FFF755FD10BD640600200407002043
:104330000000000000007A460000484210B52E48F8
:10434000007838B940F26C702C49086000202C4984
:10435000086007E040F63400284908604FF47A60AE
:10436000274908602548006826494863FCF722FC75
:104370002548B0F9000000EE900AF8EEE00AB0EE31
:10438000600A1F48D0ED000AF8EEE00A1F48FFF768
:10439000DFFBBDEEC00A10EE100A00B21A49888198
:1043A0001B48B0F9000000EE900AF8EEE00AB0EE0B
:1043B000600ADFED180A1848FFF7CAFBBDEEC00A15
:1043C00010EE100A00B2124988810846B0F91000B8
:1043D00000EE900AF8EEE00AB0EE600ADFED0F0A98
:1043E0000D485030FFF7B4FBBDEEC00A10EE100AC6
:1043F00001B20748818310BDB8010020BC01002034
:10440000C0010020000001404C02002004070020F1
:104410002C02002000A00CC66406002000A00C4660
:1044200010B52048B0F9000000EE900AF8EEE00A5E
:10443000B0EE600ADFED1C0A1C48FFF789FBBDEEF9
:10444000C00A10EE100A00B2164988811848B0F967
:10445000000000EE900AF8EEE00AB0EE600ADFED30
:10446000120A1448FFF774FBBDEEC00A10EE100AE2
:1044700000B20F4988810846B0F9100000EE900A9A
:10448000F8EEE00AB0EE600ADFED070A09485030A6
:10449000FFF75EFBBDEEC00A10EE100A01B2044841
:1044A000818310BD4C0200200000000004070020A2
:1044B0002C02002064060020042808D14FF0E021DF
:1044C000096941F004014FF0E022116107E04FF06B
:1044D000E021096921F004014FF0E02211617047E9
:1044E00010B503F0D3FA012801D002F095FF10BDFA
:1044F00010B51548006840F470001349086013486F
:10450000006840F001001149086000200F4908319F
:1045100008600E4800680E4908400C4908600D48C4
:10452000091D0860081F006820F48020091F08602A
:10453000002006490C310860FFF70EFE4FF00060C6
:1045400001498039086010BD88ED00E00038024064
:10455000FFFFF6FE1030002410B50121164800F0D0
:104560008FF8012827D115480068401C13490860BE
:104570001348B0F9120000EE100AB8EEC00AF0EECF
:10458000000A20EE200ABDEEC00A0E4880ED000AA7
:104590000D4890ED000A0B48D0ED000AF8EEE00A55
:1045A0009FED0A1A00EE810A074880ED000A0121FA
:1045B000014800F047F810BD00100040C400002082
:1045C000FE020020CC000020C800002082A8FB379B
:1045D0001FB5044601211020FFF722FC029453204E
:1045E000ADF804000020ADF80600ADF80C0001A9FC
:1045F0000D4800F003F936208DF8000000208DF8FA
:1046000001008DF8020001208DF803006846FFF7D5
:1046100059FA01221146044800F043F801210248EA
:1046200000F013F81FBD00000010004021B1028807
:1046300042F08002028004E002884FF67F731A4045
:1046400002807047CA430282704721B1028842F05B
:104650000102028004E002884FF6FE731A400280D5
:10466000704731B1B0F8442042F40042A0F8442031
:1046700005E0B0F84420C2F30E02A0F844207047D1
:1046800030B50246002000230024158A05EA010304
:10469000958905EA010413B10CB1012000E0002066
:1046A00030BD1AB183890B43838102E083898B4338
:1046B0008381704770B5002400220023058C4FF6DB
:1046C000FE7635400584028C8388048B4FF68F7507
:1046D0002C40B51E2C400D882C43751E2A408D8918
:1046E0002A434D882A43104DA84202D00F4DA842BC
:1046F00013D14FF6F7752A40CD892A434FF6FB7543
:104700002A408D882A434FF6FF652B404FF6FF5510
:104710002B400D8A2B434D8A2B43838004838D6865
:104720004563028470BD00000000014000040140A8
:104730000A460021018B4FF6F7731940114301839C
:104740007047000070B5002400220023058C4FF64E
:10475000FF6635400584028C8388848B4FF68F7505
:104760002C404FF6FC752C400D882C434FF6FF551E
:104770002A408D894FF6FF7606EA05252A434D88A3
:1047800006EA05252A43154DA84202D0144DA84239
:104790001DD14FF2FF752A40CD894FF6FF7606EA0C
:1047A00005252A434FF6FF352A408D8806EA052560
:1047B0002A434EF6FF752B404DF6FF752B400D8AB0
:1047C00006EA05152B434D8A06EA05152B4383801F
:1047D00084838D68C563028470BD000000000140C1
:1047E000000401400A460021818B4FF6F7731940FF
:1047F00011438183704741637047000000220288A3
:10480000184B98420ED0184B98420BD0B0F1804F05
:1048100008D0164B984205D0154B984202D0154B44
:10482000984204D14FF68F731A404B881A43124BAB
:10483000984207D0114B984204D04FF6FF431A40DC
:104840000B891A4302804B68C3620B880385054BB2
:10485000984202D0044B984201D18B7A03860123FF
:1048600083827047000001400004014000040040C2
:1048700000080040000C0040001000400014004000
:1048800010B501F0F1FF10BD10B540F224411D48F4
:1048900000F0A0F8002834D000241A4800F054F9A1
:1048A0001948FDF76EF9A8B900211748FDF796F8E9
:1048B0001548FDF762F904460A211348FDF7E8F9A7
:1048C00001211148FDF78AF80A2C19D10F48FEF78B
:1048D0009DFE15E000210C48FDF780F80A48FDF721
:1048E0004CF904460A210848FDF7D2F9012106488F
:1048F000FDF774F80A2C03D104480A38FEF786FE47
:1049000000BF10BD00100140406402405E03002063
:1049100010B540F224411D4800F05CF8002834D066
:1049200000241A4800F010F91948FDF72AF9A8B92F
:1049300000211748FDF752F81548FDF71EF9044607
:1049400012211348FDF7A4F901211148FDF746F89B
:10495000122C19D10F48FDF79DF915E000210C48E4
:10496000FDF73CF80A48FDF708F90446122108480B
:10497000FDF78EF901210648FDF730F8122C03D11E
:1049800004481238FDF786F900BF10BD004800400A
:10499000286002409202002001F40072B2F5007F0C
:1049A00000D100BFCA430280704721B1828942F41E
:1049B0000052828104E082894DF6FF731A408281A1
:1049C00070471AB1838A0B43838202E0838A8B4348
:1049D0008382704770B50246002400230025002022
:1049E00040F66A16B14200D100BFC1F3421501F092
:1049F0001F03012606FA03F3012D02D196893340E5
:104A000006E0022D02D1168A334001E0968A334037
:104A10000C12012606FA04F41688344013B10CB1C6
:104A2000012000E0002070BDF0B503460024002600
:104A30000025002040F66A17B94200D100BF184691
:104A4000C1F3421401F01F06012707FA06F5012CF5
:104A500001D10C3004E0022C01D1103000E0143000
:104A60001AB107682F43076002E00768AF43076089
:104A7000F0BD00002DE9FF4705460E460024A14683
:104A800000BFA046B08900B100BF2C8A24F4405476
:104A9000F08804432C82AC8941F20C608443B088D6
:104AA00031890843718908430443AC81AC8A24F4FA
:104AB0004074B0890443AC826846FFF7F1F920489E
:104AC000854202D01F48854202D1DDF80C9001E0FA
:104AD000DDF80890A88900F4004040B109EBC90056
:104AE00000EB091031684900B0FBF1F707E009EB72
:104AF000C90000EB091031688900B0FBF1F76420B0
:104B0000B7FBF0F004012009642101FB1078A889AB
:104B100000F4004040B1322000EBC800B0FBF1F0DF
:104B200000F00700044308E0322000EB0810642185
:104B3000B0FBF1F000F00F0004432C81BDE8FF87CB
:104B4000001001400014014001468888C0F30800AD
:104B5000704700BFFEE703B401984100009850EA97
:104B6000C12018BF04204A0D18BF40F0010040F2D8
:104B7000FF72B2EB515F08BF40F00200012808BF8E
:104B8000052002B07047000070B5C1482DED020B42
:104B90002DED0E8B82B0119D25F000449FEDBEDB04
:104BA0009FEDBFEB84423EDBA4F140511098A1F190
:104BB0007F6108430FD0BC48844202DC28D11098A2
:104BC00030B39DED100B02B0BDEC0E8B02B0BDE812
:104BD000704000F0B8BC9DED100B53EC1D2B51EC58
:104BE000100B03F0C7FC9DED100B41EC180B53ECC0
:104BF0001E2B51EC100B03F0BDFC53EC182B03F0F3
:104C000035FA41EC100B02B0BDEC0E8B02B070BD5A
:104C10000120FBF7FAFB02B0BDEC0E8B02B0BDE841
:104C2000704000F0A5BCA1489FEDA18B844256DAEC
:104C30009DED100BB4F1795F0ADA51EC100BFFF720
:104C40008AFF042808BF00F0A3FC9DED100BDAE7F3
:104C500053EC102B51EC100B03F08CFC41EC190BB6
:104C600095480621B0EE490AF0EE690A784400F052
:104C7000EEFB53EC192B51EC100B03F07BFC41ECD9
:104C80001A0B8E48B0EE490AF0EE690A0421784406
:104C900000F0DDFB53EC192B51EC100B03F06AFC18
:104CA00053EC182B03F0E2F941EC100B51EC1A0B0A
:104CB00053EC102B03F08EFACDE900019DED000BB3
:104CC00053EC102B9DED100B51EC100B03F052FC2C
:104CD0009DED101B53EC112B03F0C8F9D2E09DEDB4
:104CE000100B51EC100B00F027FE53EC182B03F0C7
:104CF0003FFD9FED730BCDE9000153EC102B9DEDB3
:104D0000000B51EC100B03F035FC41EC190B6E4815
:104D10000621B0EE490AF0EE690A784400F097FBEC
:104D200053EC192B51EC100B03F024FC41EC1B0B42
:104D30006648B0EE490AF0EE690A0421784400F0B2
:104D400086FB53EC192B51EC100B03F013FC53ECC6
:104D5000182B03F08BF941EC1C0B51EC190B01F0F3
:104D60002BFD41EC180B5A489FED5BABA04222DCB7
:104D700053EC1C2B51EC1B0B03F02CFACDE900017A
:104D80009DED000B51EC180B53EC102B03F0F2FBD4
:104D900053EC182B03F06AF953EC1A2B03F0EAFBDF
:104DA00053EC1D2B03F0BCFD53EC1E2B03F0E0FC79
:104DB00041EC100B5FE08DED008B002000909DED2D
:104DC000000B51EC180B53EC102B03F04FF99DED39
:104DD000000B41EC1E0B53EC102B51EC100B03F0AD
:104DE000C9FB53EC192B03F0C3FC53EC1E2B03F04F
:104DF000F1F941EC190B53EC1C2B51EC1B0B03F09C
:104E0000E9F941EC1B0B53EC1A2B51EC190B03F095
:104E1000B1FB53EC1D2B03F0ABFC41EC190B53EC35
:104E20001A2B51EC180B03F0A5FB53EC1B2B03F0D2
:104E3000A1FB53EC192B03F073FD9DED000B41EC2E
:104E4000180B53EC1A2B51EC100B03F093FB9FED56
:104E5000249B53EC192B03F08BFC41EC100B51EC11
:104E6000180B53EC102B03F05BFD53EC192B03F0E4
:104E70007FFC41EC100B002D3FF7C5AE51EC100B41
:104E800003F0B6F841EC100BBDE600000000000096
:104E90000000F03F00000000075C143326A6913CA0
:104EA000182D4454FB21F93F0000F07F0000E03F43
:104EB000000000000000F03F803F00008E3F000037
:104EC000000000000000E03FD23E0000E03E000095
:104ED0003333EF3F000000000000000000000040FE
:104EE000182D4454FB21E93F70B59B482DED020B72
:104EF0002DED068B079D25F00044A04218DC974855
:104F0000844202DC0AD1069840B19DED060BBDEC4F
:104F1000068B02B0BDE8704000F015BB002DCCBF81
:104F20009FED8F0B9FED900BBDEC068B02B070BD1B
:104F30008F48A04215DD8F48A042D8BF4FF0FF3404
:104F400058DD9DED060B51EC100BFFF704FE042815
:104F500008BF00F01DFB9DED060BBDEC068B02B0FB
:104F600070BD9DED060B51EC100B00F0E5FCCDE99A
:104F7000060181489FED828BA0423CDD8248A04221
:104F80001FDD00249FED82AB9DED060B53EC1A2B29
:104F900051EC100B03F06AF89DED060B41EC190B78
:104FA00053EC1A2B51EC100B03F0E4FA53EC182BD2
:104FB00003F0B6FC53EC192B03F00CF9CDE9060114
:104FC00049E09DED060B012453EC182B51EC100B1E
:104FD00003F04CF89DED060B41EC190B53EC182B2C
:104FE00051EC100B03F09CFC53EC192B03F0F2F87E
:104FF000CDE906012FE06848A0421FDD02249FEDA5
:10500000689B9DED060B53EC192B51EC100B03F034
:10501000B1FA53EC182B03F029F89DED060B41EC87
:10502000180B53EC192B51EC100B03F079FC53ECDB
:10503000182B03F0CFF8CDE906010CE09DED060B2F
:10504000032453EC102B9FED580B51EC100B03F085
:10505000C1F8CDE906019DED060B53EC102B51EC88
:10506000100B03F087FA41EC180B53EC182B03F0EC
:1050700081FA41EC190B4E480621B0EE490AF0EED8
:10508000690A784400F0E3F953EC182B51EC100B4B
:1050900003F070FA41EC180B4648B0EE490AF0EE06
:1050A000690A0521784400F0D2F953EC192B51EC30
:1050B000100B03F05FFA41EC100B51EC180B53ECA2
:1050C000102B002C0EDA02F0D1FF9DED061B53ECE5
:1050D000112B03F04FFA9DED061B53EC112B03F03F
:1050E00047FB35E002F0C2FF9DED061B53EC112B90
:1050F00003F040FA41EC100B2F48784400EBC40059
:1051000090ED001B51EC100B53EC112B03F008FC3D
:105110009DED061B53EC112B03F002FC41EC100B30
:105120002648784400EBC40090ED001B51EC100BB6
:1051300053EC112B03F01CFB41EC100B002DA2BF14
:10514000BDEC068B02B070BD51EC100B02F050FFAD
:1051500041EC100B01E70000000010440000F07F5C
:10516000182D4454FB21F93F182D4454FB21F9BF5D
:105170000000DC3F0000203E0000F33F0000000084
:10518000000000000000F03F0000E63F00000000CB
:10519000000000000000004000800340000000000C
:1051A000000000000000F83F000000000000F0BF19
:1051B000223C0000D83B0000623B00001A3B00008C
:1051C00070B56F4E2DED040B2DED048B82B0DDF824
:1051D00024C0DDE907235C422CF000411C4341EA76
:1051E000D474069D22F00040B44205D86C422C4392
:1051F00040EAD474B4420BD99DED081B9DED060B1B
:1052000002B0BDEC048B04B0BDE8704000F0A5B95D
:10521000ACF14054A4F17F641C430BD0022404EA97
:10522000AC7444EAD27405439FED578B9FED582B25
:1052300007D015E09DED060B51EC100B00F0B8F90E
:1052400042E0002C11BF012C9DED060B02B0BDEC1D
:10525000048B04BF04B070BD022C38D0032C3BD0AB
:105260000B439FED4D1B9FED4E0B0AD0B14218D161
:10527000B04209D121F0804120F08040099107908F
:105280000FE0002A15DA10E0474B7B44002C08BFE2
:1052900093ED000B0DD0012C10D0022C17D0032C55
:1052A0001AD0B0421DD1002A03DAB0EE410AF0EE66
:1052B000610A02B0BDEC048B04B070BD93ED000B2D
:1052C00051EC100B02F094FE41EC100BF1E7B0EE44
:1052D000480AF0EE680AECE7B0EE420AF0EE620A25
:1052E000E7E7401A00159FED329B3C28C8BF8DEDC3
:1052F000000B17DCBCF1000FBCBF10F13C0F8DEDB3
:10530000009B0FDB9DED080B53EC102B9DED060B66
:1053100051EC100B02F05EFF00F00EFB00F048F9BC
:10532000CDE90001B4B1012C10D0022C9FED220B6D
:1053300053EC102B9DED000B51EC100B19D003F02A
:10534000EFFA53EC182B03F0EBFABDE7019880F06D
:10535000004001909DED000B53EC192B51EC100B0C
:1053600003F090F804BF0220FBF74FF89DED000B0F
:105370009FE703F0D5FA53EC182B03F0F9F9A3E7F4
:105380000000F07F00000000182D4454FB2109406C
:10539000182D4454FB2109C0182D4454FB21F9BF9A
:1053A000182D4454FB21F93F4A3A00000000000048
:1053B0000000000000000000075C143326A6A13C9A
:1053C0002DED020B019820F0004001909DED000BA7
:1053D00002B0704700B52DED048BB0EE409AF0EEB0
:1053E000609A83B051EC190B03F0CEF941EC180B25
:1053F00018EE100A18EE901A8DED008B002818BFD9
:105400000120084320F00040C0F17F6000F1E0403F
:10541000C00F14D019EE101A19EE900A8DED009BF2
:10542000002918BF0121084320F00040C0F17F602F
:1054300000F1E040C00F04BF0120FAF7E6FFB0EE34
:10544000480A03B0F0EE680ABDEC048B00BD70B5ED
:1054500004462DED028B4D1E00EBC500B0EE408AD8
:10546000F0EE608A90ED000B35F0060017D053EC9B
:10547000182B51EC100B03F07DF841EC100B6D1E56
:1054800004EBC50090ED001B51EC100B53EC112BFD
:1054900002F0ECFD41EC100B35F00600E7D1022DD7
:1054A00036D0042D1CD0062D1CBFBDEC028B70BD68
:1054B00053EC182B51EC100B03F05CF894ED0A1B25
:1054C00053EC112B02F0D2FD53EC182B03F052F8E1
:1054D00094ED081B53EC112B02F0C8FD41EC100BAE
:1054E00053EC182B51EC100B03F044F894ED061B11
:1054F00053EC112B02F0BAFD53EC182B03F03AF8E1
:1055000094ED040B53EC102B02F0B0FD41EC100BAA
:1055100053EC182B51EC100B03F02CF894ED021BFC
:1055200053EC112B02F0A2FD53EC182B03F022F8E0
:1055300094ED001B53EC112B02F098FDBDEC028B97
:1055400041EC100B70BD10B553EC102B51EC100B4F
:1055500002F08CFD41EC100B10BD10B553EC112B7B
:1055600051EC100B02F082FD41EC100B10BD00005D
:105570009FED050B10B553EC102B51EC100B02F006
:1055800029FE41EC100B10BD0000000000000000DF
:105590009FED050B10B553EC102B51EC100B02F0E6
:1055A000E9FF41EC100B10BD0000000000000010EE
:1055B00010B541EC100BFFF797FC51EC100B10BD30
:1055C00008B5024600911DF8020008BD70B500251F
:1055D0000024FAF7EBFF8020FBF754FA5520FBF785
:1055E00051FA5520FBF74EFA0546FAF7D7FF9620F9
:1055F00000F072F9FAF7DAFF8020FBF743FA552042
:10560000FBF740FA5520FBF73DFA0546FAF7C6FFCF
:10561000962000F061F9FAF7C9FFB6217E20FBF76A
:105620004DFAFAF7BBFF502000F034F9FAF7BEFF4D
:105630008020FBF727FA5520FBF724FA5520FBF7CB
:1056400021FA0546FAF7AAFF962000F045F9FAF785
:10565000ADFF8020FBF716FA5520FBF713FA552013
:10566000FBF710FA0546FAF799FF962000F034F997
:105670001E2D01D0FF2070BD002434E0FAF796FF04
:1056800004EB44021A4B1A44517804EB4402985C30
:10569000FBF714FAFAF782FF962000F01DF9FAF7EB
:1056A00085FF04EB4401124A515C41F08000FBF796
:1056B000E9F95520FBF7E6F95520FBF7E3F9054634
:1056C000FAF76CFF962000F007F904EB4400084954
:1056D00008444078A84204D004EB44000844807891
:1056E000C9E7601CC4B2062CC8DB0020C3E7000079
:1056F0001C00002038B5002400200090FAF766FF57
:1057000069460020FBF7B2F9FAF758FF962000F03F
:10571000E3F8FAF75BFF69460020FBF7A7F9FAF711
:105720004DFF962000F0D8F8FAF750FFB62114206C
:10573000FBF7C4F9FAF742FF502000F0ABF8FAF794
:1057400045FF69460020FBF791F9FAF737FF9620ED
:1057500000F0C2F8FAF73AFF69460020FBF786F935
:10576000FAF72CFF962000F0B7F89DF800000F28FC
:1057700001D0FF2038BD00242FE0FAF727FF04EB0B
:105780004402184B1A44517804EB4402985CFBF72E
:1057900095F9FAF713FF962000F09EF8FAF716FF36
:1057A00004EB44010F4A505C6946FBF75FF9FAF7D6
:1057B00005FF962000F090F804EB440009490844E6
:1057C00040789DF80010884205D004EB440005495C
:1057D00008448078CEE7601CC4B2062CCDDB0020E4
:1057E000C8E700002E00002008B513E04FF0FF309E
:1057F00000230122114600900748006801F0C4FC14
:10580000044604F0010028B1FBF70CFBFBF76EFB2C
:10581000FBF79CFCEAE700005C0100201CB5064891
:10582000072100234FF48062CDE9001003A107484F
:1058300002F0FCF81CBD00006001002063616E5F97
:1058400073656E645F7461736B000000E957000854
:1058500070B504460420FEF72FFE0C480470254660
:105860004FF47A7045430120094908804FF0E02049
:10587000006940F002004FF0E021086108464561F0
:10588000006940F00100086170BD0000D0000020F8
:10589000D200002070B5044602F0F8F8012811D0BB
:1058A0000C480088844206DB0A48008894FBF0F527
:1058B000284601F063F90748008894FBF0F100FBEB
:1058C000114084B24FF47A7104FB01F000F004F847
:1058D00070BD0000D200002070B5034600224FF0DA
:1058E000E02675690D4E367803FB06F44FF0E0268E
:1058F000B16910E04FF0E026B06988420BD08842D1
:1059000002D20E1A324402E02E1A0E4432440146EC
:10591000A24200D300E0EDE700BF70BDD000002040
:1059200030B50446002504E04FF47A70FFF7D4FF49
:105930006D1CA542F8D330BD82B0CDE9000121F045
:10594000004001909DED000B02B051EC100B704730
:1059500008B500BF02F0AAF8009025E013480078CF
:1059600060B1012804D0022805D003280CD108E03A
:10597000FCF7C0FE09E0FCF7CDFD06E0FDF720F9DD
:1059800003E0FDF77DF800E000BF00BF01210848FB
:10599000006801F092FB10210548006801F08DFBC2
:1059A0000221684601F018F9D8E7000068010020DC
:1059B0005C0100201CB50648052100234FF48062DD
:1059C000CDE9001003A1064802F030F81CBD00002C
:1059D0006401002067696D62616C5F7461736B00C4
:1059E0005159000808B500BF02F060F8009009E0C6
:1059F000FAF7F4FDFDF7F0F8FDF7A6FC0121684683
:105A000001F0EAF8F4E700001CB50648062100237F
:105A10004FF48062CDE9001003A1064802F006F8B9
:105A20001CBD000088010020696D755F7461736B97
:105A300000000000E5590008B6EE001A20EE011A39
:105A4000F0EE410A10EE100A0749A1EB600000EEEB
:105A5000100A60EE801AB7EE081A01EEC01A21EEA5
:105A6000001AB0EE410A7047DF59375F00242BE07F
:105A7000641C00BF4FF400611448FCF78DFB204606
:105A800004EBD0714910A4EB410121B94FF48051CE
:105A90000E48FCF781FB012C05D164214FF47A708C
:105AA000FBF730F80CE0022C05D164214FF4FA70BA
:105AB000FBF728F804E0002142F21070FBF722F80F
:105AC0004FF4FA7001F05AF8D2E70000001C0240CF
:105AD0001CB50548022100238022CDE9001003A156
