:020000040800F2
:10000000383B01202103000831360008FD2B000891
:100010002D360008350C0008B74B00080000000022
:10002000000000000000000000000000690200085D
:10003000E71E000800000000BD020008454500085A
:100040003B0300083B0300083B0300083B03000898
:100050003B0300083B0300083B0300083B03000888
:100060003B0300083B0300083B0300083B03000878
:100070003B0300083B0300083B0300083B03000868
:100080003B0300083B0300083B030008C90E0008BF
:10009000610D00083B0300083B030008E91E00084F
:1000A0003B0300083B0300083B0300083B03000838
:1000B0003B0300083B0300083B0300083B03000828
:1000C0003B0300083B0300083B0300083B03000818
:1000D0003B030008ED4800083B0300087549000891
:1000E0003B0300083B0300083B0300083B030008F8
:1000F0003B0300083B0300083B0300083B030008E8
:100100003B0300083B0300083B0300083B030008D7
:100110003B0300083B030008BD4500083B03000803
:100120003B0300083B0300083B0300083B030008B7
:100130003B0300083B0300083B030008F9110008DB
:10014000A51000083B0300083B0300083B03000820
:100150003B0300083B030008A91900083B03000803
:100160003B0300083B0300083B0300083B03000877
:100170003B0300083B0300083B0300083B03000867
:100180003B0300083B03000800F002F800F05CF8B5
:100190000AA090E8000C82448344AAF10107DA45E2
:1001A00001D100F051F8AFF2090EBAE80F0013F0D8
:1001B000010F18BFFB1A43F0010318478C8B000096
:1001C000AC8B00000A444FF0000C10F8013B13F018
:1001D000070408BF10F8014B1D1108BF10F8015BA0
:1001E000641E05D010F8016B641E01F8016BF9D193
:1001F00013F0080F1EBF10F8014BAD1C0C1B09D1EA
:100200006D1E58BF01F801CBFAD505E014F8016B5B
:1002100001F8016B6D1EF9D59142D6D370470000ED
:100220000023002400250026103A28BF78C1FBD8FF
:10023000520728BF30C148BF0B6070471FB508F098
:10024000FEFC1FBD10B510BD00F06AF91146FFF7A6
:10025000F5FF05F087FC00F088F903B4FFF7F2FF23
:1002600003BC00F08BF900002A4B19680868B0E85D
:10027000F04F80F30988BFF36F8F4FF0000080F3D9
:10028000118870470000000006480068006880F38D
:10029000088862B661B6BFF34F8FBFF36F8F00DF80
:1002A00000BF00BF08ED00E0DFF80C00016841F47A
:1002B00070010160704700BF88ED00E0EFF3098036
:1002C000BFF36F8F134B1A681EF0100F08BF20ED9D
:1002D000108A20E9F04F106008B44FF0500080F30E
:1002E0001188BFF34F8FBFF36F8F06F0C7FE4FF03B
:1002F000000080F3118808BC19680868B0E8F04F66
:100300001EF0100F08BFB0EC108A80F30988BFF30D
:100310006F8F7047E8000020EFF305807047000002
:100320000948804709480047FEE7FEE7FEE7FEE789
:10033000FEE7FEE7FEE7FEE7FEE7FEE704480549C5
:10034000054A064B70470000554500088901000822
:1003500038350120383B012038370120383701205B
:10036000032A40F2308010F0030C00F0158011F8E1
:10037000013BBCF1020F624498BF11F801CB00F8B9
:10038000013B38BF11F8013BA2F1040298BF00F80D
:1003900001CB38BF00F8013B11F0030300F03B80B4
:1003A000083AC0F0088051F8043B083A51F804CBF1
:1003B000A0E80810F5E7121D5CBF51F8043B40F8B7
:1003C000043BAFF30080D20724BF11F8013B11F8C2
:1003D00001CB48BF11F8012B24BF00F8013B00F806
:1003E00001CB48BF00F8012B704702F0FF0343EA3E
:1003F000032242EA024200F042B870477047704759
:1004000010B500F05DF8006810BD10B5044600F0AE
:1004100057F8046010BD10B5203AC0F00B80B1E869
:100420001850203AA0E81850B1E81850A0E8185029
:10043000BFF4F5AF5FEA027C24BFB1E81850A0E832
:10044000185044BF18C918C0BDE810405FEA827C4C
:1004500024BF51F8043B40F8043B08BF7047D20763
:1004600028BF31F8023B48BF11F8012B28BF20F804
:10047000023B48BF00F8012B70474FF000020429EF
:10048000C0F0128010F0030C00F02080CCF1040CBE
:10049000BCF1020F18BF00F8012BA8BF20F8022BF7
:1004A000A1EB0C0100F012B85FEAC17C24BF00F898
:1004B000012B00F8012B48BF00F8012B704700000A
:1004C00000487047D83401204FF0000200B51346B1
:1004D00094469646203922BFA0E80C50A0E80C5064
:1004E000B1F12001BFF4F7AF090728BFA0E80C5015
:1004F00048BF0CC05DF804EB890028BF40F8042B0E
:1005000008BF704748BF20F8022B11F0804F18BF7A
:1005100000F8012B7047000000487047D8340120D4
:100520007546FFF7F9FFAE4605006946534620F0D1
:100530000700854618B020B5FFF700FFBDE8204052
:100540004FF000064FF000074FF000084FF0000B8F
:1005500021F00701AC46ACE8C009ACE8C009ACE842
:10056000C009ACE8C0098D46704710B50446AFF32A
:1005700000802046BDE81040FFF76FBE01491820FB
:10058000ABBEFEE726000200704702468A4202DA4E
:1005900002F5005070471046FCE7000010B510212E
:1005A000014801F00FFE10BD0000024010B51021FF
:1005B000014801F005FE10BD0000024010B5012108
:1005C000014801F0FFFD10BD0004024010B50121FB
:1005D000014801F0F5FD10BD000402401CB50020EB
:1005E00000900190FFF7E2FF922000F04BFA062204
:1005F0006946122000F027FAFFF7D0FF9DF80100AE
:10060000000200B29DF8001040EA01045D48048039
:100610009DF80300000200B29DF8021040EA0104B8
:10062000584844809DF80500000200B29DF804106F
:1006300040EA010453488480FFF7C8FF0822694656
:10064000002000F000FAFFF7B9FF9DF800000F2826
:1006500029D19DF80300000200B29DF8021040EA83
:1006600001044848408B201A00B24649C8819DF8D1
:100670000500000200B29DF8041040EA0104414860
:10068000808B201A00B23F4908829DF807000002C3
:1006900000B29DF8061040EA01043A48C08B201AC7
:1006A00000B238494882FFF781FFA22000F0EAF942
:1006B00002226946222000F0C6F9FFF76FFF9DF87D
:1006C0000000C0009DF8011040EA6114B4F5806F8D
:1006D00002DBA4F5006004B22A4884810146B1F926
:1006E0001200002801DB014600E04142142902DA31
:1006F000002024494882244822490A6802604A6846
:100700004260896881601F48B0F90C0000EE100A51
:10071000F8EEC00AB4EE001AB3EE070A00EE810A42
:10072000194880ED030A1748B0F90E0000EE100AD0
:10073000B8EEC00A1548D0ED000A20EE200A124893
:1007400080ED040A0F48B0F9100000EE100AB8EE70
:10075000C00A0E48D0ED000A20EE200A0A4880EDBB
:10076000050A0848B0F9120000EE100AB8EEC00AF7
:100770000648D0ED000A20EE200A034880ED060A64
:100780001CBD0000020300202403002018000020EC
:100790001CB5002000900190002460E0FFF706FFE8
:1007A000922000F06FF906226946122000F04BF902
:1007B000FFF7F4FEFFF70AFF08226946002000F069
:1007C00042F9FFF7FBFE9DF801009DF8001041EA99
:1007D00000204349898A084400B2414988829DF833
:1007E00003009DF8021041EA00203D49C98A0844EF
:1007F00000B23B49C8829DF805009DF8041041EA0B
:1008000000203749098B084400B2354908839DF818
:1008100003009DF8021041EA00203149498B084449
:1008200000B22F4948839DF805009DF8041041EA65
:1008300000202B49898B084400B2294988839DF800
:1008400007009DF8061041EA00202549C98B08449D
:1008500000B22349C883052005F096F8641CB4F55E
:10086000967F9BDB1E48B0F914004FF4967190FB05
:10087000F1F000B21A4988820846B0F916004FF428
:10088000967190FBF1F000B21549C8820846B0F9A4
:1008900018004FF4967190FBF1F000B210490883F4
:1008A0000846B0F91A004FF4967190FBF1F000B2CF
:1008B0000B4948830846B0F91C004FF4967190FB31
:1008C000F1F000B2064988830846B0F91E004FF4E3
:1008D000967190FBF1F000B20149C8831CBD000085
:1008E0000203002000B587B00121084603F0BAFAE0
:1008F0000121022003F0B6FA0121080303F0E2FA15
:100900008020059002208DF8180000208DF81A0034
:100910008DF81B0003208DF8190005A93E4801F051
:10092000E4FB1820059002208DF8180000208DF8B7
:100930001A008DF81B0003208DF8190005A937480F
:1009400001F0D3FB1020059001208DF81800002045
:100950008DF81A0001208DF81B0003208DF8190076
:1009600005A92D4801F0C1FB10212B4801F02AFCFC
:10097000012005908DF8180000208DF81A00012044
:100980008DF81B0003208DF8190005A9234801F0FC
:10099000ACFB0121214801F015FC052207211E486E
:1009A00001F0EBFB052203211C4801F0E6FB0522C8
:1009B00004211A4801F0E1FB0121080303F092FA37
:1009C00000214FF4805003F08DFA0020ADF80000B4
:1009D0004FF48270ADF802003820ADF80C00002012
:1009E000ADF804004FF40070ADF80A000220ADF835
:1009F00006000120ADF808000020ADF80E000A2026
:100A0000ADF810006946064803F00AFB01210448CE
:100A100003F0ECFA07B000BD000002400004024001
:100A20000030014010B50024FFF75CFF04F002FE27
:100A3000044304F093FE04430A2004F05FFFFFF731
:100A4000A7FE204610BD70B506460C46154646F07A
:100A5000800000F017F806E0552000F013F8207031
:100A6000641C681EC5B2002DF6D170BD70B5044679
:100A70000D4644F0800000F005F8552000F002F823
:100A8000287070BD10B5044600BF02210A4803F06B
:100A9000B9FA0028F9D02146074803F0BFFA00BF91
:100AA0000121054803F0AEFA0028F9D0024803F00E
:100AB000B2FAC0B210BD00000030014070B505466A
:100AC0000C462846FFF7DEFF2046FFF7DBFF70BD30
:100AD00010B502F06DFD02F089FD01F055F900F04E
:100AE000ABF8FFF79FFF4FF47A7003F0A3FD00F01F
:100AF00011F800F0F7FE02F0F5FD01F0D3FE03F06F
:100B0000D3FB10BD024A1060014A103211607047D9
:100B10002C08004000B58BB00121042003F0B2F98D
:100B20000121082003F09EF902220E211F4801F046
:100B300024FB4FF48040099002208DF8280000200B
:100B40008DF82A0003208DF8290009A9174801F023
:100B5000CCFA5320ADF818000020ADF81A0040F28E
:100B6000572007900020ADF8200006A9104803F098
:100B700077FE002003906020ADF804000120ADF85E
:100B800006000020ADF8100001A9094803F00CFE92
:100B90000821074803F058FE0121054803F078FDBD
:100BA0000121034803F083FD0BB000BD000C02409F
:100BB000000800401A48B0F9040042F2107188425F
:100BC00004DD18480068401C164908601648006893
:100BD000E8B115480068401C1349086008460068E1
:100BE0001E2804DD002008600E49086016E00C484D
:100BF000B0F9040010F57A6F03DD0C480C49086069
:100C00000CE00020084908600649086006E0054835
:100C100000680A2802D101200349086070470000DB
:100C200050020020C8010020CC01002030F8FFFF56
:100C3000C401002000BFFEE710B500F003F800F08B
:100C40009DF910BD00B58BB00121082003F00AF911
:100C50000121480603F016F9092200213E4801F05F
:100C60008CFA092201213C4801F087FA03200990FF
:100C700002208DF8280003208DF8290000208DF82F
:100C80002A0009A9344801F030FA14208DF8200018
:100C900002208DF8210000208DF8220001208DF81F
:100CA000230008A802F040FF13208DF82000022046
:100CB0008DF8210000208DF8220001208DF82300FE
:100CC00008A802F031FF254800F024FB05A800F039
:100CD0005CFD0320ADF8140000208DF816008DF89F
:100CE000170008208DF8180003208DF81900002047
:100CF0008DF81A008DF81B008DF81C008DF81D0072
:100D00008DF81E0001208DF81F0005A9134800F082
:100D10003AFC0020ADF80400ADF80600ADF808007C
:100D2000ADF80A00ADF80C008DF80E008DF80F003C
:100D300001208DF810008DF8110001A800F006FBCD
:100D400001220221054800F015FC0122114603484A
:100D500000F010FC0BB000BD000C0240006400402D
:100D600000B585B00221294800F074FB00284AD064
:100D70006A460021254800F090FC9DF808000028F4
:100D80003DD19DF80900002839D19DF80A000828B6
:100D900035D132201E4908600098A0F201200828B1
:100DA0002BD2DFE800F0042A090E14191F2469462B
:100DB000184800F087FA21E06946174800F082FAE7
:100DC0001CE069461448103000F07CFA16E06946D1
:100DD000124800F077FA11E069461048103000F030
:100DE00071FA0BE069460E4800F06CFA06E06946BD
:100DF0000B48103000F066FA00E000BF00BF02218F
:100E0000024800F00BFA05B000BD0000006400408D
:100E100040000020D00100203002002010020020FD
:100E20005002002000B585B000208DF808008DF834
:100E3000090008208DF80A0040F2FF1000901D48BC
:100E40008089000A8DF80B001A48017B8DF80C1080
:100E5000808B010A8DF80D101648017F8DF80E1059
:100E600015488089010A8DF80F101348017B8DF811
:100E70001010808B010A8DF811100F48017F8DF83A
:100E8000121000200D4908700D480068002803DD8D
:100E900069460C4800F089FC04E009480068002815
:100EA00000DC03E0054800780028F6D000BF05B05C
:100EB00000BD000010020020500200204800002069
:100EC000400000200064004010B50121054800F0FA
:100ED000C1FA30B10120044908700121014800F035
:100EE0009DF910BD006400404800002000B585B0A9
:100EF00000208DF808008DF8090008208DF80A0000
:100F00008001009000208DF80B0000218DF80C105E
:100F10008DF80D108DF80E1014488089010A8DF897
:100F20000F101248017B8DF81010808B010A8DF88C
:100F300011100E48017F8DF8121000200C49087026
:100F40000C480068002803DD69460B4800F02DFCC2
:100F500004E008480068002800DC03E0044800784A
:100F60000028F6D000BF05B000BD00003002002010
:100F700048000020400000200064004000B58BB015
:100F80000121022002F06EFF0121480602F07AFFE3
:100F90000121880602F076FF092205213F4801F071
:100FA000ECF8092206213D4801F0E7F8602009909D
:100FB00002208DF8280003208DF8290000208DF8EC
:100FC0002A0009A9354801F090F840208DF820004A
:100FD00002208DF8210000208DF8220001208DF8DC
:100FE000230008A802F0A0FD3F208DF82000022079
:100FF0008DF8210000208DF8220001208DF82300BB
:1010000008A802F091FD264800F084F905A800F038
:10101000BCFB0320ADF8140000208DF816008DF8FD
:10102000170008208DF8180003208DF81900002003
:101030008DF81A008DF81B008DF81C008DF81D002E
:101040008DF81E0001208DF81F0005A9144800F03E
:101050009AFA0020ADF80400ADF80600ADF80800DB
:10106000ADF80A00ADF80C000E208DF80E0000203F
:101070008DF80F0001208DF810008DF8110001A8E7
:1010800000F064F901220221054800F073FA012200
:101090001146034800F06EFA0BB000BD0004024098
:1010A0000068004010B502212D4800F0D3F9002857
:1010B00055D02C4A00212A4800F0EFFA2948007A3E
:1010C000002848D12748407A002844D12548807A12
:1010D000082840D132202449086022480068B0F531
:1010E000817F03D0A0F2031090BB22E064201F494F
:1010F00008601C48007B1B49C97A40EA012000B205
:101100001B4988801748817B407B41EA002000B260
:101110001749C8801348017CC07B41EA002000B217
:10112000134908810F48407C88720E48807CC87241
:1011300010E00C48007B0B49C97A40EA012000B25C
:1011400000EE100AB8EEC00A0A4880ED000A01E07D
:10115000FFE700BF00BF0221014800F05FF810BDAB
:101160000068004070020020440000204C00002075
:10117000A8020020C400002000B585B000208DF832
:1011800008008DF8090008208DF80A0040F20110CF
:101190000090154800788DF80B0000218DF80C1098
:1011A0008DF80D108DF80E108DF80F108DF81010B1
:1011B0008DF811108DF8121000200C4908700C48A1
:1011C0000068002803DD69460A4800F0EEFA04E0F2
:1011D00007480068002800DC03E004480078002885
:1011E000F6D000BF05B000BD8403002049000020F8
:1011F000440000200068004010B50121054800F0BF
:1012000029F930B10120044908700121014800F09A
:1012100005F810BD0068004049000020B1F5007FCE
:101220003AD00FDC202928D006DC01291CD0042963
:101230001DD0082940D11DE0402921D0B1F5807F83
:101240003AD126E0B1F5004F31D006DCB1F5806F20
:1012500025D0B1F5006F2FD124E0B1F5803F12D039
:10126000B1F5003F28D111E0154A826025E008223F
:10127000C26022E01022C2601FE0082202611CE06E
:101280001022026119E00822426016E0102242603A
:1012900013E00422426010E0042242600DE00422C8
:1012A00042600AE0002282610422426005E00022DE
:1012B00082610422426000E000BF00BF704700006E
:1012C000010101000A7BCB7A42EA032212B2428179
:1012D0008B7B4A7B43EA022212B202800B7CCA7BE0
:1012E00043EA022212B282804A7CC280028972B131
:1012F000B0F90A20B0F908309A4205DA428902F5BD
:10130000005212B2428004E04289428001E04289E8
:101310004280704710B504460B48844209D1012130
:10132000480602F0BFFD00214FF0007002F0BAFD48
:1013300008E00121880602F0B5FD00214FF0806031
:1013400002F0B0FD10BD00000064004010B50021A7
:10135000837A012202FA03F13D4A126842F0010247
:101360003B4B1A603A4A1C3212688A43384B1C3392
:101370001A60027BCAB9364A0C3212688A43344B6F
:101380000C331A604288C38842EA0343304A403231
:10139000847A42F834300288838842EA03432C4A34
:1013A0004032847A02EBC4025360027B012A19D1D5
:1013B000274A0C3212680A43254B0C331A604288C4
:1013C000038842EA0343224A4032847A42F83430A6
:1013D000C288838842EA03431D4A4032847A02EB82
:1013E000C4025360C27A3AB9194A121D12688A437C
:1013F000174B1B1D1A6006E0154A121D12680A439E
:10140000134B1B1D1A60028932B9114A143212683B
:101410008A430F4B14331A600289012A06D10C4A01
:10142000143212680A430A4B14331A60427B012AB1
:1014300006D1074A1C3212680A43054B1C331A6056
:10144000034A126822F00102014B1A6010BD00002D
:101450000066004070B504460D46002660692840CD
:10146000002871D0B5F5807F5CD010DC082D35D018
:1014700006DC012D20D0022D24D0042D72D127E0CE
:10148000102D31D0202D35D0402D6BD138E0B5F561
:10149000004F60D009DCB5F5007F49D0B5F5806F0D
:1014A0004CD0B5F5006F5DD14FE0B5F5803F2DD044
:1014B000B5F5003F56D12FE0A0682D4900F008FA9D
:1014C000064651E0E068032100F002FA06464BE0D0
:1014D000E068082100F0FCF9064645E0E0681021CC
:1014E00000F0F6F906463FE02069032100F0F0F92C
:1014F000064639E02069082100F0EAF9064633E0A3
:101500002069102100F0E4F906462DE0606808210A
:1015100000F0DEF9064627E06068102100F0D8F9F7
:10152000064621E0A069012100F0D2F906461BE041
:10153000A069022100F0CCF9064615E0A06904215B
:1015400000F0C6F906460FE00FE0A069702100F038
:10155000BFF9064608E06068042100F0B9F90646C4
:1015600002E0FFE7002600BF00E00026304670BD25
:10157000010101001AB143690B43436102E0436971
:101580008B434361704730B5024600200023146846
:1015900024F002041460146844F00104146000E0B4
:1015A0005B1C546804F001041CB94FF6FF74A3429D
:1015B000F6D1546804F001040CB900206CE08C7979
:1015C000012C04D1146844F08004146003E0146812
:1015D00024F080041460CC79012C04D1146844F008
:1015E0004004146003E0146824F0400414600C7A92
:1015F000012C04D1146844F02004146003E0146842
:1016000024F0200414604C7A012C04D1146844F0B6
:101610001004146003E0146824F0100414608C7A41
:10162000012C04D1146844F00804146003E0146829
:1016300024F008041460CC7A012C04D1146844F01E
:101640000404146003E0146824F0040414608C782B
:10165000A407CD7844EA05640D7944EA05444D7940
:1016600044EA05540D886D1E2C43D461146824F09F
:1016700001041460002300E05B1C546804F00104C2
:101680001CB14FF6FF74A342F6D1546804F0010474
:101690000CB1002000E0012030BD10B500F5D8737A
:1016A00003EB01131B6803F004031372137A53B99D
:1016B00000F5D87303EB01131B6840F2FF7404EAD2
:1016C0005353136009E000F5D87303EB01131B6853
:1016D0006FF0604404EAD303536000F5D87303EB62
:1016E00001131B6803F00203537200F5D87303EB78
:1016F00001135B6803F00F03937200F5D87303EBDB
:1017000001135B681B0AD37400F5D87303EB011354
:101710009B68D37200F5D87303EB01139B681C0A16
:10172000147300F5D87303EB01139B681C0C5473FE
:1017300000F5D87303EB01139B681B0E937300F540
:10174000D87303EB0113DB68D37300F5D87303EB95
:101750000113DB681C0A147400F5D87303EB011342
:10176000DB681C0C547400F5D87303EB0113DB68C1
:101770001B0E937421B9C36843F02003C36003E0D8
:10178000036943F02003036110BD00218171C17121
:10179000017241728172C1728170C1700321017145
:1017A0000221417101210180704710B502460020DD
:1017B000936803F08063B3F1806F00D110E0936809
:1017C00003F00063B3F1006F01D1012008E09368DA
:1017D00003F08053B3F1805F01D1022000E00420C8
:1017E000042874D002F5C07303EB00131B6803F0E8
:1017F000010402F5C07303EB00131C600B7A7BB984
:101800004B7A0C8843EA445302F5C07404EB00148D
:101810002468234302F5C07404EB0014236010E035
:101820000B7A4C6843EAC4034C7A234302F5C07434
:1018300004EB00142468234302F5C07404EB001485
:1018400023608B7A03F00F038B7202F5C07303EBF6
:1018500000135B6823F00F0402F5C07303EB001361
:101860005C6002F5C07303EB00135B688C7A234362
:1018700002F5C07404EB001463608B7B1C064B7B89
:1018800044EA03440B7B44EA0323CC7A234302F566
:10189000C07404EB0014A3608B7C1C064B7C44EAF0
:1018A00003440B7C44EA0323CC7B234302F5C0743E
:1018B00004EB0014E36002F5C07303EB00131B6834
:1018C00043F0010402F5C07303EB00131C6010BD6C
:1018D0000246002002EA01030BB1012000E00020D3
:1018E0007047000010B500F009F840F634010248D6
:1018F00002F0B3FF10BD00000000014000B58BB046
:101900000121084602F0DEFA0121102002F0AAFAB5
:1019100001220921224800F030FC4FF400700990A8
:1019200002208DF8280000208DF82A0003208DF871
:10193000290009A91A4800F0D8FBA720ADF8180023
:101940000020ADF81A0044F61F6007900020ADF8A3
:10195000200006A9134802F083FF4FF4FA600390B9
:101960006020ADF804000120ADF806000020ADF8BD
:10197000100001A90B4802F0CFFE0821094802F02F
:1019800009FF0121074802F083FE0121054802F00A
:101990009AFE0121034802F08AFE0BB000BD000050
:1019A000001002400000014010B50949094800F04C
:1019B0000BF9012807D10021064800F027F817216C
:1019C000044800F07DF90249024800F005F810BD16
:1019D00000800028B86402400246094B9A4201D2B6
:1019E000084801E00648103801F000531BB1064BCF
:1019F0000B40C36002E0044B0B4083607047000063
:101A000010640240006002407D0F7D0F21B102682A
:101A100042F00102026003E0026822F0010202606B
:101A200070470000016821F00101016000210160A0
:101A300041608160C1600161212141614A49884260
:101A400004D13D21484A103A91608CE04649183152
:101A5000884205D14FF47461434A103A916082E0A4
:101A600041493031884205D14FF474113E4A103A51
:101A7000916078E03C494831884205D14FF074616B
:101A8000394A103A91606EE037496031884204D19A
:101A90003649354A103AD16065E033497831884299
:101AA00004D13349304A103AD1605CE02E4990317C
:101AB000884204D12F492C4A103AD16053E02A4978
:101AC000A831884205D14FF03D51274A103AD160E4
:101AD00049E02949884204D13D21274A083A11604A
:101AE00041E025491831884205D14FF47461224AFA
:101AF000083A116037E020493031884205D14FF46F
:101B000074111D4A083A11602DE01B494831884282
:101B100005D14FF07461184A083A116023E0164964
:101B20006031884204D11149134A121F11601AE032
:101B300011497831884204D10D490F4A121F1160B2
:101B400011E00D499031884204D10A490A4A121F16
:101B5000116008E00849A831884204D14FF03D5196
:101B6000054A121F11607047106002403D000020BE
:101B7000400F002000003D201064024021B10268A7
:101B800042F48022026003E0026822F480220260B4
:101B9000704722B1036843F40023036003E0036845
:101BA00023F400230360016170470146486880B256
:101BB0007047014600200A6802F400220AB10120A1
:101BC00000E000207047000070B5024600200024AD
:101BD0000025124EB24201D2114B01E00F4B103BD7
:101BE000104E0E4036B11E2606EAD124166806EACB
:101BF000040502E0566906F0800501F000560EB1BA
:101C00005C6800E01C68084E344004EA010616B126
:101C10000DB1012000E0002070BD00001064024002
:101C2000006002403C0F3C0F7D0F7D0F10B501F0AE
:101C300080034BB122B1436943F08003436103E069
:101C4000436923F08003436180290BD02AB10368E4
:101C500001F01E042343036004E0036801F01E0446
:101C6000A343036010BD000010B500220268134BAF
:101C70001A40CC680B6823434C6923438C69234387
:101C8000CC6923430C6A23434C6A23438C6A234365
:101C90004C6B23438C6B23431A430260426922F04E
:101CA0000702D1E90B3423431A4342610B694360B5
:101CB0004B6883608B68C36010BD00003F801CF0E0
:101CC0004160704764212E4A11600178427841EAF0
:101CD0000221C1F30A01A1F580612A4A11804178ED
:101CE000C910827841EA4211C1F30A01A1F580616D
:101CF000244A518081788911C27841EA82010279AF
:101D000041EA8221C1F30A01A1F580611D4A918057
:101D100001794910427941EAC211C1F30A01A1F5E2
:101D20008061184AD180017C427C41EA0221C1F3E2
:101D30000A01A1F58061134A1181417909118908CD
:101D400091724179C1F30111D1728179C27941EA6D
:101D5000022109B20B4A9181017A427A41EA0221B9
:101D60000AB208494A83027B81F82820427B81F825
:101D70002920817BC27B41EA022202494A857047C1
:101D80004C000020A802002010B500F04DF800F033
:101D900099F800F001F810BD00B58FB00121480599
:101DA00002F060F81D48FFF73DFE4FF00060009024
:101DB0001B4801901B4802900020039012200490C1
:101DC000002005904FF48060069000200790089056
:101DD0004FF4807009904FF440300A9000200B902F
:101DE0000C900D900E9069460C48FFF73DFF0022C5
:101DF0000C4912310948FFF7CCFE01210748FFF7D3
:101E0000BDFE01210548FFF701FE012240210448E3
:101E1000001F02F008FE0FB000BD00002860024065
:101E2000044800408402002000B587B0012104204E
:101E300002F018F80121880402F024F807220B218F
:101E40001D4800F09AF94FF40060059002208DF8CB
:101E5000180003208DF8190000208DF81A000120C9
:101E60008DF81B0005A9144800F03FF913480190B4
:101E70000020ADF80800ADF80A004FF48060ADF81E
:101E80000C000020ADF810000420ADF80E0001A9F0
:101E90000B4802F021FE1021094802F0AFFD01229B
:101EA00040F22441064802F0F1FD0121044802F00D
:101EB000AEFD07B000BD000000080240A086010092
:101EC0000048004008B527208DF8000001208DF85B
:101ED000010000208DF8020001208DF80300684603
:101EE00001F022FE08BD704710B54FF4807000F07D
:101EF0000BF84FF4807000F001F810BD0149086044
:101F000070470000143C014001460020034A12685B
:101F10000A400AB1012000E000207047143C014053
:101F200001F58052B2F5005F04DBA1F5805212B2D8
:101F3000028103E001F5805212B202817047000075
:101F400030B10749096841F48061054A116005E034
:101F50000349096821F48061014A1160704700005B
:101F6000003C024070B504460A460026092502B925
:101F700009E0012A01D1160205E0022A01D1160268
:101F800001E04FF4407600F09FF80546092D28D176
:101F90001548006820F4407013490860084600683E
:101FA000304308600846006820F0F80008600846E2
:101FB000006844F0020108430B49086008460068C5
:101FC00040F48030086000F07FF80546064800685D
:101FD00020F00200044908600846006820F0F8007C
:101FE0000860284670BD0000103C024009201349DB
:101FF000096801F48031B1F5803F01D101201CE076
:102000000E49096801F0100109B1062015E00B49DD
:10201000096801F4807109B102200EE007490968DE
:1020200001F0EF0109B1072007E00449096801F058
:10203000020109B1082000E0092070470C3C024071
:102040000348006840F00040014908607047000004
:10205000103C024030B502460C46092500F034F829
:102060000546092D19D10E48006820F440700C492E
:1020700008600846006840F4007008600846006880
:1020800040F001000860146000F01EF805460448A6
:10209000006820F0010002490860284630BD0000B9
:1020A000103C02400548006800F0004028B1044898
:1020B00002490C390860034808607047103C024030
:1020C00023016745AB89EFCD08B509200090FFF7E4
:1020D0008DFF009002E0FFF789FF00909DF800005F
:1020E0000128F8D09DF8000008BDF0B50A4600218F
:1020F0000023002400BF3DE0012505FA01F3156827
:1021000005EA03049C4234D105684F000326BE4013
:10211000B543056015794E00B54006683543056046
:102120001579012D02D01579022D16D185684F0041
:102130000326BE40B543856055794E00B54086689C
:1021400035438560456801268E40B5434560456846
:1021500096798E40B6B235434560C5684F00032678
:10216000BE40B543C560D5794E00B540C66835431D
:10217000C560491C1029BFD3F0BDF0B50023002471
:102180004D07ED0E02FA05F3CE1000F1200555F8CB
:1021900026504E07F70E0F26BE40B543CF1000F174
:1021A000200646F82750CE1000F1200555F826509D
:1021B00045EA0304CE1000F1200545F82640F0BDA5
:1021C000418370470183704742694A4042617047CA
:1021D0002448C07A022827D12248B0F90800B0F577
:1021E000167F02DD0120204908601F480068012891
:1021F0001AD11C48B0F90800642815DA1948B0F95A
:102200000800002810DD1948007818B90120174986
:10221000087006E015480078012802D10020134913
:1022200008700020104908601148007802280DD17C
:102230001048C07C012809D10E48807C012802D1B9
:102240000A49087002E00020084908700A4800782E
:1022500030B940F26C7009494863002003490870A6
:1022600070470000A8020020A8010020BC01002047
:102270006C01002084030020B40100200000014014
:102280001648807A012807D11448C07A022803D161
:1022900001201349087019E01048807A032806D1FC
:1022A0000E48C07A022802D10D4908700EE00B4892
:1022B000807A032807D10948C07A032803D1022075
:1022C0000749087002E00320054908700348807A36
:1022D000022802D10020024908707047A80200209D
:1022E0006C0100201A48C07A022828D11848B0F999
:1022F000080010F5167F02DA01201649086015481B
:10230000006801281BD11248B0F9080010F1640FD1
:1023100015DD0F48B0F90800002810DA0E480078E3
:1023200018B901200C49087006E00B480078012814
:1023300002D10020084908700020064908600448BE
:10234000807A022802D100200349087070470000FB
:10235000A8020020A4010020B401002010B55848B4
:10236000807A02287DD15648C07A0228FAD1544892
:10237000B0F90400B0F5167F73DD5148B0F90600DE
:1023800010F5167F6DDA64214FF47A70FEF7BAFB10
:102390004FF4FA7003F0B2FA6421C800FEF7B2FB02
:1023A0004FF4FA7003F0AAFA00214FF44870FEF7D8
:1023B000A9FB64214FF47A70FEF7A4FB4FF4FA7086
:1023C00003F09CFA6421C800FEF79CFB4FF4FA70FE
:1023D00003F094FA00214FF44870FEF793FB04E0F9
:1023E0003848B0F90A00384908603548807A03282F
:1023F000F6D164214FF47A70FEF784FB4FF4FA7043
:1024000003F07CFA00214FF47A70FEF77BFB04E0C6
:102410002C48B0F91A002C4948602948807A0128D4
:10242000F6D164214FF47A70FEF76CFB4FF4FA702A
:1024300003F064FA00214FF47A70FEF763FB04E0C6
:102440002048B0F91A00204988601D48C07A032846
:10245000F6D164214FF47A70FEF754FB4FF4FA7012
:1024600000E02BE003F04AFA00214FF47A70FEF707
:1024700049FB04E01348B0F91A001349C86010483A
:10248000C07A0128F6D164214FF47A70FEF73AFB46
:102490004FF4FA7003F032FA6421C800FEF732FB01
:1024A0004FF4FA7003F02AFA00214FF44870FEF757
:1024B00029FB10220449054801F034FE10BD00003C
:1024C000A802002010020020E402002000F00F0803
:1024D00010B51C480021016041608160C16010227C
:1024E0000146194801F00AFE1648406848BB1548E5
:1024F000806830BB1348C06818BB1248006800BB36
:1025000064214FF47A70FEF7FDFA4FF4FA7003F08D
:10251000F5F96421C800FEF7F5FA4FF4FA7003F0FC
:10252000EDF964214FF47A70FEF7ECFA4FF4FA708B
:1025300003F0E4F900214FF44870FEF7E3FA00BF1E
:10254000FEE710BDE402002000F00F0810B56A4855
:102550000078E8B36948B0F9120000EE100AB8EE4E
:10256000C00A674880ED000A634890ED020A64489B
:10257000D0ED000A30EEC00A80ED000A90ED000AAE
:102580006048D0ED000AB4EEE00AF1EE10FA05DD85
:1025900090ED000A5A4880ED000A0FE0584890ED8F
:1025A000000A5948D0ED000AB4EEE00AF1EE10FA44
:1025B00004D290ED000A524880ED000A534890ED95
:1025C000000A534880ED000A4B4890ED010A00E0F4
:1025D00007E04F48D0ED000A30EEC00A80ED000A57
:1025E00031E0474890ED000A4A48D0ED000A30EE4D
:1025F000200A434880ED000A90ED000A4148D0EDE2
:10260000000AB4EEE00AF1EE10FA0ADC3C4890ED64
:10261000000A3D48D0ED000AB4EEE00AF1EE10FAEF
:1026200006D23C4890ED000AB1EE400A80ED000A67
:10263000374890ED000A3848D0ED000A30EE200A05
:10264000334880ED000A2D48B0F9120000EE900AE0
:10265000F8EEE00AB0EE600A2948D0ED000A2F48F3
:1026600001F0A8FA2D48503880ED1D0A90ED1D1A92
:10267000F0EE410A2A48B0F9100001EE100AB8EE57
:10268000C11ADFED281A21EE211AB0EE410A2648C0
:1026900001F090FABDEEC00A10EE100A01B2174820
:1026A00081831B48D0ED000A184890ED000A1B48B2
:1026B000503801F07FFA1948503880ED090A90ED42
:1026C000091AF0EE410A1648B0F9120001EE100A9C
:1026D000B8EEC11ADFED131A21EE211AB0EE410A4D
:1026E0001148503801F066FABDEEC00A10EE100A2B
:1026F00000B20249888110BD84030020100200202E
:1027000074010020780100207C010020CC00002012
:10271000700100208401002088010020280500208D
:1027200002030020CDCCCC3DC805002010B54F4899
:10273000B0F9060000EE100AB8EEC00ADFED4C0A50
:1027400080EE201A4B4890ED000A31EE000A80ED31
:10275000000A90ED000A4848D0ED000AB4EEE00A05
:10276000F1EE10FA05DD90ED000A424880ED000A16
:102770000FE0404890ED000A4048D0ED000AB4EE6A
:10278000E00AF1EE10FA04D290ED000A394880ED2B
:10279000000A3B48B0F9120000EE900AF8EEE00A99
:1027A000B0EE600A3348D0ED000A364801F002FA74
:1027B0003448503880ED1D0A90ED1D1AF0EE410AA4
:1027C0003148B0F9100001EE100AB8EEC11ADFED81
:1027D0002F1A21EE211AB0EE410A2D4801F0EAF934
:1027E000BDEEC00A10EE100A01B225488183808B2D
:1027F000284908801D48B0F9040000EE100AF8EEE0
:10280000C00A9FED251A80EE810A2448D0ED000A07
:1028100030EE200A80ED000AD0ED000A204890ED4D
:10282000000A1848503801F0C5F91648503880EDB4
:10283000090A90ED091AF0EE410A1348B0F91200A6
:1028400001EE100AB8EEC11ADFED101A21EE211ABE
:10285000B0EE410A0E48503801F0ACF9BDEEC00AA6
:1028600010EE100A00B20649888110BDA8020020AF
:102870000000484274010020780100207C01002003
:10288000100200202805002002030020CDCCCC3D02
:10289000C8050020800100200000FA4370010020DC
:1028A000CC00002010B5FFF759FD704801F072FA16
:1028B0006E48503001F06EFA6D4801F06BFA6C48CA
:1028C000503001F067FA0221DFED6A4A9FED6A4A53
:1028D000F7EE003A9FED693ADFED672A9FED682A2F
:1028E000DFED661A9FED631ADFED620AB0EE000AB3
:1028F0005E48503001F09EFA0221DFED5E4A9FED06
:102900005E4AF7EE003A9FED5C3ADFED5B2A9FED01
:102910005B2ADFED591A9FED571AF0EE000A9FED82
:10292000590A5348503001F085FA0221DFED514A2F
:102930009FED514AF7EE003A9FED503ADFED4E2AF7
:10294000B3EE042ADFED4C1A9FED4A1ADFED490A77
:10295000B3EE090A454801F06DFA0221DFED454A60
:102960009FED454AF7EE003A9FED433ADFED422AEC
:102970009FED452ADFED401A9FED3E1AF7EE000A63
:102980009FED3F0A3A4801F055FAFFF7A1FD3F4895
:10299000008801B23E48FFF7C3FA3C48808801B284
:1029A0003B481030FFF7BCFA394AB2F91810374AE1
:1029B0005068FDF7EAFD00EE100AB8EEC00A35488F
:1029C00080ED000A324AB2F91810304A9068FDF7DB
:1029D000DCFD00EE100AB8EEC00A2F4880ED000AB8
:1029E0002B4AB2F91810294AD068FDF7CEFD00EE47
:1029F000100AB8EEC00A294880ED000A264890ED7A
:102A0000000A2648D0ED000AB4EEE00AF1EE10FA12
:102A100013D2214890ED000A204880ED000A1C4A9C
:102A2000B2F91810194AD068FDF7AFFD00EE100A90
:102A3000B8EEC00A184880ED000A154AB2F908102D
:102A4000124A1068FDF7A1FD00B21549088011482F
:102A500090ED000ABDEEC00A10EE100A00B2114956
:102A600008800A2002F04AFF10BD0000D8040020B0
:102A700078050020000000000060EA4600401C4687
:102A80000000C84200008C4200409C45E402002047
:102A90001002002074010020780100207C01002039
:102AA000500000205200002010B5454890ED000A6B
:102AB0004448D0ED000AB4EEE00AF1EE10FA05DD6C
:102AC00090ED000A3E4880ED000A0FE03C4890ED92
:102AD000000A3D48D0ED000AB4EEE00AF1EE10FA2B
:102AE00004D290ED000A364880ED000A3748B0F96C
:102AF000120000EE100AB8EEC00A314880ED000A5C
:102B0000334890ED000A334880ED000A2F48B0F9B1
:102B1000120000EE900AF8EEE00AB0EE600A2848D3
:102B2000D0ED000A2C4801F045F82B48503880EDD4
:102B30001D0A90ED1D1AF0EE410A2848B0F9100068
:102B400001EE100AB8EEC11ADFED251A21EE211AA6
:102B5000B0EE410A234801F02DF8BDEEC00A10EE98
:102B6000100A01B2194881831A48D0ED000A1848AA
:102B700090ED000A1848503801F01CF816485038FB
:102B800080ED090A90ED091AF0EE410A1348B0F9F8
:102B9000120001EE100AB8EEC11ADFED111A21EE93
:102BA000211AB0EE410A0F48503801F003F8BDEE8B
:102BB000C00A10EE100A00B20449888110BD00005E
:102BC00074010020780100207C0100201002002008
:102BD000CC00002070010020280500200203002006
:102BE000CDCCCC3DC80500200020034988810021C0
:102BF00001488183704700001002002000BFFEE7FB
:102C000000B52DED108B93B0FE4890ED000AD0ED8D
:102C1000000A20EE200A8DED060A90ED000AFA481F
:102C2000D0ED000A20EE200AF0EE40CAF54890ED03
:102C3000000AF648D0ED000A20EE200AB0EE409AD5
:102C4000F04890ED000AF248D0ED000A20EE200A8C
:102C50008DED050AEC4890ED000AD0ED000A20EE5B
:102C6000200AB0EE40DA90ED000AE848D0ED000A04
:102C700020EE200A8DED040AE34890ED000AE448B6
:102C8000D0ED000A20EE200AF0EE409ADF4890EDE9
:102C9000000AD0ED000A20EE200AB0EE40AA90ED26
:102CA000000ADB48D0ED000A20EE200AF0EE40DA00
:102CB00090ED000AD0ED000A20EE200AB0EE40EAC6
:102CC000D44890ED040AD44880ED000AD14890ED34
:102CD000050AD24880ED000ACE4890ED060AD04899
:102CE00080ED000ACB48B0F9000000EE100AB8EE03
:102CF000C00ACC4880ED000AC648B0F9020000EED8
:102D0000100AB8EEC00AC84880ED000AC148B0F900
:102D1000040000EE100AB8EEC00AC44880ED000AB4
:102D2000BC48B0F9060000EE100AB8EEC00AC04870
:102D300080ED000AB748B0F9080000EE100AB8EEBE
:102D4000C00ABC4880ED000AB248B0F90A0000EEA3
:102D5000100AB8EEC00AB84880ED000AB74800680B
:102D6000B749086008460068B6490968401A00EE8D
:102D7000100AB8EE400ADFEDB40A80EE201AF0EE39
:102D8000418AAF480068AF490860A648D0ED000A04
:102D900090ED001A60EE810AA34890ED001AD0ED84
:102DA000001A41EE210AA14890ED001AD0ED001A58
:102DB00041EE210AB0EE600A02F072FEB0EE408AE7
:102DC000984890ED000A20EE080A80ED000A964827
:102DD00090ED000A20EE080A80ED000A934890ED7D
:102DE000000A20EE080A80ED000A9FED980A90483C
:102DF00080ED000A9FED950A8E4880ED000A9FED58
:102E0000930A8D4880ED000A894890ED000AF0EEA3
:102E1000000A20EE200AF6EE000A70EECA0A70EEF2
:102E2000CE0A20EE200A8348D0ED000AB0EE001A48
:102E300060EE811ADDED040A9DED051A70EEC10AFF
:102E400001EEA00A7C48D0ED000AB0EE001A60EE58
:102E5000810A39EE891A00EE810A8DED110A744853
:102E600090ED000AF0EE000A20EE201A9DED040A13
:102E7000DDED050A30EE200A21EE000A6D48D0EDA6
:102E8000000AB0EE001A60EE810AB6EE001A31EECA
:102E90004D1A31EE4E1A00EE810A6748D0ED000A55
:102EA000B0EE001A60EE810A3DEEEC1A00EE810AE7
:102EB0008DED100A5E4890ED000AF0EE000A20EE5B
:102EC000200A79EEC90A20EE200A5A48D0ED000AFD
:102ED000B0EE001A60EE810A3DEEAC1A00EE810AF7
:102EE0005548D0ED000AB0EE001A60EE810AB6EE49
:102EF000001A31EE4D1A31EE4A1A00EE810AF0EE58
:102F000040AA9DED110A60EE000A9DED100A40EE08
:102F1000000A10EE901A084605F020FECDE90001E7
:102F20009DED000B02F08AFA8DED020B9DED020B78
:102F300051EC100B05F09CF80EEE900AB0EE6AFA18
:102F400039EEC90AF0EE000A20EE200A8DED0F0AD4
:102F50003CEEAD0AF0EE000A20EE200A8DED0E0ADE
:102F60009DED060A30EE4D0A30EE4A0A30EE0E0AAA
:102F70008DED0D0AB0EE000A2EEE800AF6EE000A84
:102F800070EECA0A70EECE0A20EE200AF0EE000AB9
:102F90006FEE200A39EEC91A00EE810A8DED0C0A97
:102FA000B0EE000A2EEE801A9DED040ADDED050A52
:102FB00030EE600A21EE000AF0EE000A6FEE200A01
:102FC0003CEEAD1A00EE810A8DED0B0AB0EE000A60
:102FD0002EEE800A79EE290A20EE200AF0EE000A91
:102FE0006FEE200AB6EE001A31EE4D1A31EE4A1A93
:102FF00000EE810A8DED0A0A0B48D0ED000A9DED26
:103000000D0A25E054000020580000205C0000203C
:1030100060000020240300207000002074000020C5
:10302000780000207C000020800000208400002028
:10303000880000208C00002090000020C8000020A4
:1030400098000020940000200000FA4400000000D6
:1030500020EE800AB54890ED001ADDED0E0A01EE73
:10306000600AB34890ED001ADDED0A0A21EE201A3D
:10307000B048D0ED001ADDED0B0A01EEE01A30EE9B
:10308000010AF0EE40FAA948D0ED000A9DED0F0AC2
:1030900060EE800AA84890ED001A9DED0D0A41EE01
:1030A000400AA44890ED001A9DED0C0A21EE001A8A
:1030B000A248D0ED001A9DED0A0A01EEC01A30EECA
:1030C000810A8DED090A9C48D0ED000A9DED0E0A9B
:1030D00020EE800A9A4890ED001ADDED0F0A01EE0D
:1030E000600A964890ED001ADDED0B0A21EE201AD9
:1030F0008F48D0ED001ADDED0C0A01EEE01A30EE3B
:10310000010A8DED080AF5EEC0FAF1EE10FA63D06F
:103110009DED090AB5EEC00AF1EE10FA5CD09DED06
:10312000080AB5EEC00AF1EE10FA55D09FED850AF7
:103130006FEE800A844890ED000A00EEA80A80ED48
:10314000000A9DED090ADFED7F0A60EE200A7F4844
:1031500090ED000A00EEA80A80ED000A9DED080A35
:10316000DFED780A60EE200A794890ED000A00EE63
:10317000A80A80ED000A774890ED000AF0EE000AF8
:1031800000EEAF0A7048D0ED000A30EE200A714818
:1031900080ED000A7048D0ED000A9DED090AB0EEFE
:1031A000001A41EE000A694890ED000A30EE800AEC
:1031B000694880ED000A6948D0ED000A9DED080AD3
:1031C000B0EE001A41EE000A614890ED000A30EEC0
:1031D000800A624880ED000A614890ED000AB1EE75
:1031E000400A5C48D0ED000A20EE200A5D48D0ED90
:1031F000000A594890ED001A00EEC10A5A4890EDB5
:10320000001A5648D0ED001AF0EE400A41EE610A6D
:10321000564890ED000A00EEA80A8DED070A90EDE1
:10322000000A4C48D0ED000A20EE200A4D48D0EDAF
:10323000000A4A4890ED001A00EE810A4A48D0ED93
:10324000000A454890ED001A00EEC10A4448D0ED4E
:10325000000AB0EE60BA00EE28BA444890ED000AC9
:103260003D48D0ED000A20EE200A3D48D0ED000A8E
:103270003A4890ED001A00EEC10A3B48D0ED000A32
:10328000344890ED001A00EE810A3648D0ED000A6D
:10329000F0EE60BA40EE28BA344890ED000A2F48AC
:1032A000D0ED000A20EE200A2D48D0ED000A2A4871
:1032B00090ED001A00EE810A2A48D0ED000A254858
:1032C00090ED001A00EEC10A2748D0ED000AB0EEDA
:1032D00060CA00EE28CADDED070A60EEA00A4BEED8
:1032E0000B0A4BEEAB0A4CEE0C0AB0EE600A02F091
:1032F000D7FBB0EE408A9DED070A20EE080A1B4876
:1033000080ED000A2BEE080A154880ED000A2BEE2E
:10331000880A144880ED000A2CEE080A124880ED55
:10332000000A13B0BDEC108B00BD0000840000202B
:103330008C000020900000207C00002088000020ED
:10334000800000200AD7233C640000206800002091
:103350006C00002070000020740000207800002025
:10336000580000205C000020600000205400002075
:1033700010B52DED088B794890ED000AF8EE000AA3
:1033800020EE200AD0ED000A20EE200A7448D0ED8D
:10339000000AB0EE001A60EE810A90ED001A00EE0D
:1033A000C10AF7EE000A30EE200A10EE101A0846A5
:1033B00005F0D4FB41EC1A0B694890ED000AF0EEE1
:1033C000000A20EE200A6748D0ED000A20EE200A0D
:1033D0006548D0ED000AB0EE001A60EE810A5F4841
:1033E00090ED001A00EE810A10EE101A084605F062
:1033F000B5FB41EC1B0BB0EE4A1AF0EE6A1AB0EEC8
:103400004B0AF0EE6B0A01F00FFFB0EE409AF0EEBF
:10341000609A9FED560B53EC102B51EC190B05F0F5
:10342000DDF841EC180B04F023FE524988624B484A
:1034300090ED000AF8EE000A20EE200A4948D0ED8F
:10344000000A20EE200A4848D0ED000AB0EE001A2B
:1034500060EE810A424890ED001A00EE810A10EEFB
:10346000101A084605F07AFB41EC1A0BB0EE4A0A36
:10347000F0EE6A0A01F0BCFBB0EE409AF0EE609A02
:103480009FED3A0B53EC102B51EC190B05F0A6F8FD
:1034900041EC180B04F0ECFD3649C862304890ED61
:1034A000000AF8EE000A20EE200AD0ED000A20EE15
:1034B000200A2C48D0ED000AB0EE001A60EE810A16
:1034C00090ED001A00EEC10AF7EE000A30EE200A75
:1034D00010EE101A084605F041FB41EC1A0B1F488C
:1034E00090ED000AF0EE000A20EE200A1C48D0ED14
:1034F000000A20EE200A1C48D0ED000AB0EE001AA7
:1035000060EE810A174890ED001A00EE810A10EE75
:10351000101A084605F022FB41EC1B0BB0EE4A1ACC
:10352000F0EE6A1AB0EE4B0AF0EE6B0A01F07CFE88
:10353000B0EE409AF0EE609A9FED0C0B53EC102B1E
:1035400051EC190B05F04AF841EC180B04F090FD12
:1035500008490863BDEC088B10BD0000580000202E
:103560005C00002060000020540000206666666653
:1035700066A64C40240300201CB50121802000F0E9
:1035800071FC4FF4C050009000208DF80400012021
:103590008DF8070003208DF8050000208DF8060047
:1035A00069460248FEF7A1FD1CBD0000001C024058
:1035B0001CB50121802000F055FC4FF4E050009034
:1035C00001208DF8040000208DF8060003208DF8FE
:1035D000050069460448FEF788FD4FF4E0510248B3
:1035E000FEF7EEFD1CBD0000001C02401CB50121D1
:1035F000042000F037FC4FF48070009001208DF81B
:10360000040000208DF8060003208DF805006946AF
:103610000548FEF76AFD4FF480710348FEF7D2FDBE
:10362000FFF7AAFF1CBD00000008024000BFFEE734
:10363000704700000178C278114442791144FF229A
:1036400091FBF2F302FB1311427A914236D10178D9
:103650001F2901D1012100E000211F4A9174417806
:10366000827841EA022109B200EE101AB8EEC00ACF
:10367000DFED1A0A80EE201A174981ED011AC17890
:10368000027941EA022109B200EE101AB8EEC00A2E
:10369000114981ED020A817949B20F4A11704179CD
:1036A000D17411460978A9B99FED0D0A114681ED33
:1036B000010A9FED0B0A81ED020A0BE00021064A88
:1036C00011709FED070A114681ED010A9FED040A72
:1036D00081ED020A70470000840300200000C84208
:1036E0000000000010B500F0A1F900F0FDF900F0B5
:1036F00025F910BD10B58348B0F902008249B1F92F
:103700000010401A00EE100AB8EEC00A9FED7F1AB2
:10371000C0EE010A9FED7E0A20EE800AF2EE040A56
:1037200020EE200A7B4880ED000A7648B0F91200AE
:103730007949B1F90010401A00EE100AB8EEC00A3B
:10374000DFED720A80EE201A9FED710A21EE000A69
:10375000F2EE040A20EE200A704880ED000A694863
:10376000B0F9000000EE100AB8EEC00ADFED6C0AF6
:1037700060EE200A9FED6B1A80EE810AF2EE040AD9
:1037800020EE200A684880ED000A5E48B0F910007B
:1037900000EE100AB8EEC00ADFED610A20EE200A42
:1037A000DFED600A80EE201AB2EE040A21EE000A74
:1037B0005E4880ED000A7A205D490870554890ED1A
:1037C000000ABDEEC00A10EE100A01B2002001F09E
:1037D0002BFF574988704F4890ED000ABDEEC00A94
:1037E00010EE100A01B2012001F01EFF5049C8700E
:1037F000484890ED000ABDEEC00A10EE100A01B272
:10380000022001F011FF4A490871424890ED000A78
:10381000BDEEC00A10EE100A01B2032001F004FF51
:1038200043494871414890ED000ABDEEC00A10EED0
:10383000100A01B2002002F0EDFF3D4988713B48BB
:1038400090ED000ABDEEC00A10EE100A01B2012090
:1038500002F0E0FF3649C871334890ED000ABDEE32
:10386000C00A10EE100A01B2002002F0D3FF304966
:1038700008722D4890ED000ABDEEC00A10EE100A45
:1038800001B2012002F0C6FF29494872294890ED93
:10389000000ABDEEC00A10EE100A01B2002002F0CC
:1038A000B9FF23498873234890ED000ABDEEC00A92
:1038B00010EE100A01B2012002F0ACFF1C49C873DF
:1038C000164890ED000ABDEEC00A10EE100A01B2D3
:1038D000002002F09FFF16498874104890ED000AFE
:1038E000BDEEC00A10EE100A01B2012002F092FFF4
:1038F0000F49C8747B20887501210F48FEF786F8B0
:1039000010BD000010020020500000200000004602
:1039100000003443B400002052000020B800002012
:103920000000B44300007042BC000020C000002032
:103930006C030020C4000020B864024000B58FB0C2
:103940000121880500F08EFA4FF0006000903348A6
:10395000019033480290002003900A200490002038
:1039600005904FF4806006900020079008904FF477
:10397000807009904FF440300A9000200B900C901A
:103980000D900E9069462748FEF76EF900222449F3
:103990000A312448FEF7FDF801212248FEF7EEF82F
:1039A000012240211D48001F01F03DF801211D4862
:1039B000FEF72CF84FF000600090184801901A486C
:1039C00002904020039017200490002005904FF4AF
:1039D0008060069000200790089009904FF44030D6
:1039E0000A9000200B900C900D900E9069460D48A7
:1039F0007830FEF739F9012280210848001F01F0D4
:103A000012F80122102107487830FEF70FF9012142
:103A100004487830FDF7FAFF0FB000BD04100140F4
:103A200058030020406402406C03002000B587B0BA
:103A30000121084600F016FA0121102000F042FA98
:103A4000072209212548FEF798FB07221146244842
:103A5000FEF793FB4FF40070059002208DF81800DC
:103A600003208DF8190000208DF81A0005A91B48C5
:103A7000FEF73BFB8020059002208DF81800032004
:103A80008DF8190000208DF81A0005A91448FEF7DA
:103A90002CFB4FF4E13001900020ADF80800ADF8A8
:103AA0000A00ADF80C000C20ADF80E000020ADF8B7
:103AB000100001A90B4801F00FF81021094800F08F
:103AC0009DFF012240F22441064800F0DFFF012162
:103AD000044800F09CFF07B000BD00000000024059
:103AE000000402400010014008B525208DF80000B8
:103AF00001208DF8010000208DF8020001208DF8D2
:103B00000300684600F010F846208DF80000012000
:103B10008DF8010000208DF8020001208DF80300CF
:103B2000684600F001F808BD70B5002100230F229F
:103B3000C4781CB3174C246804F4E064C4F5E06452
:103B4000C4F30721C1F10404E3B20A4144789C4064
:103B5000E1B28478144021430C07210E0E4C057805
:103B60006155047804F01F050124AC4005786D11FF
:103B7000AD0005F1E025C5F8004109E0047804F046
:103B80001F050124AC40054D0678761145F8264006
:103B900070BD00000CED00E000E400E080E100E01A
:103BA00002490143024A1160704700000000FA0513
:103BB0000CED00E010B52DED088B0446B0EE408A08
:103BC000F0EE608A94ED110AC8EE000AB0EE608A49
:103BD000C4ED108A38EEC80A84ED030A94ED050A94
:103BE00010EE101A084604F0B9FF41EC190B94EDE1
:103BF000030A10EE101A084604F0B0FF41EC1B0B4C
:103C0000B0EE4B0AF0EE6B0A01F00EFCB0EE40AAEB
:103C1000F0EE60AA53EC192B51EC1A0B04F0A2FC45
:103C200003D29FED5B0A84ED030A94ED000AD4ED04
:103C3000030A20EE200A84ED060A94ED060AD4ED6C
:103C40000B0AB4EEE00AF1EE10FA03DD94ED0B0A74
:103C500084ED060A94ED060AD4ED0B0AF1EE600A33
:103C6000B4EEE00AF1EE10FA05D294ED0B0AB1EED3
:103C7000400A84ED060A94ED070AD4ED010A94ED9A
:103C8000031A00EE810A84ED070A94ED070AD4EDC9
:103C90000C0AB4EEE00AF1EE10FA03DD94ED0C0A22
:103CA00084ED070A94ED070AD4ED0C0AF1EE600AE0
:103CB000B4EEE00AF1EE10FA05D294ED0C0AB1EE82
:103CC000400A84ED070A94ED030AD4ED040A30EEAD
:103CD000600AD4ED020A20EE200A84ED080A94ED71
:103CE000080AD4ED0D0AB4EEE00AF1EE10FA03DD95
:103CF00094ED0D0A84ED080A94ED080AD4ED0D0A3E
:103D0000F1EE600AB4EEE00AF1EE10FA05D294ED9D
:103D10000D0AB1EE400A84ED080A94ED060AD4EDCE
:103D2000070A30EE200AD4ED080A30EE200AD4ED5E
:103D30000A0A30EE200A84ED090A94ED090AD4ED4E
:103D40000E0AB4EEE00AF1EE10FA03DD94ED0E0A6D
:103D500084ED090A94ED090AD4ED0E0AF1EE600A29
:103D6000B4EEE00AF1EE10FA05D294ED0E0AB1EECF
:103D7000400A84ED090A94ED090A84ED0F0A94EDD6
:103D8000030A84ED040A94ED090ABDEC088B10BD0A
:103D9000000000009FED260A80ED000A9FED240A36
:103DA00080ED010A9FED220A80ED020A9FED200AB4
:103DB00080ED030A9FED1E0A80ED040A9FED1C0AA8
:103DC00080ED050A9FED1A0A80ED060A9FED180A9C
:103DD00080ED070A9FED160A80ED080A9FED140A90
:103DE00080ED090A9FED120A80ED0A0A9FED100A84
:103DF00080ED0B0A9FED0E0A80ED0C0A9FED0C0A78
:103E000080ED0D0A9FED0A0A80ED0E0A9FED080A6B
:103E100080ED0F0A9FED060A80ED100AB7EE000A4A
:103E200080ED110A9FED020A80ED120A7047000032
:103E30000000000080ED000AC0ED010A80ED021ACA
:103E4000C0ED0B1A80ED0C2AC0ED0D2A80ED0E3A64
:103E5000C0ED054AC0ED113A80ED124A80F84C10D1
:103E60007047000029B1064A12680243044B1A60E9
:103E700004E0034A12688243014B1A607047000055
:103E80003038024029B1064A12680243044B1A60D6
:103E900004E0034A12688243014B1A607047000035
:103EA0004038024029B1064A12680243044B1A60A6
:103EB00004E0034A12688243014B1A607047000015
:103EC0002038024029B1064A12680243044B1A60A6
:103ED00004E0034A12688243014B1A6070470000F5
:103EE0004438024029B1064A12680243044B1A6062
:103EF00004E0034A12688243014B1A6070470000D5
:103F000024380240F0B500210022002402250026BA
:103F10000223324F3F6807F00C0121B1042905D07C
:103F2000082937D105E02E4F076036E02D4F076096
:103F300033E02A4F3F1F3F68C7F38056274F3F1F8C
:103F40003F6807F03F036EB1264FB7FBF3F7DFF88A
:103F50008CC0ACF1040CDCF800C0CCF3881C07FB6F
:103F60000CF40CE01E4FB7FBF3F7DFF870C0ACF1B8
:103F7000040CDCF800C0CCF3881C07FB0CF4174FD2
:103F80003F1F3F68C7F301477F1C7D00B4FBF5F777
:103F9000076002E0124F076000BF00BF0F4F3F688D
:103FA00007F0F0010909104F7A5C0768D7404760B5
:103FB0000A4F3F6807F4E051890A0B4F7A5C476863
:103FC000D7408760054F3F6807F46041490B064FB3
:103FD0007A5C4768D740C760F0BD000008380240EF
:103FE0000024F400001BB700D800002021B1028893
:103FF00042F04002028004E002884FF6BF731A408C
:10400000028070470246002013890B400BB101204B
:1040100000E0002070470146888970478181704721
:1040200010B50022028802F441520B884C882343C9
:104030008C882343CC8823430C8923434C89234316
:104040008C892343CC8923431A430280838B4FF20C
:10405000FF74234083830B8A038210BD01461C48F2
:10406000814201D2002070471A48814201D20820C3
:10407000F9E71948814201D21020F4E7174881423C
:1040800001D21820EFE71648814201D22020EAE74A
:104090001448814201D22820E5E71348814201D229
:1040A0003020E0E71148814201D23820DBE7104898
:1040B000814201D24020D6E70E48814201D24820F9
:1040C000D1E70D48814201D25020CCE75820CAE701
:1040D000004000080080000800C00008000001083F
:1040E000000002080000040800000608000008089C
:1040F00000000A0800000C0800000E0830B5034656
:104100000C461546002206E0184600F007F844F871
:1041100022001B1D521CAA42F6D330BD014608687E
:10412000704700002DE9F04704460E4617464FF051
:1041300009080025A946B4F1006F02D304F003007A
:1041400008B1BDE8F087FDF7ADFF0020FDF7F8FEF0
:10415000254604EB87091848854215D211E0284608
:10416000FFF7DCFF401C58B12846FFF777FF824677
:104170000221FDF7F7FE8046B8F1090F01D002E0F9
:104180002D1D4D45EBD300BFB8F1090F0CD108E050
:1041900020463168FDF75EFF092800D003E0241DAA
:1041A000361D4C45F4D300BF0120FDF7C9FEFDF7D5
:1041B00047FF00BFC5E700000000FF1F0CB500204F
:1041C000019000903448006840F480303249086023
:1041D00000BF3148006800F4003000900198401C96
:1041E0000190009818B90198B0F5A04FF1D12A4874
:1041F000006800F4003010B10120009001E00020C0
:1042000000900098012846D123484030006840F0D3
:1042100080502149403108602048006840F4404007
:104220001E4908601C48083000681B4908310860B6
:104230000846006840F4004008600846006840F402
:10424000A05008601648091F0860081F006840F069
:104250008070091F086000BF0F48006800F0007000
:104260000028F9D040F205700E4908600A4808306D
:10427000006820F00300084908310860084600681B
:1042800040F00200086000BF03480830006800F0FA
:104290000C000828F8D10CBD003802400070004026
:1042A0000C544007003C024010B53848FFF772FD3F
:1042B00036485030FFF76EFD3548FFF76BFD344848
:1042C0005030FFF767FD0221DFED324A9FED324AA1
:1042D000F7EE003A9FED303ADFED2F2A9FED2F2ABF
:1042E000DFED2D1A9FED2B1ADFED2A0AB2EE040A3C
:1042F0002648FFF79FFD0221DFED264A9FED264A63
:10430000F7EE003A9FED243ADFED232A9FED232AB2
:10431000DFED211A9FED1F1ADFED1E0AB2EE040A2F
:104320001A485030FFF786FD0221DFED1A4A9FED53
:104330001A4AF7EE003A9FED183ADFED172A9FED83
:10434000172ADFED151A9FED131ADFED120AB2EEF0
:10435000040A0F48FFF76EFD0221DFED0E4A9FEDC4
:104360000E4AF7EE003A9FED0C3ADFED0B2A9FED77
:104370000B2ADFED091A9FED071ADFED060AB2EEF0
:10438000040A03485030FFF755FD10BD68060020B1
:10439000080700200000000000007A4600004842A4
:1043A00010B52E48007838B940F26C702C4908607E
:1043B00000202C49086007E040F6340028490860D6
:1043C0004FF47A6027490860254800682649486309
:1043D000FCF7F0FB2548B0F9000000EE900AF8EE7B
:1043E000E00AB0EE600A1F48D0ED000AF8EEE00ADD
:1043F0001F48FFF7DFFBBDEEC00A10EE100A00B247
:104400001A4988811B48B0F9000000EE900AF8EEC6
:10441000E00AB0EE600ADFED180A1848FFF7CAFBA1
:10442000BDEEC00A10EE100A00B21249888108469B
:10443000B0F9100000EE900AF8EEE00AB0EE600A63
:10444000DFED0F0A0D485030FFF7B4FBBDEEC00A98
:1044500010EE100A01B20748818310BDBC01002094
:10446000C0010020C40100200000014050020020D3
:10447000080700203002002000A00CC668060020BB
:1044800000A00C4610B52048B0F9000000EE900ADC
:10449000F8EEE00AB0EE600ADFED1C0A1C48FFF7F8
:1044A00089FBBDEEC00A10EE100A00B216498881E1
:1044B0001848B0F9000000EE900AF8EEE00AB0EEFD
:1044C000600ADFED120A1448FFF774FBBDEEC00A64
:1044D00010EE100A00B20F4988810846B0F91000AA
:1044E00000EE900AF8EEE00AB0EE600ADFED070A8F
:1044F00009485030FFF75EFBBDEEC00A10EE100A0F
:1045000001B20448818310BD500200200000000069
:10451000080700203002002068060020042808D187
:104520004FF0E021096941F004014FF0E0221161F0
:1045300007E04FF0E021096921F004014FF0E0228B
:104540001161704710B503F0D5FA012801D002F0CF
:1045500097FF10BD10B51548006840F4700013496E
:1045600008601348006840F001001149086000200D
:104570000F49083108600E4800680E4908400C4990
:1045800008600D48091D0860081F006820F480209D
:10459000091F0860002006490C310860FFF70EFE75
:1045A0004FF0006001498039086010BD88ED00E0DF
:1045B00000380240FFFFF6FE1030002410B5012144
:1045C000164800F08FF8012827D115480068401CD4
:1045D000134908601348B0F9120000EE100AB8EE53
:1045E000C00AF0EE000A20EE200ABDEEC00A0E4816
:1045F00080ED000A0D4890ED000A0B48D0ED000A4E
:10460000F8EEE00A9FED0A1A00EE810A074880EDF5
:10461000000A0121014800F047F810BD00100040D9
:10462000C800002002030020D0000020CC000020A1
:1046300082A8FB371FB5044601211020FFF722FC9A
:1046400002945320ADF804000020ADF80600ADF848
:104650000C0001A90D4800F003F936208DF8000088
:1046600000208DF801008DF8020001208DF8030074
:104670006846FFF759FA01221146044800F043F852
:104680000121024800F013F81FBD00000010004097
:1046900021B1028842F08002028004E002884FF6D5
:1046A0007F731A4002807047CA430282704721B16B
:1046B000028842F00102028004E002884FF6FE7395
:1046C0001A400280704731B1B0F8442042F40042F1
:1046D000A0F8442005E0B0F84420C2F30E02A0F890
:1046E0004420704730B50246002000230024158A7C
:1046F00005EA0103958905EA010413B10CB1012013
:1047000000E0002030BD1AB183890B43838102E0B1
:1047100083898B438381704770B500240022002376
:10472000058C4FF6FE7635400584028C8388048B19
:104730004FF68F752C40B51E2C400D882C43751EEE
:104740002A408D892A434D882A43104DA84202D021
:104750000F4DA84213D14FF6F7752A40CD892A4351
:104760004FF6FB752A408D882A434FF6FF652B4094
:104770004FF6FF552B400D8A2B434D8A2B438380E8
:1047800004838D684563028470BD00000000014011
:10479000000401400A460021018B4FF6F7731940CF
:1047A000114301837047000070B5002400220023EC
:1047B000058C4FF6FF6635400584028C8388848B18
:1047C0004FF68F752C404FF6FC752C400D882C430E
:1047D0004FF6FF552A408D894FF6FF7606EA0525EC
:1047E0002A434D8806EA05252A43154DA84202D0E2
:1047F000144DA8421DD14FF2FF752A40CD894FF6C6
:10480000FF7606EA05252A434FF6FF352A408D88B4
:1048100006EA05252A434EF6FF752B404DF6FF7537
:104820002B400D8A06EA05152B434D8A06EA05152D
:104830002B43838084838D68C563028470BD000030
:1048400000000140000401400A460021818B4FF620
:10485000F77319401143818370474163704700002B
:1048600000220288184B98420ED0184B98420BD069
:10487000B0F1804F08D0164B984205D0154B9842A6
:1048800002D0154B984204D14FF68F731A404B88D3
:104890001A43124B984207D0114B984204D04FF65E
:1048A000FF431A400B891A4302804B68C3620B888E
:1048B0000385054B984202D0044B984201D18B7A74
:1048C00003860123838270470000014000040140F9
:1048D0000004004000080040000C004000100040B0
:1048E0000014004010B501F0F3FF10BD10B540F208
:1048F00024411D4800F0A0F8002834D000241A48B4
:1049000000F054F91948FDF754F9A8B900211748E7
:10491000FDF77CF81548FDF748F904460A211348CD
:10492000FDF7CEF901211148FDF770F80A2C19D1D5
:104930000F48FEF77FFE15E000210C48FDF766F8F2
:104940000A48FDF732F904460A210848FDF7B8F98C
:1049500001210648FDF75AF80A2C03D104480A3809
:10496000FEF768FE00BF10BD001001404064024029
:104970006203002010B540F224411D4800F05CF8AD
:10498000002834D000241A4800F010F91948FDF727
:1049900010F9A8B900211748FDF738F81548FDF7B8
:1049A00004F9044612211348FDF78AF90121114840
:1049B000FDF72CF8122C19D10F48FDF783F915E0FB
:1049C00000210C48FDF722F80A48FDF7EEF80446EE
:1049D00012210848FDF774F901210648FDF716F881
:1049E000122C03D104481238FDF76CF900BF10BD3A
:1049F00000480040286002409602002001F4007246
:104A0000B2F5007F00D100BFCA430280704721B1D8
:104A1000828942F40052828104E082894DF6FF735C
:104A20001A40828170471AB1838A0B43838202E065
:104A3000838A8B438382704770B50246002400232B
:104A40000025002040F66A16B14200D100BFC1F334
:104A5000421501F01F03012606FA03F3012D02D1CE
:104A60009689334006E0022D02D1168A334001E0D8
:104A7000968A33400C12012606FA04F41688344054
:104A800013B10CB1012000E0002070BDF0B5034669
:104A9000002400260025002040F66A17B94200D104
:104AA00000BF1846C1F3421401F01F06012707FAA0
:104AB00006F5012C01D10C3004E0022C01D110309C
:104AC00000E014301AB107682F43076002E007685E
:104AD000AF430760F0BD00002DE9FF4705460E46D5
:104AE0000024A14600BFA046B08900B100BF2C8AB7
:104AF00024F44054F08804432C82AC8941F20C60C9
:104B00008443B08831890843718908430443AC81E8
:104B1000AC8A24F44074B0890443AC826846FFF741
:104B2000F1F92048854202D01F48854202D1DDF8C4
:104B30000C9001E0DDF80890A88900F4004040B135
:104B400009EBC90000EB091031684900B0FBF1F72F
:104B500007E009EBC90000EB091031688900B0FBE0
:104B6000F1F76420B7FBF0F004012009642101FB98
:104B70001078A88900F4004040B1322000EBC80052
:104B8000B0FBF1F000F00700044308E0322000EB36
:104B900008106421B0FBF1F000F00F0004432C81F9
:104BA000BDE8FF87001001400014014001468888DD
:104BB000C0F30800704700BFFEE703B4019841004E
:104BC000009850EAC12018BF04204A0D18BF40F0D9
:104BD000010040F2FF72B2EB515F08BF40F00200EB
:104BE000012808BF052002B0704700000000000047
:104BF00070B5C1482DED020B2DED0E8B82B0119DCD
:104C000025F000449FEDBEDB9FEDBFEB84423EDB11
:104C1000A4F140511098A1F17F6108430FD0BC4826
:104C2000844202DC28D1109830B39DED100B02B005
:104C3000BDEC0E8B02B0BDE8704000F0B8BC9DED3D
:104C4000100B53EC1D2B51EC100B03F0C7FC9DED2A
:104C5000100B41EC180B53EC1E2B51EC100B03F016
:104C6000BDFC53EC182B03F035FA41EC100B02B0ED
:104C7000BDEC0E8B02B070BD0120FBF7C6FB02B08D
:104C8000BDEC0E8B02B0BDE8704000F0A5BCA148A1
:104C90009FEDA18B844256DA9DED100BB4F1795F44
:104CA0000ADA51EC100BFFF788FF042808BF00F068
:104CB000A3FC9DED100BDAE753EC102B51EC100B1D
:104CC00003F08CFC41EC190B95480621B0EE490A23
:104CD000F0EE690A784400F0EEFB53EC192B51EC2E
:104CE000100B03F07BFC41EC1A0B8E48B0EE490A26
:104CF000F0EE690A0421784400F0DDFB53EC192B37
:104D000051EC100B03F06AFC53EC182B03F0E2F9A2
:104D100041EC100B51EC1A0B53EC102B03F08EFAF4
:104D2000CDE900019DED000B53EC102B9DED100B18
:104D300051EC100B03F052FC9DED101B53EC112BAA
:104D400003F0C8F9D2E09DED100B51EC100B00F010
:104D500027FE53EC182B03F03FFD9FED730BCDE9BD
:104D6000000153EC102B9DED000B51EC100B03F0E8
:104D700035FC41EC190B6E480621B0EE490AF0EE05
:104D8000690A784400F097FB53EC192B51EC100B97
:104D900003F024FC41EC1B0B6648B0EE490AF0EE30
:104DA000690A0421784400F086FB53EC192B51EC7E
:104DB000100B03F013FC53EC182B03F08BF941ECB0
:104DC0001C0B51EC190B01F02BFD41EC180B5A4850
:104DD0009FED5BABA04222DC53EC1C2B51EC1B0B78
:104DE00003F02CFACDE900019DED000B51EC180BFE
:104DF00053EC102B03F0F2FB53EC182B03F06AF981
:104E000053EC1A2B03F0EAFB53EC1D2B03F0BCFD13
:104E100053EC1E2B03F0E0FC41EC100B5FE08DED3A
:104E2000008B002000909DED000B51EC180B53EC13
:104E3000102B03F04FF99DED000B41EC1E0B53ECD2
:104E4000102B51EC100B03F0C9FB53EC192B03F0A2
:104E5000C3FC53EC1E2B03F0F1F941EC190B53EC9E
:104E60001C2B51EC1B0B03F0E9F941EC1B0B53EC31
:104E70001A2B51EC190B03F0B1FB53EC1D2B03F073
:104E8000ABFC41EC190B53EC1A2B51EC180B03F053
:104E9000A5FB53EC1B2B03F0A1FB53EC192B03F0E8
:104EA00073FD9DED000B41EC180B53EC1A2B51ECEC
:104EB000100B03F093FB9FED249B53EC192B03F095
:104EC0008BFC41EC100B51EC180B53EC102B03F046
:104ED0005BFD53EC192B03F07FFC41EC100B002D14
:104EE0003FF7C5AE51EC100B03F0B6F841EC100BD8
:104EF000BDE60000000000000000F03F00000000E0
:104F0000075C143326A6913C182D4454FB21F93F2D
:104F10000000F07F0000E03F000000000000F03FD4
:104F2000803F00008E3F0000000000000000E03FD6
:104F3000D23E0000E03E00003333EF3F00000000AF
:104F40000000000000000040182D4454FB21E93F00
:104F500070B59B482DED020B2DED068B079D25F0BE
:104F60000044A04218DC9748844202DC0AD106982B
:104F700040B19DED060BBDEC068B02B0BDE8704064
:104F800000F015BB002DCCBF9FED8F0B9FED900B5C
:104F9000BDEC068B02B070BD8F48A04215DD8F4876
:104FA000A042D8BF4FF0FF3458DD9DED060B51EC09
:104FB000100BFFF702FE042808BF00F01DFB9DED5B
:104FC000060BBDEC068B02B070BD9DED060B51ECDF
:104FD000100B00F0E5FCCDE9060181489FED828BC6
:104FE000A0423CDD8248A0421FDD00249FED82AB41
:104FF0009DED060B53EC1A2B51EC100B03F06AF8E5
:105000009DED060B41EC190B53EC1A2B51EC100BD8
:1050100003F0E4FA53EC182B03F0B6FC53EC192B15
:1050200003F00CF9CDE9060149E09DED060B0124E2
:1050300053EC182B51EC100B03F04CF89DED060BC4
:1050400041EC190B53EC182B51EC100B03F09CFCAA
:1050500053EC192B03F0F2F8CDE906012FE0684874
:10506000A0421FDD02249FED689B9DED060B53ECD3
:10507000192B51EC100B03F0B1FA53EC182B03F081
:1050800029F89DED060B41EC180B53EC192B51EC54
:10509000100B03F079FC53EC182B03F0CFF8CDE99B
:1050A00006010CE09DED060B032453EC102B9FED45
:1050B000580B51EC100B03F0C1F8CDE906019DED42
:1050C000060B53EC102B51EC100B03F087FA41EC5C
:1050D000180B53EC182B03F081FA41EC190B4E48D6
:1050E0000621B0EE490AF0EE690A784400F0E3F9CF
:1050F00053EC182B51EC100B03F070FA41EC180B29
:105100004648B0EE490AF0EE690A0521784400F0FD
:10511000D2F953EC192B51EC100B03F05FFA41EC70
:10512000100B51EC180B53EC102B002C0EDA02F084
:10513000D1FF9DED061B53EC112B03F04FFA9DEDB3
:10514000061B53EC112B03F047FB35E002F0C2FFC6
:105150009DED061B53EC112B03F040FA41EC100BB4
:105160002F48784400EBC40090ED001B51EC100B6D
:1051700053EC112B03F008FC9DED061B53EC112B97
:1051800003F002FC41EC100B2648784400EBC4000D
:1051900090ED001B51EC100B53EC112B03F01CFB9A
:1051A00041EC100B002DA2BFBDEC068B02B070BD10
:1051B00051EC100B02F050FF41EC100B01E7000026
:1051C000000010440000F07F182D4454FB21F93FEB
:1051D000182D4454FB21F9BF0000DC3F0000203EA5
:1051E0000000F33F00000000000000000000F03F5E
:1051F0000000E63F0000000000000000000000404A
:105200000080034000000000000000000000F83FA4
:10521000000000000000F0BF223C0000D83B00006E
:10522000623B00001A3B000070B56F4E2DED040B81
:105230002DED048B82B0DDF824C0DDE907235C424C
:105240002CF000411C4341EAD474069D22F000403A
:10525000B44205D86C422C4340EAD474B4420BD912
:105260009DED081B9DED060B02B0BDEC048B04B058
:10527000BDE8704000F0A5B9ACF14054A4F17F64E2
:105280001C430BD0022404EAAC7444EAD2740543F4
:105290009FED578B9FED582B07D015E09DED060B2A
:1052A00051EC100B00F0B8F942E0002C11BF012CBA
:1052B0009DED060B02B0BDEC048B04BF04B070BDC5
:1052C000022C38D0032C3BD00B439FED4D1B9FEDA0
:1052D0004E0B0AD0B14218D1B04209D121F0804121
:1052E00020F08040099107900FE0002A15DA10E0C5
:1052F000474B7B44002C08BF93ED000B0DD0012CD5
:1053000010D0022C17D0032C1AD0B0421DD1002A85
:1053100003DAB0EE410AF0EE610A02B0BDEC048B94
:1053200004B070BD93ED000B51EC100B02F094FE35
:1053300041EC100BF1E7B0EE480AF0EE680AECE73A
:10534000B0EE420AF0EE620AE7E7401A00159FED60
:10535000329B3C28C8BF8DED000B17DCBCF1000F61
:10536000BCBF10F13C0F8DED009B0FDB9DED080BDA
:1053700053EC102B9DED060B51EC100B02F05EFF71
:1053800000F00EFB00F048F9CDE90001B4B1012CAA
:1053900010D0022C9FED220B53EC102B9DED000B37
:1053A00051EC100B19D003F0EFFA53EC182B03F06B
:1053B000EBFABDE7019880F0004001909DED000BF5
:1053C00053EC192B51EC100B03F090F804BF0220A2
:1053D000FBF71BF89DED000B9FE703F0D5FA53ECAC
:1053E000182B03F0F9F9A3E70000F07F000000009C
:1053F000182D4454FB210940182D4454FB2109C0A9
:10540000182D4454FB21F9BF182D4454FB21F93FBA
:105410004A3A000000000000000000000000000008
:10542000075C143326A6A13C2DED020B019820F059
:10543000004001909DED000B02B0704700B52DEDCE
:10544000048BB0EE409AF0EE609A83B051EC190BE9
:1054500003F0CEF941EC180B18EE100A18EE901A72
:105460008DED008B002818BF0120084320F000407C
:10547000C0F17F6000F1E040C00F14D019EE101AA7
:1054800019EE900A8DED009B002918BF01210843F9
:1054900020F00040C0F17F6000F1E040C00F04BF89
:1054A0000120FAF7B2FFB0EE480A03B0F0EE680A46
:1054B000BDEC048B00BD70B504462DED028B4D1E76
:1054C00000EBC500B0EE408AF0EE608A90ED000B74
:1054D00035F0060017D053EC182B51EC100B03F0ED
:1054E0007DF841EC100B6D1E04EBC50090ED001B28
:1054F00051EC100B53EC112B02F0ECFD41EC100BB6
:1055000035F00600E7D1022D36D0042D1CD0062D33
:105510001CBFBDEC028B70BD53EC182B51EC100B73
:1055200003F05CF894ED0A1B53EC112B02F0D2FD52
:1055300053EC182B03F052F894ED081B53EC112B8D
:1055400002F0C8FD41EC100B53EC182B51EC100B82
:1055500003F044F894ED061B53EC112B02F0BAFD56
:1055600053EC182B03F03AF894ED040B53EC102B8A
:1055700002F0B0FD41EC100B53EC182B51EC100B6A
:1055800003F02CF894ED021B53EC112B02F0A2FD5A
:1055900053EC182B03F022F894ED001B53EC112B65
:1055A00002F098FDBDEC028B41EC100B70BD10B504
:1055B00053EC102B51EC100B02F08CFD41EC100B56
:1055C00010BD10B553EC112B51EC100B02F082FD05
:1055D00041EC100B10BD00009FED050B10B553EC16
:1055E000102B51EC100B02F029FE41EC100B10BDFA
:1055F00000000000000000009FED050B10B553EC0B
:10560000102B51EC100B02F0E9FF41EC100B10BD18
:10561000000000000000001010B541EC100BFFF777
:1056200097FC51EC100B10BD08B5024600911DF817
:10563000020008BD70B500250024FAF7B7FF8020EE
:10564000FBF720FA5520FBF71DFA5520FBF71AFA55
:105650000546FAF7A3FF962000F072F9FAF7A6FFC5
:105660008020FBF70FFA5520FBF70CFA5520FBF7CB
:1056700009FA0546FAF792FF962000F061F9FAF769
:1056800095FFB6217E20FBF719FAFAF787FF502025
:1056900000F034F9FAF78AFF8020FBF7F3F9552080
:1056A000FBF7F0F95520FBF7EDF90546FAF776FF21
:1056B000962000F045F9FAF779FF8020FBF7E2F930
:1056C0005520FBF7DFF95520FBF7DCF90546FAF723
:1056D00065FF962000F034F91E2D01D0FF2070BD2B
:1056E000002434E0FAF762FF04EB44021A4B1A4438
:1056F000517804EB4402985CFBF7E0F9FAF74EFFAF
:10570000962000F01DF9FAF751FF04EB4401124A0C
:10571000515C41F08000FBF7B5F95520FBF7B2F979
:105720005520FBF7AFF90546FAF738FF962000F051
:1057300007F904EB4400084908444078A84204D023
:1057400004EB440008448078C9E7601CC4B2062C0E
:10575000C8DB0020C3E700001C00002038B500248F
:1057600000200090FAF732FF69460020FBF77EF92F
:10577000FAF724FF962000F0E3F8FAF727FF6946CE
:105780000020FBF773F9FAF719FF962000F0D8F81C
:10579000FAF71CFFB6211420FBF790F9FAF70EFF79
:1057A000502000F0ABF8FAF711FF69460020FBF734
:1057B0005DF9FAF703FF962000F0C2F8FAF706FF4A
:1057C00069460020FBF752F9FAF7F8FE962000F040
:1057D000B7F89DF800000F2801D0FF2038BD002445
:1057E0002FE0FAF7F3FE04EB4402184B1A44517809
:1057F00004EB4402985CFBF761F9FAF7DFFE9620B0
:1058000000F09EF8FAF7E2FE04EB44010F4A505C08
:105810006946FBF72BF9FAF7D1FE962000F090F8D5
:1058200004EB44000949084440789DF80010884280
:1058300005D004EB4400054908448078CEE7601C9D
:10584000C4B2062CCDDB0020C8E700002E000020EB
:1058500008B513E04FF0FF300023012211460090FD
:105860000748006801F0C4FC044604F0010028B1B8
:10587000FBF7D8FAFBF73AFBFBF77EFCEAE7000000
:10588000600100201CB50648072100234FF4806208
:10589000CDE9001003A1074802F0FCF81CBD000090
:1058A0006401002063616E5F73656E645F74617391
:1058B0006B0000005158000870B504460420FEF744
:1058C0002DFE0C48047025464FF47A7045430120A4
:1058D000094908804FF0E020006940F002004FF0D5
:1058E000E021086108464561006940F00100086157
:1058F00070BD0000D4000020D600002070B5044622
:1059000002F0F8F8012811D00C480088844206DB28
:105910000A48008894FBF0F5284601F063F907482F
:10592000008894FBF0F100FB114084B24FF47A71CF
:1059300004FB01F000F004F870BD0000D600002068
:1059400070B5034600224FF0E02675690D4E36789B
:1059500003FB06F44FF0E026B16910E04FF0E026BB
:10596000B06988420BD0884202D20E1A324402E05B
:105970002E1A0E4432440146A24200D300E0EDE765
:1059800000BF70BDD400002030B50446002504E0FF
:105990004FF47A70FFF7D4FF6D1CA542F8D330BDE9
:1059A00082B0CDE9000121F0004001909DED000B97
:1059B00002B051EC100B704708B500BF02F0AAF816
:1059C000009025E01348007860B1012804D0022837
:1059D00005D003280CD108E0FCF7A8FE09E0FCF78D
:1059E000B5FD06E0FDF700F903E0FDF75DF800E026
:1059F00000BF00BF01210848006801F092FB1021A0
:105A00000548006801F08DFB0221684601F018F995
:105A1000D8E700006C010020600100201CB506489A
:105A2000052100234FF48062CDE9001003A1064850
:105A300002F030F81CBD00006801002067696D624B
:105A4000616C5F7461736B00B959000808B500BFE1
:105A500002F060F8009009E0FAF7C0FDFDF7D0F819
:105A6000FDF786FC0121684601F0EAF8F4E7000042
:105A70001CB50648062100234FF48062CDE90010D2
:105A800003A1064802F006F81CBD00008C010020AE
:105A9000696D755F7461736B000000004D5A0008FA
:105AA000B6EE001A20EE011AF0EE410A10EE100ACE
:105AB0000749A1EB600000EE100A60EE801AB7EE15
:105AC000081A01EEC01A21EE001AB0EE410A704722
:105AD000DF59375F00242BE0641C00BF4FF40061E6
