:020000040800F2
:10000000F04601203903000879400008393600081D
:10001000754000088D0C00080B5B00080000000014
:100020000000000000000000000000004D02000879
:10003000E325000800000000A1020008A952000802
:100040005303000853030008530300085303000838
:100050005303000853030008530300085303000828
:100060005303000853030008530300085303000818
:100070005303000853030008530300085303000808
:10008000530300085303000853030008C90F000876
:10009000B90D00085303000853030008E5250008C4
:1000A00053030008530300085303000853030008D8
:1000B00053030008530300085303000853030008C8
:1000C00053030008530300085303000853030008B8
:1000D00053030008E956000853030008715700084D
:1000E0005303000853030008530300085303000898
:1000F0005303000853030008530300085303000888
:100100005303000853030008530300085303000877
:100110005303000853030008215300085303000849
:100120005303000853030008530300085303000857
:100130005303000853030008530300080913000881
:10014000A5110008530300085303000853030008D7
:100150005303000853030008A5200008F9570008BE
:100160005303000853030008530300085303000817
:100170005303000853030008530300085303000807
:10018000530300085303000800F002F800F04EF893
:100190000AA090E8000C82448344AAF10107DA45E2
:1001A00001D100F043F8AFF2090EBAE80F0013F0E6
:1001B000010F18BFFB1A43F0010318475CA00000B1
:1001C0007CA000000A4410F8014B14F00F0508BF92
:1001D00010F8015B240908BF10F8014B6D1E05D013
:1001E00010F8013B6D1E01F8013BF9D1641E03D0EC
:1001F000641E01F8015BFBD19142E4D3704700001B
:100200000023002400250026103A28BF78C1FBD81F
:10021000520728BF30C148BF0B6070471FB509F0B7
:10022000F8FD00F0BEF81FBD10B510BD00F0A0F93C
:100230001146FFF7F3FF06F079FD00F0BEF903B4B5
:10024000FFF7F2FF03BC00F0C3F900002A4B196866
:100250000868B0E8F04F80F30988BFF36F8F4FF064
:10026000000080F311887047000000000648006815
:10027000006880F3088862B661B6BFF34F8FBFF3A2
:100280006F8F00DF00BF00BF08ED00E0DFF80C005B
:10029000016841F470010160704700BF88ED00E023
:1002A000EFF30980BFF36F8F134B1A681EF0100F26
:1002B00008BF20ED108A20E9F04F106008B44FF01D
:1002C000500080F31188BFF34F8FBFF36F8F07F09B
:1002D000BFFF4FF0000080F3118808BC1968086860
:1002E000B0E8F04F1EF0100F08BFB0EC108A80F39A
:1002F0000988BFF36F8F704718010020EFF3058066
:10030000704700000B49D1F800C04A685CF8043B14
:100310001068184442F8040B8C4528BFA1F1DC0C8E
:100320008A4228BFA1F1DC02C1F800C04A6020F077
:10033000004070478840012009488047094800472D
:10034000FEE7FEE7FEE7FEE7FEE7FEE7FEE7FEE785
:10035000FEE7FEE704480549054A064B70470000E2
:10036000B952000889010008F0400120F046012040
:10037000F0420120F04201200B4910B5A1F17C02AE
:100380000A4CC2E93712372106E000EB104342F86D
:100390002130074B00FB03400B1EA1F10101F4DCEF
:1003A00010BD0120E8E7000028400120E119D666D1
:1003B000CD0D0100032A40F2308010F0030C00F054
:1003C000158011F8013BBCF1020F624498BF11F88F
:1003D00001CB00F8013B38BF11F8013BA2F1040248
:1003E00098BF00F801CB38BF00F8013B11F00303C0
:1003F00000F08480083AC0F0088051F8043B083AC5
:1004000051F804CBA0E80810F5E7121D5CBF51F8C5
:10041000043B40F8043BAFF30080D20724BF11F83F
:10042000013B11F801CB48BF11F8012B24BF00F8A4
:10043000013B00F801CB48BF00F8012B704702F0E8
:10044000FF0343EA032242EA024200F002B84FF0FF
:1004500000020429C0F0128010F0030C00F01B8091
:10046000CCF1040CBCF1020F18BF00F8012BA8BF9F
:1004700020F8022BA1EB0C0100F00DB85FEAC17C63
:1004800024BF00F8012B00F8012B48BF00F8012B16
:1004900070474FF0000200B5134694469646203947
:1004A00022BFA0E80C50A0E80C50B1F12001BFF42D
:1004B000F7AF090728BFA0E80C5048BF0CC05DF893
:1004C00004EB890028BF40F8042B08BF704748BFE1
:1004D00020F8022B11F0804F18BF00F8012B704755
:1004E00070477047704710B500F03AF8006810BDCB
:1004F00010B5044600F034F8046010BD10B5203A81
:10050000C0F00B80B1E81850203AA0E81850B1E8CC
:100510001850A0E81850BFF4F5AF5FEA027C24BF82
:10052000B1E81850A0E8185044BF18C918C0BDE879
:1005300010405FEA827C24BF51F8043B40F8043B42
:1005400008BF7047D20728BF31F8023B48BF11F8F7
:10055000012B28BF20F8023B48BF00F8012B704751
:1005600000487047904001200048704790400120AB
:100570007546FFF7F9FFAE4605006946534620F081
:100580000700854618B020B5FFF7E4FEBDE820401F
:100590004FF000064FF000074FF000084FF0000B3F
:1005A00021F00701AC46ACE8C009ACE8C009ACE8F2
:1005B000C009ACE8C0098D46704710B50446AFF3DA
:1005C00000802046BDE81040FFF739BE70470000AC
:1005D00001491820ABBEFEE72600020002468A420F
:1005E00002DA02F5005070471046FCE710B5102102
:1005F000014802F06EF910BD0000024010B5102154
:10060000014802F064F910BD0000024010B501215C
:10061000014802F05EF910BD0004024010B501214E
:10062000014802F054F910BD000402401CB500203E
:1006300000900190FFF7E2FF922000F04BFA0622B3
:100640006946122000F027FAFFF7D0FF9DF801005D
:10065000000200B29DF8001040EA01045D480480E9
:100660009DF80300000200B29DF8021040EA010468
:10067000584844809DF80500000200B29DF804101F
:1006800040EA010453488480FFF7C8FF0822694606
:10069000002000F000FAFFF7B9FF9DF800000F28D6
:1006A00029D19DF80300000200B29DF8021040EA33
:1006B00001044848408B201A00B24649C8819DF881
:1006C0000500000200B29DF8041040EA0104414810
:1006D000808B201A00B23F4908829DF80700000273
:1006E00000B29DF8061040EA01043A48C08B201A77
:1006F00000B238494882FFF781FFA22000F0EAF9F2
:1007000002226946222000F0C6F9FFF76FFF9DF82C
:100710000000C0009DF8011040EA6114B4F5806F3C
:1007200002DBA4F5006004B22A4884810146B1F9D5
:100730001200002801DB014600E04142142902DAE0
:10074000002024494882244822490A6802604A68F5
:100750004260896881601F48B0F90C0000EE100A01
:10076000F8EEC00AB4EE001AB3EE070A00EE810AF2
:10077000194880ED030A1748B0F90E0000EE100A80
:10078000B8EEC00A1548D0ED000A20EE200A124843
:1007900080ED040A0F48B0F9100000EE100AB8EE20
:1007A000C00A0E48D0ED000A20EE200A0A4880ED6B
:1007B000050A0848B0F9120000EE100AB8EEC00AA7
:1007C0000648D0ED000A20EE200A034880ED060A14
:1007D0001CBD00009E030020C00300201800002064
:1007E0001CB5002000900190002460E0FFF706FF98
:1007F000922000F06FF906226946122000F04BF9B2
:10080000FFF7F4FEFFF70AFF08226946002000F018
:1008100042F9FFF7FBFE9DF801009DF8001041EA48
:1008200000204349898A084400B2414988829DF8E2
:1008300003009DF8021041EA00203D49C98A08449E
:1008400000B23B49C8829DF805009DF8041041EABA
:1008500000203749098B084400B2354908839DF8C8
:1008600003009DF8021041EA00203149498B0844F9
:1008700000B22F4948839DF805009DF8041041EA15
:1008800000202B49898B084400B2294988839DF8B0
:1008900007009DF8061041EA00202549C98B08444D
:1008A00000B22349C883052006F03EF9641CB4F564
:1008B000967F9BDB1E48B0F914004FF4967190FBB5
:1008C000F1F000B21A4988820846B0F916004FF4D8
:1008D000967190FBF1F000B21549C8820846B0F954
:1008E00018004FF4967190FBF1F000B210490883A4
:1008F0000846B0F91A004FF4967190FBF1F000B27F
:100900000B4948830846B0F91C004FF4967190FBE0
:10091000F1F000B2064988830846B0F91E004FF492
:10092000967190FBF1F000B20149C8831CBD000034
:100930009E03002000B587B00121084603F0C2FFE6
:100940000121022003F0BEFF0121080303F0EAFFAA
:100950008020059002208DF8180000208DF81A00E4
:100960008DF81B0003208DF8190005A93E4801F001
:100970003AFF1820059002208DF8180000208DF80D
:100980001A008DF81B0003208DF8190005A93748BF
:1009900001F029FF1020059001208DF8180000209B
:1009A0008DF81A0001208DF81B0003208DF8190026
:1009B00005A92D4801F017FF10212B4801F089FFF0
:1009C000012005908DF8180000208DF81A000120F4
:1009D0008DF81B0003208DF8190005A9234801F0AC
:1009E00002FF0121214801F074FF052207211E4862
:1009F00001F041FF052203211C4801F03CFF0522C4
:100A000004211A4801F037FF0121080303F09AFF7F
:100A100000214FF4805003F095FF0020ADF8000056
:100A20004FF48270ADF802003820ADF80C000020C1
:100A3000ADF804004FF40070ADF80A000220ADF8E4
:100A400006000120ADF808000020ADF80E000A20D5
:100A5000ADF810006946064804F06EF9012104481B
:100A600004F050F907B000BD00000240000402404D
:100A70000030014010B50024FFF75CFF05F0D6FD03
:100A8000044305F067FE04430A2006F007F8FFF769
:100A9000A7FE204610BD70B506460C46154646F02A
:100AA000800000F017F806E0552000F013F82070E1
:100AB000641C681EC5B2002DF6D170BD70B5044629
:100AC0000D4644F0800000F005F8552000F002F8D3
:100AD000287070BD10B5044600BF02210A4804F01A
:100AE0001DF90028F9D02146074804F023F900BF7A
:100AF0000121054804F012F90028F9D0024804F059
:100B000016F9C0B210BD00000030014070B50546B6
:100B10000C462846FFF7DEFF2046FFF7DBFF70BDDF
:100B200010B503F05FFA03F085FA01F0ABFC00F0BA
:100B3000AFF8FFF79FFF4FF47A7004F079FC00F0F4
:100B400015F801F04DFA03F0EBFA04F02DF802F07D
:100B500059FB01F0E3F804F033FA10BD024A1060CB
:100B6000014A1032116070472C08004000B58BB06C
:100B70000121042003F0B6FE0121082003F0A2FEAB
:100B800002220E211F4801F076FE4FF480400990AA
:100B900002208DF8280000208DF82A0003208DF80F
:100BA000290009A9174801F01EFE5320ADF81800CE
:100BB0000020ADF81A0040F2572007900020ADF851
:100BC000200006A9104804F049FD00200390602091
:100BD000ADF804000120ADF806000020ADF81000CB
:100BE00001A9094804F0DEFC0821074804F02AFDA9
:100BF0000121054804F04AFC0121034804F055FC9A
:100C00000BB000BD000C0240000800401A48B0F9CB
:100C1000160042F21071884204DD18480068401C3A
:100C2000164908601648006801281DDB1448006852
:100C3000401C13490860084600681E2804DD002097
:100C400008600E49086016E00B48B0F9160010F570
:100C50007A6F03DD0B480C4908600CE0002008495E
:100C600008600649086006E0044800680A2802D1C6
:100C70000120034908607047D202002028020020AA
:100C80002C02002030F8FFFF1C02002000BFFEE70E
:100C900010B500F003F800F0F1F910BD00B58BB00D
:100CA0000121082003F00EFE0121480603F01AFE80
:100CB000092200213E4801F0DEFD092201213C48C5
:100CC00001F0D9FD0320099002208DF828000320AF
:100CD0008DF8290000208DF82A0009A9344801F078
:100CE00082FD14208DF8200002208DF821000020C4
:100CF0008DF8220001208DF8230008A803F044FCA1
:100D000013208DF8200002208DF8210000208DF89E
:100D1000220001208DF8230008A803F035FC2548A7
:100D200000F080FB05A800F0F7FD0320ADF81400EB
:100D300000208DF816008DF8170008208DF8180097
:100D400003208DF8190000208DF81A008DF81B0083
:100D50008DF81C008DF81D008DF81E0001208DF807
:100D60001F0005A9134800F096FC0020ADF8040010
:100D7000ADF80600ADF80800ADF80A00ADF80C00BB
:100D80008DF80E008DF80F0001208DF810008DF801
:100D9000110001A800F062FB01220221054800F0C9
:100DA00071FC01221146034800F06CFC0BB000BD41
:100DB000000C02400064004000B585B002212D48BF
:100DC00000F0D0FB002852D06A460021294800F0EC
:100DD000ECFC9DF80800002845D19DF8090000288A
:100DE00041D19DF80A0008283DD1322022490860EF
:100DF0000098A0F20120082833D2DFE800F00409AF
:100E000011161C21272C69461C4800F0E3FA29E042
:100E100069461B4800F0DEFA194800F03FFD21E06A
:100E20006946184800F0D6FA1CE0694615481230A9
:100E300000F0D0FA16E06946134800F0CBFA11E052
:100E400069461148123000F0C5FA0BE069460F48B8
:100E500000F0C0FA06E069460C48123000F0BAFA19
:100E600000E000BF00BF0221024800F05FFA05B0B9
:100E700000BD00000064004040000020300200205F
:100E800078020020AE0200208A020020D202002058
:100E900000B585B000208DF808008DF80900082005
:100EA0008DF80A008001009019488089000A8DF8A9
:100EB0000B001748017B8DF80C1016488089010A39
:100EC0008DF80D101348017B8DF80E1000218DF860
:100ED0000F108DF810108DF811108DF812100020E1
:100EE0000D4908700D480068002803DD69460C486C
:100EF00000F022FD04E009480068002800DC03E05F
:100F0000054800780028F6D000BF05B000BD0000FD
:100F1000300200207802002048000020400000201D
:100F20000064004000B585B000208DF808008DF801
:100F3000090008208DF80A0040F2FF1000901D48BB
:100F40008089000A8DF80B001A48017B8DF80C107F
:100F5000C08B010A8DF80D101648817F8DF80E1098
:100F600015488089010A8DF80F101348017B8DF810
:100F70001010C08B010A8DF811100F48817F8DF879
:100F8000121000200D4908700D480068002803DD8C
:100F900069460C4800F0D0FC04E0094800680028CD
:100FA00000DC03E0054800780028F6D000BF05B05B
:100FB00000BD00008A020020D2020020480000206C
:100FC000400000200064004010B50121054800F0F9
:100FD000C9FA30B10120044908700121014800F02C
:100FE000A5F910BD006400404800002000B585B0A0
:100FF00000208DF808008DF8090008208DF80A00FF
:101000008001009000208DF80B0000218DF80C105D
:101010008DF80D108DF80E1014488089010A8DF896
:101020000F101248017B8DF81010C08B010A8DF84B
:1010300011100E48817F8DF8121000200C490870A5
:101040000C480068002803DD69460B4800F074FC7A
:1010500004E008480068002800DC03E00448007849
:101060000028F6D000BF05B000BD0000AE02002091
:1010700048000020400000200064004000B58BB014
:101080000121022003F01EFC0121480603F02AFC86
:101090000121880603F026FC092205213F4801F0C2
:1010A000EAFB092206213D4801F0E5FB602009909A
:1010B00002208DF8280003208DF8290000208DF8EB
:1010C0002A0009A9354801F08EFB40208DF8200048
:1010D00002208DF8210000208DF8220001208DF8DB
:1010E000230008A803F050FA3F208DF820000220CA
:1010F0008DF8210000208DF8220001208DF82300BA
:1011000008A803F041FA264800F08CF905A800F081
:1011100003FC0320ADF8140000208DF816008DF8B4
:10112000170008208DF8180003208DF81900002002
:101130008DF81A008DF81B008DF81C008DF81D002D
:101140008DF81E0001208DF81F0005A9144800F03D
:10115000A2FA0020ADF80400ADF80600ADF80800D2
:10116000ADF80A00ADF80C000E208DF80E0000203E
:101170008DF80F0001208DF810008DF8110001A8E6
:1011800000F06CF901220221054800F07BFA0122EF
:101190001146034800F076FA0BB000BD000402408F
:1011A0000068004010B50221134800F0DBF910B3CD
:1011B000124A0021104800F0F8FA1048007AB0B93D
:1011C0000E48407A98B90D48807A08280FD132200D
:1011D0000B49086009480068A0F2011028B90748C7
:1011E000C07A40B20749087000E000BF00BF02218A
:1011F000014800F09BF810BD00680040F802002094
:10120000440000206400002000B585B000208DF867
:1012100008008DF8090008208DF80A004FF481704D
:10122000009034488088000A8DF80B00314801791D
:101230008DF80C10C088010A8DF80D102D488179A9
:101240008DF80E100089010A8DF80F102948017AD7
:101250008DF81010817A8DF81110C17A8DF8121066
:101260000020254908706946244800F065FB04E029
:1012700023480068002800DC03E01F4800780028AD
:10128000F6D000BF40F2031000901E4890ED000A17
:10129000BDEEC00A10EE100A000A8DF80B001948C6
:1012A00090ED000ABDEEC00A10EE100AC1B28DF832
:1012B0000C1000218DF80D108DF80E108DF80F1008
:1012C0008DF810108DF811108DF8121000200A49B9
:1012D00008706946094800F02FFB04E008480068E0
:1012E000002800DC03E0044800780028F6D000BFA6
:1012F00005B000BD30030020490000200068004018
:1013000044000020E000002010B50121054800F055
:1013100029F930B10120044908700121014800F089
:1013200005F810BD0068004049000020B1F5007FBD
:101330003AD00FDC202928D006DC01291CD0042952
:101340001DD0082940D11DE0402921D0B1F5807F72
:101350003AD126E0B1F5004F31D006DCB1F5806F0F
:1013600025D0B1F5006F2FD124E0B1F5803F12D028
:10137000B1F5003F28D111E0154A826025E008222E
:10138000C26022E01022C2601FE0082202611CE05D
:101390001022026119E00822426016E01022426029
:1013A00013E00422426010E0042242600DE00422B7
:1013B00042600AE0002282610422426005E00022CD
:1013C00082610422426000E000BF00BF704700005D
:1013D000010101000A7BCB7A42EA032212B2428168
:1013E0008B7B4A7B43EA022212B202800B7CCA7BCF
:1013F00043EA022212B282804A7CC280028972B120
:10140000B0F90A20B0F908309A4205DA428902F5AB
:10141000005212B2428004E04289428001E04289D7
:101420004280704710B504460B48844209D101211F
:10143000480603F067FA00214FF0007003F062FAEB
:1014400008E00121880603F05DFA00214FF080607A
:1014500003F058FA10BD00000064004010B50021F0
:10146000837A012202FA03F13D4A126842F0010236
:101470003B4B1A603A4A1C3212688A43384B1C3381
:101480001A60027BCAB9364A0C3212688A43344B5E
:101490000C331A604288C38842EA0343304A403220
:1014A000847A42F834300288838842EA03432C4A23
:1014B0004032847A02EBC4025360027B012A19D1C4
:1014C000274A0C3212680A43254B0C331A604288B3
:1014D000038842EA0343224A4032847A42F8343095
:1014E000C288838842EA03431D4A4032847A02EB71
:1014F000C4025360C27A3AB9194A121D12688A436B
:10150000174B1B1D1A6006E0154A121D12680A438C
:10151000134B1B1D1A60028932B9114A143212682A
:101520008A430F4B14331A600289012A06D10C4AF0
:10153000143212680A430A4B14331A60427B012AA0
:1015400006D1074A1C3212680A43054B1C331A6045
:10155000034A126822F00102014B1A6010BD00001C
:101560000066004070B504460D46002660692840BC
:10157000002871D0B5F5807F5CD010DC082D35D007
:1015800006DC012D20D0022D24D0042D72D127E0BD
:10159000102D31D0202D35D0402D6BD138E0B5F550
:1015A000004F60D009DCB5F5007F49D0B5F5806FFC
:1015B0004CD0B5F5006F5DD14FE0B5F5803F2DD033
:1015C000B5F5003F56D12FE0A0682D4900F0FEFC94
:1015D000064651E0E068032100F0F8FC06464BE0C7
:1015E000E068082100F0F2FC064645E0E0681021C2
:1015F00000F0ECFC06463FE02069032100F0E6FC29
:10160000064639E02069082100F0E0FC064633E098
:101610002069102100F0DAFC06462DE06068082100
:1016200000F0D4FC064627E06068102100F0CEFCF4
:10163000064621E0A069012100F0C8FC06461BE037
:10164000A069022100F0C2FC064615E0A069042151
:1016500000F0BCFC06460FE00FE0A069702100F02E
:10166000B5FC064608E06068042100F0AFFC0646C1
:1016700002E0FFE7002600BF00E00026304670BD14
:10168000010101001AB143690B43436102E0436960
:101690008B434361704730B5024600200023146835
:1016A00024F002041460146844F00104146000E0A3
:1016B0005B1C546804F001041CB94FF6FF74A3428C
:1016C000F6D1546804F001040CB900206CE08C7968
:1016D000012C04D1146844F08004146003E0146801
:1016E00024F080041460CC79012C04D1146844F0F7
:1016F0004004146003E0146824F0400414600C7A81
:10170000012C04D1146844F02004146003E0146830
:1017100024F0200414604C7A012C04D1146844F0A5
:101720001004146003E0146824F0100414608C7A30
:10173000012C04D1146844F00804146003E0146818
:1017400024F008041460CC7A012C04D1146844F00D
:101750000404146003E0146824F0040414608C781A
:10176000A407CD7844EA05640D7944EA05444D792F
:1017700044EA05540D886D1E2C43D461146824F08E
:1017800001041460002300E05B1C546804F00104B1
:101790001CB14FF6FF74A342F6D1546804F0010463
:1017A0000CB1002000E0012030BD10B500F5D87369
:1017B00003EB01131B6803F004031372137A53B98C
:1017C00000F5D87303EB01131B6840F2FF7404EAC1
:1017D0005353136009E000F5D87303EB01131B6842
:1017E0006FF0604404EAD303536000F5D87303EB51
:1017F00001131B6803F00203537200F5D87303EB67
:1018000001135B6803F00F03937200F5D87303EBC9
:1018100001135B681B0AD37400F5D87303EB011343
:101820009B68D37200F5D87303EB01139B681C0A05
:10183000147300F5D87303EB01139B681C0C5473ED
:1018400000F5D87303EB01139B681B0E937300F52F
:10185000D87303EB0113DB68D37300F5D87303EB84
:101860000113DB681C0A147400F5D87303EB011331
:10187000DB681C0C547400F5D87303EB0113DB68B0
:101880001B0E937421B9C36843F02003C36003E0C7
:10189000036943F02003036110BD00001A49096881
:1018A00061B119490968491E174A1160B0F902105F
:1018B000164A11601146098809B20182B0F9021076
:1018C000B0F91020891AB1F5805F05DB104909686D
:1018D000491E0F4A11600CE0B0F90210B0F9102057
:1018E000891A11F5805F04DC09490968491C084A16
:1018F000116041880182B0F902200549096802EBB4
:101900004131044A11607047540000205800002003
:101910004C0000205000002000218171C171017233
:1019200041728172C1728170C17003210171022103
:10193000417101210180704710B502460020936873
:1019400003F08063B3F1806F00D110E0936803F07F
:101950000063B3F1006F01D1012008E0936803F048
:101960008053B3F1805F01D1022000E004200428FD
:1019700074D002F5C07303EB00131B6803F001047D
:1019800002F5C07303EB00131C600B7A7BB94B7A32
:101990000C8843EA445302F5C07404EB0014246835
:1019A000234302F5C07404EB0014236010E00B7AAB
:1019B0004C6843EAC4034C7A234302F5C07404EB39
:1019C00000142468234302F5C07404EB0014236060
:1019D0008B7A03F00F038B7202F5C07303EB0013D5
:1019E0005B6823F00F0402F5C07303EB00135C6027
:1019F00002F5C07303EB00135B688C7A234302F596
:101A0000C07404EB001463608B7B1C064B7B44EAC0
:101A100003440B7B44EA0323CC7A234302F5C074CE
:101A200004EB0014A3608B7C1C064B7C44EA03444B
:101A30000B7C44EA0323CC7B234302F5C07404EB04
:101A40000014E36002F5C07303EB00131B6843F05E
:101A5000010402F5C07303EB00131C6010BD00000D
:101A600010B54FF40061714800F028FF08B901205B
:101A700000E000206E4908604FF400516B4800F010
:101A80001DFF6C4908606C48006841F27071484362
:101A900000EE100AB8EEC00A684880ED010A6848F6
:101AA000007810B96748007840B1002066490860A6
:101AB000664908604FF4FA70654908600020FEF737
:101AC0005BFC6148006898B9FEF71CFC041E01DB52
:101AD000204600E06042052190FBF1F201FB12007C
:101AE0004FF49671484359490860012056490860EF
:101AF00056480068401E554908600846006800289E
:101B000001DC002008605148006800281DDC5048B6
:101B10000068401E4E4908600846006820B94648E3
:101B200000684042444908604948006800F5FA707E
:101B300058B94148006840423F4908600020424986
:101B400008604FF4FA70424908603948006810B9DB
:101B50000120394908603748006818B94FF0FF3054
:101B600035490860344800683A49096888420FD00E
:101B700031480068012804D14FF4C8703649086024
:101B800006E02D480068401C10B93448324908600E
:101B900031480068002818DA2F480068401C2E4998
:101BA00008602F480068A0F51C50103800EE100A9D
:101BB000B8EEC00AF0EE400A2A4890ED000AB8EEEE
:101BC000C00A294802F026FD2AE0234800680028C0
:101BD00016DD21480068401E1F4908602048006843
:101BE00042F21071084400EE100AF8EEC00A1D48D7
:101BF00090ED000AB8EEC00A1B4802F00BFD0FE0A2
:101C00001548006860B9164890ED000AF8EEC00A61
:101C1000144890ED000AB8EEC00A134802F0FAFC2E
:101C2000054800680B49086010BD00000010024024
:101C3000A4010020A8010020AC010020803F012069
:101C40002004002064000020B8010020B40100201E
:101C5000BC010020B0010020A001002070FEFFFFA9
:101C600058000020500000207405002010B54FF4EB
:101C70000061214800F022FE08B9012000E00020A8
:101C80001E4908604FF400511B4800F017FE1C4924
:101C900008601C4890ED010A1B4880ED010A1748B6
:101CA000006858B9184890ED010AB5EEC00AF1EE87
:101CB00010FA03D29FED150A80ED010A1048006862
:101CC00058B9114890ED010AB5EEC00AF1EE10FACC
:101CD00003DD9FED0E0A80ED010A0D4890ED000A2C
:101CE000F8EEC00A0B4890ED000AB8EEC00A0A48A8
:101CF00002F090FC10BD000000100240A401002082
:101D0000A8010020943F0120803F01200000000036
:101D100058000020500000207405002010B5002459
:101D200023E004EB84013B4A02EB011002F062FD68
:101D300004EB8401374A02EB01100021DFED364A43
:101D40009FED364AF7EE003A9FED353ADFED332A44
:101D50009FED342ADFED321A9FED2F1ADFED320AA4
:101D6000B1EE0C0A02F096FD641C042CD9DB2F485E
:101D700002F040FD0221DFED284A9FED294AF7EEEF
:101D8000003A9FED2B3ADFED262A9FED2A2ADFED60
:101D9000241A9FED291ADFED200A9FED270A234818
:101DA00002F078FD254802F025FD254802F022FDCD
:101DB0000221DFED194A9FED234AF7EE003A9FED2D
:101DC000213ADFED202A9FED1B2ADFED1E1A9FED41
:101DD000121ADFED110AB7EE000A184802F05AFD98
:101DE0000221DFED0D4A9FED174AF7EE003A9FED15
:101DF000153ADFED142A9FED0F2ADFED121A9FED41
:101E0000061ADFED050AB0EE000A0D4802F042FDA9
:101E100010BD0000340400200000000000409C457C
:101E200000007A460000FA43CDCCCC3D9408002057
:101E300000C0DA45000048420000C8427405002096
:101E4000C405002000401C469FED3E2AF0EE421AD9
:101E500030EE602A32EE012ABDEEC22A12EE100ADE
:101E600000B239498881B1EE402A32EE602A32EE62
:101E7000012ABDEEC22A12EE100A01B23248C18117
:101E8000B1EE402A32EE202A32EE012ABDEEC22AFD
:101E900012EE100A01B22C48018230EE202A32EEF6
:101EA000012ABDEEC22A12EE100A01B22648418272
:101EB000002021E0244A0C3232F91010002901DB05
:101EC0000A4600E04A4202EE102AB8EEC22AB4EEF8
:101ED000E12AF1EE10FA0EDD1B4A0C3232F9101035
:101EE000002901DB0A4600E04A4202EE102AB8EE61
:101EF000C22AF0EE421A401C0428DBDB9FED132AB5
:101F0000F4EEC21AF1EE10FA1BDD002017E09FED8F
:101F10000F2AC2EE212A0C490C3131F9101002EEC1
:101F2000101AB8EEC22A22EE822ABDEEC22A12EEA2
:101F3000101A0AB204490C3121F81020401C042860
:101F4000E5DB704700000000803F012000D0044620
:101F500010B54FF40061154800F0B0FC08B901203D
:101F600000E00020124908604FF400510F4800F0D3
:101F7000A5FC104908609FED100A104880ED000A8A
:101F80009FED0D0A80ED010A9FED0B0A80ED020A1C
:101F90000B4890ED000AF8EEC00A0A4890ED000ADE
:101FA000B8EEC00A084802F035FB10BD0010024030
:101FB000A4010020A801002000000000803F0120B3
:101FC0005800002050000020740500200246002028
:101FD00002EA01030BB1012000E00020704700007D
:101FE00010B500F009F84FF44871024803F033FBD4
:101FF00010BD00000000014000B58BB00121084673
:1020000002F090FC0121102002F05CFC0122092169
:10201000224800F030FC4FF40070099002208DF847
:10202000280000208DF82A0003208DF8290009A936
:102030001A4800F0D8FBA720ADF818000020ADF832
:102040001A0044F61F6007900020ADF8200006A992
:10205000134803F003FB4FF4FA6003906020ADF8DF
:1020600004000120ADF806000020ADF8100001A921
:102070000B4803F04FFA0821094803F089FA0121BF
:10208000074803F003FA0121054803F01AFA012179
:10209000034803F00AFA0BB000BD00000010024034
:1020A0000000014010B50949094800F00BF901286A
:1020B00007D10021064800F027F81721044800F056
:1020C0007DF90249024800F005F810BD00800028A3
:1020D000B86402400246094B9A4201D2084801E026
:1020E0000648103801F000531BB1064B0B40C3608B
:1020F00002E0044B0B408360704700001064024014
:10210000006002407D0F7D0F21B1026842F00102A4
:10211000026003E0026822F00102026070470000E2
:10212000016821F0010101600021016041608160CE
:10213000C1600161212141614A49884204D13D21A8
:10214000484A103A91608CE046491831884205D1DE
:102150004FF47461434A103A916082E04149303152
:10216000884205D14FF474113E4A103A916078E0EC
:102170003C494831884205D14FF07461394A103AE0
:1021800091606EE037496031884204D13649354A62
:10219000103AD16065E033497831884204D133493F
:1021A000304A103AD1605CE02E499031884204D127
:1021B0002F492C4A103AD16053E02A49A83188426D
:1021C00005D14FF03D51274A103AD16049E02949E5
:1021D000884204D13D21274A083A116041E025494F
:1021E0001831884205D14FF47461224A083A1160CF
:1021F00037E020493031884205D14FF474111D4A2F
:10220000083A11602DE01B494831884205D14FF052
:102210007461184A083A116023E016496031884217
:1022200004D11149134A121F11601AE01149783183
:10223000884204D10D490F4A121F116011E00D4967
:102240009031884204D10A490A4A121F116008E0FD
:102250000849A831884204D14FF03D51054A121F68
:1022600011607047106002403D000020400F0020C8
:1022700000003D201064024021B1026842F4802237
:10228000026003E0026822F480220260704722B1FB
:10229000036843F40023036003E0036823F400238E
:1022A0000360016170470146486880B2704701468B
:1022B00000200A6802F400220AB1012000E0002098
:1022C0007047000070B50246002000240025124E21
:1022D000B24201D2114B01E00F4B103B104E0E40A9
:1022E00036B11E2606EAD124166806EA040502E085
:1022F000566906F0800501F000560EB15C6800E0FA
:102300001C68084E344004EA010616B10DB10120E4
:1023100000E0002070BD0000106402400060024038
:102320003C0F3C0F7D0F7D0F10B501F080034BB1CA
:1023300022B1436943F08003436103E0436923F022
:102340008003436180290BD02AB1036801F01E0489
:102350002343036004E0036801F01E04A343036009
:1023600010BD000010B500220268134B1A40CC6863
:102370000B6823434C6923438C692343CC69234373
:102380000C6A23434C6A23438C6A23434C6B2343DC
:102390008C6B23431A430260426922F00702D1E9A1
:1023A0000B3423431A4342610B6943604B688360DB
:1023B0008B68C36010BD00003F801CF04160704717
:1023C00064212E4A11600178427841EA0221C1F36A
:1023D0000A01A1F580612A4A11804178C9108278EA
:1023E00041EA4211C1F30A01A1F58061244A5180FA
:1023F00081788911C27841EA8201027941EA822119
:10240000C1F30A01A1F580611D4A9180017949104B
:10241000427941EAC211C1F30A01A1F58061184A6B
:10242000D180017C427C41EA0221C1F30A01A1F57D
:102430008061134A118141790911890891724179AA
:10244000C1F30111D1728179C27941EA022109B245
:102450000B4A9181017A427A41EA02210AB2084983
:102460004A83027B81F82820427B81F82920817BE6
:10247000C27B41EA022202494A857047600000207F
:102480003003002010B500F04DF800F099F800F08E
:1024900001F810BD00B58FB00121480502F012FA15
:1024A0001D48FFF73DFE4FF0006000901B48019073
:1024B0001B480290002003901220049000200590F9
:1024C0004FF4806006900020079008904FF48070D1
:1024D00009904FF440300A9000200B900C900D9022
:1024E0000E9069460C48FFF73DFF00220C4912315F
:1024F0000948FFF7CCFE01210748FFF7BDFE012187
:102500000548FFF701FE012240210448001F03F0A7
:1025100034FA0FB000BD00002860024004480040BB
:102520000C03002000B587B00121042002F0CAF995
:102530000121880402F0D6F907220B211D4800F082
:102540009AF94FF40060059002208DF818000320DE
:102550008DF8190000208DF81A0001208DF81B005D
:1025600005A9144800F03FF9134801900020ADF888
:102570000800ADF80A004FF48060ADF80C000020B0
:10258000ADF810000420ADF80E0001A90B4803F0CF
:102590004DFA1021094803F0DBF9012240F22441F1
:1025A000064803F01DFA0121044803F0DAF907B0E8
:1025B00000BD000000080240A08601000048004065
:1025C00008B527208DF8000001208DF801000020BB
:1025D0008DF8020001208DF80300684601F0D4FF59
:1025E00008BD704710B54FF4807000F00BF84FF441
:1025F000807000F001F810BD0149086070470000CC
:10260000143C014001460020034A12680A400AB106
:10261000012000E000207047143C014001F5805289
:10262000B2F5005F04DBA1F5805212B2028103E033
:1026300001F5805212B202817047000030B10749A3
:10264000096841F48061054A116005E003490968A1
:1026500021F48061014A116070470000003C024093
:1026600070B504460A460026092502B909E0012A88
:1026700001D1160205E0022A01D1160201E04FF451
:10268000407600F09FF80546092D28D115480068CE
:1026900020F4407013490860084600683043086021
:1026A0000846006820F0F80008600846006844F01A
:1026B000020108430B4908600846006840F4803076
:1026C000086000F07FF805460648006820F0020028
:1026D000044908600846006820F0F80008602846B1
:1026E00070BD0000103C024009201349096801F444
:1026F0008031B1F5803F01D101201CE00E4909680D
:1027000001F0100109B1062015E00B49096801F438
:10271000807109B102200EE00749096801F0EF015C
:1027200009B1072007E00449096801F0020109B175
:10273000082000E0092070470C3C02400348006874
:1027400040F000400149086070470000103C024022
:1027500030B502460C46092500F034F80546092D2F
:1027600019D10E48006820F440700C4908600846F2
:10277000006840F4007008600846006840F00100FE
:102780000860146000F01EF805460448006820F058
:10279000010002490860284630BD0000103C02409C
:1027A0000548006800F0004028B1044802490C398F
:1027B0000860034808607047103C024023016745E9
:1027C000AB89EFCD08B509200090FFF78DFF009091
:1027D00002E0FFF789FF00909DF800000128F8D083
:1027E0009DF8000008BDF0B50A4600210023002432
:1027F00000BF3DE0012505FA01F3156805EA030471
:102800009C4234D105684F000326BE40B5430560A5
:1028100015794E00B5400668354305601579012DE0
:1028200002D01579022D16D185684F000326BE40CF
:10283000B543856055794E00B5408668354385605F
:10284000456801268E40B5434560456896798E40BF
:10285000B6B235434560C5684F000326BE40B54358
:10286000C560D5794E00B540C6683543C560491C82
:102870001029BFD3F0BDF0B5002300244D07ED0EA5
:1028800002FA05F3CE1000F1200555F826504E0748
:10289000F70E0F26BE40B543CF1000F1200646F8D4
:1028A0002750CE1000F1200555F8265045EA0304C4
:1028B000CE1000F1200545F82640F0BD024600206C
:1028C00013690B400BB1012000E0002070474183E9
:1028D00070470183704742694A4042617047000077
:1028E00030B5034613B94FF6FF7030BD09E013F859
:1028F000014B82EA0400C0B2054D35F8100080EAB1
:102900002222081EA1F10101F1D11046EDE70000DD
:10291000289F000830B5034605E013F8010B80EA54
:1029200002040448025D081EA1F10105A9B2F4D118
:10293000104630BD279E00080C48807A012802D13D
:1029400002200B4908700948807A032806D10748FD
:10295000C07A032802D10120054908700348807A13
:10296000022802D10020024908707047300300207D
:102970009C0100209FED0D0A0D4880ED000A0D48D6
:10298000B0F9000000EE100AB8EEC00A9FED0A1A76
:10299000C0EE010A9FED090A20EE800A044880ED8E
:1029A000010A9FED020A80ED020A70470000000054
:1029B000943F0120300300200000254400401C46C5
:1029C0002448C07A012827D12248B0F90800B0F580
:1029D000167F02DD0120204908601F480068012899
:1029E0001AD11C48B0F90800642815DA1948B0F962
:1029F0000800002810DD1948007818B9012017498F
:102A0000087006E015480078012802D1002013491B
:102A100008700020104908601148007802280DD184
:102A20001048C07C012809D10E48807C012802D1C1
:102A30000A49087002E00020084908700A48007836
:102A400030B940F2B63009494863002003490870A4
:102A50007047000030030020080200201802002008
:102A6000C4010020200400201002002000000140CA
:102A70001648807A012806D11448C07A012802D16C
:102A8000134908701AE01148807A032807D10F48CB
:102A9000C07A012803D102200D4908700EE00B48CE
:102AA000807A032807D10948C07A032803D102207D
:102AB0000749087002E00320054908700348807A3E
:102AC000022802D10020024908707047300300201C
:102AD000C40100201A48C07A012828D11848B0F94A
:102AE000080010F5167F02DA012016490860154823
:102AF000006801281BD11248B0F9080010F1640FDA
:102B000015DD0F48B0F90800002810DA0E480078EB
:102B100018B901200C49087006E00B48007801281C
:102B200002D10020084908700020064908600448C6
:102B3000807A022802D10020034908707047000003
:102B400030030020040200201002002010B55D4870
:102B5000807A022878D15B48C07A0228FAD1594895
:102B6000B0F9000010F5167F6EDA5648B0F9020091
:102B7000B0F5167F68DD5348B0F90400B0F5167F54
:102B8000F8DD5048B0F90600B0F5167FF2DD64219B
:102B90004FF47A70FDF7E2FF4FF4FA7003F07EFF16
:102BA0006421C800FDF7DAFF4FF4FA7003F076FFF6
:102BB00000214FF44870FDF7D1FF64214FF47A7083
:102BC000FDF7CCFF4FF4FA7003F068FF6421C800F2
:102BD000FDF7C4FF4FF4FA7003F060FF00214FF4DB
:102BE0004870FDF7BBFF04E03748B0F90A003749E9
:102BF00008603448807A0328F6D164214FF47A7053
:102C0000FDF7ACFF4FF4FA7003F048FF00214FF4DA
:102C10007A70FDF7A3FF04E02B48B0F91C002B49A4
:102C200048602848807A0128F6D164214FF47A70F0
:102C3000FDF794FF4FF4FA7003F030FF00214FF4DA
:102C40007A70FDF78BFF05E03BE01F48B0F91C00F0
:102C50001E4988601B48C07A0328F6D164214FF4CE
:102C60007A70FDF77BFF4FF4FA7003F017FF002135
:102C70004FF47A70FDF772FF04E01348B0F91C00BE
:102C80001249C8600F48C07A0128F6D164214FF478
:102C90007A70FDF763FF4FF4FA7003F0FFFE6421D2
:102CA000C800FDF75BFF4FF4FA7003F0F7FE002158
:102CB0004FF44870FDF752FF10220449044802F017
:102CC000BDF810BD300300208A02002080030020E0
:102CD00000F00F0810B51C480021016041608160C0
:102CE000C16010220146194802F094F81648406865
:102CF00048BB1548806830BB1348C06818BB1248F1
:102D0000006800BB64214FF47A70FDF727FF4FF491
:102D1000FA7003F0C3FE6421C800FDF71FFF4FF4F3
:102D2000FA7003F0BBFE64214FF47A70FDF716FFD2
:102D30004FF4FA7003F0B2FE00214FF44870FDF733
:102D40000DFF00BFFEE710BD8003002000F00F085C
:102D500010B5AE480078002868D0AD48B0F914002E
:102D600000EE100AB8EEC00AAA4880ED000AA74893
:102D700090ED020AA748D0ED000A30EE200A80ED5F
:102D8000000A90ED000AA448D0ED000AB4EEE00A73
:102D9000F1EE10FA05DD90ED000A9E4880ED000A84
:102DA0000FE09C4890ED000A9C48D0ED000AB4EE7C
:102DB000E00AF1EE10FA04D290ED000A954880ED99
:102DC000000A9348B0F9020000EE100AB8EEC00AFB
:102DD000934880ED000A8D4890ED010A9048D0EDAF
:102DE000000A30EEC00A80ED000A90ED000A8D481E
:102DF000D0ED000AB4EEE00AF1EE10FA05DD90ED38
:102E0000000A874880ED000A5EE0854890ED000AE0
:102E10008548D0ED000AB4EEE00AF1EE10FA53D284
:102E200090ED000A7E4880ED000A4DE0794890ED73
:102E3000000A7E48D0ED000A30EE200A754880ED89
:102E4000000A90ED000A7448D0ED000AB4EEE00AE2
:102E5000F1EE10FA0ADC6F4890ED000A6F48D0EDF1
:102E6000000AB4EEE00AF1EE10FA06D26F4890EDD7
:102E7000000AB1EE400A80ED000A694890ED000AB0
:102E80006B48D0ED000A30EE200A654880ED000A5C
:102E900090ED000A6348D0ED000AB4EEE00AF1EECE
:102EA00010FA0ADC5E4890ED000A5F48D0ED000A97
:102EB000B4EEE00AF1EE10FA06D25D4890ED000A99
:102EC000B1EE400A80ED000A524890ED000A5248E7
:102ED000D0ED000AB4EEE00AF1EE10FA05DD90ED57
:102EE000000A4C4880ED000A0FE04A4890ED000AC5
:102EF0004A48D0ED000AB4EEE00AF1EE10FA04D22E
:102F000090ED000A434880ED000A454890ED000A24
:102F10004448D0ED000AB4EEE00AF1EE10FA05DD07
:102F200090ED000A3E4880ED000A0FE03C4890ED2D
:102F3000000A3D48D0ED000AB4EEE00AF1EE10FAC6
:102F400004D290ED000A364880ED000A3048B0F90E
:102F5000140000EE900AF8EEE00AB0EE600A2D4888
:102F6000D0ED000A334801F055FB3248503880ED6F
:102F70001D0A90ED1D1AF0EE410A2F48B0F910001D
:102F8000404201EE100AB8EEC11ADFED2C1A21EE14
:102F9000211AB0EE410A2A4801F03CFBBDEEC00AFE
:102FA00010EE100A01B21A48C183B0F9020000EE17
:102FB000900AF8EEE00AB0EE600A1948D0ED000A77
:102FC0001C48503801F026FB1A48503880ED090A99
:102FD00090ED091AF0EE410A1748B0F9120040428C
:102FE00001EE100AB8EEC11ADFED141A21EE211A13
:102FF000B0EE410A1248503801F00CFBBDEEC00A99
:1030000010EE100A00B20249888110BD2004002091
:103010008A020020D4010020D8010020DC01002019
:10302000C8010020CC010020D0010020E0010020D8
:10303000E4010020640600209E030020CDCCCC3D9E
:103040000407002010B56248B0F9060000EE100A2F
:10305000F8EEC00A9FED5F1A80EE810A5E48D0ED5F
:10306000000A30EEC00A80ED000A90ED000A5B48CD
:10307000D0ED000AB4EEE00AF1EE10FA05DD90EDB5
:10308000000A554880ED000A0FE0534890ED000A11
:103090005348D0ED000AB4EEE00AF1EE10FA04D283
:1030A00090ED000A4C4880ED000A4E48B0F914003B
:1030B00000EE900AF8EEE00AB0EE600A4648D0ED65
:1030C000000A494801F0A6FA4748503880ED1D0A29
:1030D00090ED1D1AF0EE410A4448B0F9100040424C
:1030E00001EE100AB8EEC11ADFED411A21EE211AE5
:1030F000B0EE410A3F4801F08DFABDEEC00A10EE75
:10310000100A01B23748C1833148B0F9040000EE1B
:10311000100AB8EEC00A9FED2F1AC0EE010A364819
:1031200090ED000A30EE600A80ED000A90ED000A92
:103130003248D0ED000AB4EEE00AF1EE10FA05DDF7
:1031400090ED000A2C4880ED000A0FE02A4890ED2F
:10315000000A2B48D0ED000AB4EEE00AF1EE10FAB6
:1031600004D290ED000A244880ED000A1D48B0F911
:10317000020000EE900AF8EEE00AB0EE600A1E4887
:10318000D0ED000A1848503801F044FA164850387B
:1031900080ED090A90ED091AF0EE410A1348B0F9E2
:1031A0001200404201EE100AB8EEC11ADFED101A0B
:1031B00021EE211AB0EE410A0E48503801F02AFAE9
:1031C000BDEEC00A10EE100A00B20649888110BD9B
:1031D0003003002000004842D4010020D801002024
:1031E000DC0100208A020020640600209E030020EB
:1031F000CDCCCC3D04070020C8010020CC0100202C
:10320000D001002010B52DED048BFFF79FFC8948FD
:1032100001F0F0FA8748503001F0ECFA864801F0EE
:10322000E9FA8548503001F0E5FA0221DFED834AE2
:103230009FED834AF7EE003A9FED823ADFED802A58
:103240009FED7E2ADFED7F1A9FED7C1ADFED7B0A72
:10325000B0EE000A7748503001F01CFB0221DFED90
:10326000774A9FED774AF7EE003A9FED753ADFED2A
:10327000742A9FED742ADFED721A9FED701ADFED4C
:103280006F0A9FED710A6C48503001F003FB022178
:10329000DFED6A4A9FED6A4AF7EE003A9FED693A20
:1032A000DFED672A9FED692ADFED661A9FED631A4D
:1032B000DFED620AB7EE080A5E4801F0EBFA022180
:1032C000DFED5E4A9FED5E4AF7EE003A9FED5C3A15
:1032D000DFED5F2A9FED5F2ADFED591A9FED571A48
:1032E000F7EE000A9FED5C0A534801F0D3FAFFF7AE
:1032F000F1FC5A48008801B25948FFF78FF9574846
:10330000808801B256481230FFF788F9544AB2F962
:103310001A10524A5068FDF761F900EE100AB8EE33
:10332000C00A504880ED000A4D4AB2F91A104B4AC3
:103330009068FDF753F900EE100AB8EEC00A4A484B
:1033400080ED000A464AB2F91A10444AD068FDF7E7
:1033500045F900EE100AB8EEC00A444880ED000AB4
:10336000414890ED000A4148D0ED000AB4EEE00A71
:10337000F1EE10FA13D23C4890ED000A3B4880ED84
:10338000000A374AB2F91A10344AD068FDF726F914
:1033900000EE100AB8EEC00A334880ED000A304A49
:1033A000B2F908102D4A1068FDF718F900EE100A5E
:1033B000B8EEC00A2E4880ED000A006806F0B8FC9E
:1033C00041EC190B9FED2B0B53EC102B06F0C6FBB9
:1033D00041EC180B05F036FF2849086024480068C6
:1033E00006F0A6FC41EC190B9FED220B53EC102BC1
:1033F00005F05AFF41EC180B05F024FF2049086046
:10340000174AB2F90810154A1068FDF7E7F800B23C
:103410001C490880134890ED000ABDEEC00A10EE6A
:10342000100A00B2184908800A2003F037FBBDECEF
:10343000048B10BD14060020B4060020000000001C
:103440000060EA4600401C460000704200803B4598
:103450000000484300409C450000164380030020C4
:103460008A020020D4010020D8010020DC010020C5
:10347000C8010020000000000000A040D001002092
:10348000CC0100206C0000206E00002010B55A48CE
:10349000B0F9140000EE100AB8EEC00A574880EDEB
:1034A000000A90ED000A5648D0ED000AB4EEE00A9A
:1034B000F1EE10FA05DD90ED000A504880ED000AAB
:1034C0000FE04E4890ED000A4E48D0ED000AB4EEF1
:1034D000E00AF1EE10FA04D290ED000A474880EDC0
:1034E000000A4548B0F9140000EE900AF8EEE00A30
:1034F000B0EE600A4148D0ED000A434801F08AF876
:103500004148503880ED1D0A90ED1D1AF0EE410A39
:103510003E48B0F91000404201EE100AB8EEC11A60
:10352000DFED3B1A21EE211AB0EE410A394801F0D5
:1035300071F8BDEEC00A10EE100A01B22E48C18328
:10354000B0F9020000EE100AB8EEC00A324880ED71
:10355000000A90ED000A3148D0ED000AB4EEE00A0E
:10356000F1EE10FA05DD90ED000A2B4880ED000A1F
:103570000FE0294890ED000A2948D0ED000AB4EE8A
:10358000E00AF1EE10FA04D290ED000A224880ED34
:10359000000A1948B0F9020000EE900AF8EEE00ABD
:1035A000B0EE600A1C48D0ED000A1748503801F010
:1035B00031F81548503880ED090A90ED091AF0EEFF
:1035C000410A1248B0F91200404201EE100AB8EE6A
:1035D000C11ADFED0F1A21EE211AB0EE410A0D4893
:1035E000503801F017F8BDEEC00A10EE100A00B214
:1035F0000149888110BD00008A020020D40100200A
:10360000D8010020DC010020640600209E03002079
:10361000CDCCCC3D04070020C8010020CC01002007
:10362000D001002000200349888100210148C18386
:10363000704700008A02002000BFFEE700B52DEDB4
:10364000108B93B0FE4890ED000AD0ED000A20EEFA
:10365000200A8DED060A90ED000AFA48D0ED000A26
:1036600020EE200AF0EE40CAF54890ED000AF64838
:10367000D0ED000A20EE200AB0EE409AF04890ED1E
:10368000000AF248D0ED000A20EE200A8DED050A6E
:10369000EC4890ED000AD0ED000A20EE200AB0EED2
:1036A00040DA90ED000AE848D0ED000A20EE200A4A
:1036B0008DED040AE34890ED000AE448D0ED000ADD
:1036C00020EE200AF0EE409ADF4890ED000AD0ED9F
:1036D000000A20EE200AB0EE40AA90ED000ADB4876
:1036E000D0ED000A20EE200AF0EE40DA90ED000A5C
:1036F000D0ED000A20EE200AB0EE40EAD44890ED6A
:10370000040AD44880ED000AD14890ED050AD24859
:1037100080ED000ACE4890ED060AD04880ED000A00
:10372000CB48B0F9000000EE100AB8EEC00ACC4851
:1037300080ED000AC648B0F9020000EE100AB8EEAB
:10374000C00AC84880ED000AC148B0F9040000EE84
:10375000100AB8EEC00AC44880ED000ABC48B0F9AF
:10376000060000EE100AB8EEC00AC04880ED000A5C
:10377000B748B0F9080000EE100AB8EEC00ABC481D
:1037800080ED000AB248B0F90A0000EE100AB8EE67
:10379000C00AB84880ED000AB7480068B749086019
:1037A00008460068B6490968401A00EE100AB8EEEB
:1037B000400ADFEDB40A80EE201AF0EE418AAF48ED
:1037C0000068AF490860A648D0ED000A90ED001AE5
:1037D00060EE810AA34890ED001AD0ED001A41EE88
:1037E000210AA14890ED001AD0ED001A41EE210AFD
:1037F000B0EE600A03F024FAB0EE408A984890EDEB
:10380000000A20EE080A80ED000A964890ED000AB2
:1038100020EE080A80ED000A934890ED000A20EEA1
:10382000080A80ED000A9FED980A904880ED000A92
:103830009FED950A8E4880ED000A9FED930A8D4812
:1038400080ED000A894890ED000AF0EE000A20EEB3
:10385000200AF6EE000A70EECA0A70EECE0A20EEDA
:10386000200A8348D0ED000AB0EE001A60EE811AFB
:10387000DDED040A9DED051A70EEC10A01EEA00A05
:103880007C48D0ED000AB0EE001A60EE810A39EEF5
:10389000891A00EE810A8DED110A744890ED000A34
:1038A000F0EE000A20EE201A9DED040ADDED050A77
:1038B00030EE200A21EE000A6D48D0ED000AB0EE8D
:1038C000001A60EE810AB6EE001A31EE4D1A31EEA2
:1038D0004E1A00EE810A6748D0ED000AB0EE001AD9
:1038E00060EE810A3DEEEC1A00EE810A8DED100AC1
:1038F0005E4890ED000AF0EE000A20EE200A79EE14
:10390000C90A20EE200A5A48D0ED000AB0EE001A8B
:1039100060EE810A3DEEAC1A00EE810A5548D0ED0A
:10392000000AB0EE001A60EE810AB6EE001A31EE1F
:103930004D1A31EE4A1A00EE810AF0EE40AA9DEDD2
:10394000110A60EE000A9DED100A40EE000A10EE2A
:10395000901A084606F0ECF9CDE900019DED000B48
:1039600002F04CFD8DED020B9DED020B51EC100BA6
:1039700005F068FC0EEE900AB0EE6AFA39EEC90A5C
:10398000F0EE000A20EE200A8DED0F0A3CEEAD0AA3
:10399000F0EE000A20EE200A8DED0E0A9DED060ADB
:1039A00030EE4D0A30EE4A0A30EE0E0A8DED0D0A69
:1039B000B0EE000A2EEE800AF6EE000A70EECA0A99
:1039C00070EECE0A20EE200AF0EE000A6FEE200A1A
:1039D00039EEC91A00EE810A8DED0C0AB0EE000A2C
:1039E0002EEE801A9DED040ADDED050A30EE600A28
:1039F00021EE000AF0EE000A6FEE200A3CEEAD1A4E
:103A000000EE810A8DED0B0AB0EE000A2EEE800A60
:103A100079EE290A20EE200AF0EE000A6FEE200A65
:103A2000B6EE001A31EE4D1A31EE4A1A00EE810A56
:103A30008DED0A0A0B48D0ED000A9DED0D0A25E038
:103A40007000002074000020780000207C0000201E
:103A5000C00300208C000020900000209400002073
:103A6000980000209C000020A0000020A40000205E
:103A7000A8000020AC000020F4000020B4000020CA
:103A8000B00000200000FA440000000020EE800A90
:103A9000B54890ED001ADDED0E0A01EE600AB3485C
:103AA00090ED001ADDED0A0A21EE201AB048D0EDA3
:103AB000001ADDED0B0A01EEE01A30EE010AF0EE1D
:103AC00040FAA948D0ED000A9DED0F0A60EE800A89
:103AD000A84890ED001A9DED0D0A41EE400AA44859
:103AE00090ED001A9DED0C0A21EE001AA248D0EDCF
:103AF000001A9DED0A0A01EEC01A30EE810A8DED22
:103B0000090A9C48D0ED000A9DED0E0A20EE800ABD
:103B10009A4890ED001ADDED0F0A01EE600A964812
:103B200090ED001ADDED0B0A21EE201A8F48D0ED42
:103B3000001ADDED0C0A01EEE01A30EE010A8DEDFF
:103B4000080AF5EEC0FAF1EE10FA63D09DED090A0D
:103B5000B5EEC00AF1EE10FA5CD09DED080AB5EEA4
:103B6000C00AF1EE10FA55D09FED850A6FEE800A7B
:103B7000844890ED000A00EEA80A80ED000A9DED51
:103B8000090ADFED7F0A60EE200A7F4890ED000A07
:103B900000EEA80A80ED000A9DED080ADFED780A24
:103BA00060EE200A794890ED000A00EEA80A80ED48
:103BB000000A774890ED000AF0EE000A00EEAF0A26
:103BC0007048D0ED000A30EE200A714880ED000AFE
:103BD0007048D0ED000A9DED090AB0EE001A41EEE2
:103BE000000A694890ED000A30EE800A694880EDCD
:103BF000000A6948D0ED000A9DED080AB0EE001AEF
:103C000041EE000A614890ED000A30EE800A6248F9
:103C100080ED000A614890ED000AB1EE400A5C4870
:103C2000D0ED000A20EE200A5D48D0ED000A594888
:103C300090ED001A00EEC10A5A4890ED001A56485D
:103C4000D0ED001AF0EE400A41EE610A564890EDC0
:103C5000000A00EEA80A8DED070A90ED000A4C4814
:103C6000D0ED000A20EE200A4D48D0ED000A4A4867
:103C700090ED001A00EE810A4A48D0ED000A45484E
:103C800090ED001A00EEC10A4448D0ED000AB0EEF3
:103C900060BA00EE28BA444890ED000A3D48D0EDE5
:103CA000000A20EE200A3D48D0ED000A3A4890ED87
:103CB000001A00EEC10A3B48D0ED000A344890EDEE
:103CC000001A00EE810A3648D0ED000AF0EE60BA24
:103CD00040EE28BA344890ED000A2F48D0ED000A93
:103CE00020EE200A2D48D0ED000A2A4890ED001A57
:103CF00000EE810A2A48D0ED000A254890ED001A0E
:103D000000EEC10A2748D0ED000AB0EE60CA00EE0E
:103D100028CADDED070A60EEA00A4BEE0B0A4BEE57
:103D2000AB0A4CEE0C0AB0EE600A02F089FFB0EE6E
:103D3000408A9DED070A20EE080A1B4880ED000A24
:103D40002BEE080A154880ED000A2BEE880A14486D
:103D500080ED000A2CEE080A124880ED000A13B02C
:103D6000BDEC108B00BD0000A0000020A8000020CA
:103D7000AC00002098000020A40000209C0000203F
:103D80000AD7233C80000020840000208800002007
:103D90008C0000209000002094000020740000207F
:103DA000780000207C0000207000002010B52DED70
:103DB000088B794890ED000AF8EE000A20EE200A00
:103DC000D0ED000A20EE200A7448D0ED000AB0EED3
:103DD000001A60EE810A90ED001A00EEC10AF7EEBB
:103DE000000A30EE200A10EE101A084605F0A0FF77
:103DF00041EC1A0B694890ED000AF0EE000A20EE43
:103E0000200A6748D0ED000A20EE200A6548D0ED70
:103E1000000AB0EE001A60EE810A5F4890ED001AC9
:103E200000EE810A10EE101A084605F081FF41EC01
:103E30001B0BB0EE4A1AF0EE6A1AB0EE4B0AF0EE27
:103E40006B0A02F0D1F9B0EE409AF0EE609A9FED65
:103E5000560B53EC102B51EC190B05F0A9FC41EC5F
:103E6000180B05F0EFF9524988624B4890ED000AB3
:103E7000F8EE000A20EE200A4948D0ED000A20EEB4
:103E8000200A4848D0ED000AB0EE001A60EE810A20
:103E9000424890ED001A00EE810A10EE101A084612
:103EA00005F046FF41EC1A0BB0EE4A0AF0EE6A0A42
:103EB00001F07EFEB0EE409AF0EE609A9FED3A0B74
:103EC00053EC102B51EC190B05F072FC41EC180B64
:103ED00005F0B8F93649C862304890ED000AF8EEAE
:103EE000000A20EE200AD0ED000A20EE200A2C481D
:103EF000D0ED000AB0EE001A60EE810A90ED001AD3
:103F000000EEC10AF7EE000A30EE200A10EE101A99
:103F1000084605F00DFF41EC1A0B1F4890ED000A12
:103F2000F0EE000A20EE200A1C48D0ED000A20EE38
:103F3000200A1C48D0ED000AB0EE001A60EE810A9B
:103F4000174890ED001A00EE810A10EE101A08468C
:103F500005F0EEFE41EC1B0BB0EE4A1AF0EE6A1AC9
:103F6000B0EE4B0AF0EE6B0A02F03EF9B0EE409A6A
:103F7000F0EE609A9FED0C0B53EC102B51EC190BEB
:103F800005F016FC41EC180B05F05CF908490863D4
:103F9000BDEC088B10BD00007400002078000020EC
:103FA0007C000020700000206666666666A64C40B5
:103FB000C00300201CB50121102000F083FC4FF449
:103FC0002050009000208DF8040001208DF807009B
:103FD00003208DF8050069460148FEF704FC1CBD6E
:103FE000001002401CB50121802000F06BFC4FF452
:103FF000E050009001208DF8040000208DF80600AC
:1040000003208DF8050069460448FEF7ECFB4FF4E9
:10401000E0510248FEF75BFC1CBD0000001C0240A2
:1040200010B54FF400610248FEF755FC10BD0000CA
:10403000001C02401CB50121042000F043FC4FF499
:104040008070009001208DF8040000208DF806009B
:1040500003208DF8050069460548FEF7C4FB4FF4C0
:1040600080710348FEF735FCFFF7A4FF1CBD00007C
:104070000008024000BFFEE7704700000178C278E8
:10408000114442791144FF2291FBF2F302FB131118
:10409000427A914232D101781F2901D1012100E0F9
:1040A00000211D4A91744178827841EA022109B2C7
:1040B00000EE101AB8EEC00A174981ED010AC17866
:1040C000027941EA022109B200EE101AB8EEC00AE4
:1040D000114981ED020A817949B20F4A1170417983
:1040E000D17411460978A9B99FED0C0A114681EDEA
:1040F000010A9FED0A0A81ED020A0BE00021064A3F
:1041000011709FED060A114681ED010A9FED030A29
:1041100081ED020A7047000020040020000000002A
:1041200010B500F0B3F900F00FFA00F037F910BD48
:1041300010B58A48B0F902008949B1F90010401A57
:1041400000EE100AB8EEC00A9FED861AC0EE010A12
:104150009FED850A20EE800AF2EE040A20EE200A86
:10416000824880ED000A7D48B0F914008049B1F919
:104170000010401A00EE100AB8EEC00ADFED790A0E
:1041800080EE201A9FED780A21EE000AF2EE040A72
:1041900020EE200A774880ED000A7048B0F9000050
:1041A00000EE100AB8EEC00ADFED730A60EE200AD6
:1041B0009FED721A80EE810AF2EE040A20EE200AC8
:1041C0006F4880ED000A6548B0F9120000EE100A51
:1041D000B8EEC00ADFED680A20EE200ADFED670ABC
:1041E00080EE201AB2EE040A21EE000A654880ED46
:1041F000000A6548B0F9000000EE100AB8EEC00AE7
:10420000DFED620A20EE200A614880ED000A7A2084
:1042100060490870554890ED000ABDEEC00A10EEE6
:10422000100A01B2002002F0DFF95A4988704F48A5
:1042300090ED000ABDEEC00A10EE100A01B2012096
:1042400002F0D2F95349C870484890ED000ABDEE1B
:10425000C00A10EE100A01B2022002F0C5F94D4961
:104260000871424890ED000ABDEEC00A10EE100A37
:1042700001B2032002F0B8F946494871414890ED77
:10428000000ABDEEC00A10EE100A01B2002003F0D1
:10429000A9FB404988713B4890ED000ABDEEC00A79
:1042A00010EE100A01B2012003F09CFB3949C871DD
:1042B000334890ED000ABDEEC00A10EE100A01B2BC
:1042C000002003F08FFB334908722D4890ED000A5F
:1042D000BDEEC00A10EE100A01B2012003F082FB0D
:1042E0002C4948722A4890ED000ABDEEC00A10EE33
:1042F000100A01B2002003F075FB26498873244898
:1043000090ED000ABDEEC00A10EE100A01B20120C5
:1043100003F068FB1F49C873164890ED000ABDEE14
:10432000C00A10EE100A01B2002003F05BFB19492D
:104330008874104890ED000ABDEEC00A10EE100A15
:1043400001B2012003F04EFB1249C8747B2088752E
:1043500001211148FDF7D8FE10BD00008A0200209F
:104360006C0000200000004600003443D000002014
:104370006E000020D40000200000B4430000704212
:10438000D8000020DC0000203002002006A5533EAB
:10439000E000002008040020B864024000B58FB09F
:1043A0000121880500F08EFA4FF00060009033483C
:1043B000019033480290002003900A2004900020CE
:1043C00005904FF4806006900020079008904FF40D
:1043D000807009904FF440300A9000200B900C90B0
:1043E0000D900E9069462748FDF7BCFF0022244936
:1043F0000A312448FDF74BFF01212248FDF73CFF1D
:10440000012240211D48001F01F0B7FA01211D487B
:10441000FDF77AFE4FF000600090184801901A48AE
:1044200002904020039017200490002005904FF444
:104430008060069000200790089009904FF440306B
:104440000A9000200B900C900D900E9069460D483C
:104450007830FDF787FF012280210848001F01F016
:104460008CFA0122102107487830FDF75DFF012109
:1044700004487830FDF748FE0FB000BD041001403D
:10448000F4030020406402400804002000B587B017
:104490000121084600F016FA0121102000F042FA2E
:1044A000072209212548FEF7E6F90722114624488C
:1044B000FEF7E1F94FF40070059002208DF8180026
:1044C00003208DF8190000208DF81A0005A91B485B
:1044D000FEF789F98020059002208DF8180003204E
:1044E0008DF8190000208DF81A0005A91448FEF770
:1044F0007AF94FF4E13001900020ADF80800ADF8F2
:104500000A00ADF80C000C20ADF80E000020ADF84C
:10451000100001A90B4801F089FA1021094801F0A7
:1045200017FA012240F22441064801F059FA01210C
:10453000044801F016FA07B000BD00000000024078
:10454000000402400010014008B525208DF800004D
:1045500001208DF8010000208DF8020001208DF867
:104560000300684600F010F846208DF80000012096
:104570008DF8010000208DF8020001208DF8030065
:10458000684600F001F808BD70B5002100230F2235
:10459000C4781CB3174C246804F4E064C4F5E064E8
:1045A000C4F30721C1F10404E3B20A4144789C40FA
:1045B000E1B28478144021430C07210E0E4C05789B
:1045C0006155047804F01F050124AC4005786D1195
:1045D000AD0005F1E025C5F8004109E0047804F0DC
:1045E0001F050124AC40054D0678761145F826409C
:1045F00070BD00000CED00E000E400E080E100E0B0
:1046000002490143024A1160704700000000FA05A8
:104610000CED00E010B52DED088B0446B0EE408A9D
:10462000F0EE608A94ED110AC8EE000AB0EE608ADE
:10463000C4ED108A38EEC80A84ED030A94ED050A29
:1046400010EE101A084605F073FB41EC190B94EDBF
:10465000030A10EE101A084605F06AFB41EC1B0B2A
:10466000B0EE4B0AF0EE6B0A01F0BEFEB0EE40AACF
:10467000F0EE60AA53EC192B51EC1A0B05F05CF824
:1046800003D29FED5B0A84ED030A94ED000AD4ED9A
:10469000030A20EE200A84ED060A94ED060AD4ED02
:1046A0000B0AB4EEE00AF1EE10FA03DD94ED0B0A0A
:1046B00084ED060A94ED060AD4ED0B0AF1EE600AC9
:1046C000B4EEE00AF1EE10FA05D294ED0B0AB1EE69
:1046D000400A84ED060A94ED070AD4ED010A94ED30
:1046E000031A00EE810A84ED070A94ED070AD4ED5F
:1046F0000C0AB4EEE00AF1EE10FA03DD94ED0C0AB8
:1047000084ED070A94ED070AD4ED0C0AF1EE600A75
:10471000B4EEE00AF1EE10FA05D294ED0C0AB1EE17
:10472000400A84ED070A94ED030AD4ED040A30EE42
:10473000600AD4ED020A20EE200A84ED080A94ED06
:10474000080AD4ED0D0AB4EEE00AF1EE10FA03DD2A
:1047500094ED0D0A84ED080A94ED080AD4ED0D0AD3
:10476000F1EE600AB4EEE00AF1EE10FA05D294ED33
:104770000D0AB1EE400A84ED080A94ED060AD4ED64
:10478000070A30EE200AD4ED080A30EE200AD4EDF4
:104790000A0A30EE200A84ED090A94ED090AD4EDE4
:1047A0000E0AB4EEE00AF1EE10FA03DD94ED0E0A03
:1047B00084ED090A94ED090AD4ED0E0AF1EE600ABF
:1047C000B4EEE00AF1EE10FA05D294ED0E0AB1EE65
:1047D000400A84ED090A94ED090A84ED0F0A94ED6C
:1047E000030A84ED040A94ED090ABDEC088B10BDA0
:1047F000000000009FED260A80ED000A9FED240ACC
:1048000080ED010A9FED220A80ED020A9FED200A49
:1048100080ED030A9FED1E0A80ED040A9FED1C0A3D
:1048200080ED050A9FED1A0A80ED060A9FED180A31
:1048300080ED070A9FED160A80ED080A9FED140A25
:1048400080ED090A9FED120A80ED0A0A9FED100A19
:1048500080ED0B0A9FED0E0A80ED0C0A9FED0C0A0D
:1048600080ED0D0A9FED0A0A80ED0E0A9FED080A01
:1048700080ED0F0A9FED060A80ED100AB7EE000AE0
:1048800080ED110A9FED020A80ED120A70470000C8
:104890000000000080ED000AC0ED010A80ED021A60
:1048A000C0ED0B1A80ED0C2AC0ED0D2A80ED0E3AFA
:1048B000C0ED054AC0ED113A80ED124A80F84C1067
:1048C0007047000029B1064A12680243044B1A607F
:1048D00004E0034A12688243014B1A6070470000EB
:1048E0003038024029B1064A12680243044B1A606C
:1048F00004E0034A12688243014B1A6070470000CB
:104900004038024029B1064A12680243044B1A603B
:1049100004E0034A12688243014B1A6070470000AA
:104920002038024029B1064A12680243044B1A603B
:1049300004E0034A12688243014B1A60704700008A
:104940004438024029B1064A12680243044B1A60F7
:1049500004E0034A12688243014B1A60704700006A
:1049600024380240F0B50021002200240225002650
:104970000223324F3F6807F00C0121B1042905D012
:10498000082937D105E02E4F076036E02D4F07602C
:1049900033E02A4F3F1F3F68C7F38056274F3F1F22
:1049A0003F6807F03F036EB1264FB7FBF3F7DFF820
:1049B0008CC0ACF1040CDCF800C0CCF3881C07FB05
:1049C0000CF40CE01E4FB7FBF3F7DFF870C0ACF14E
:1049D000040CDCF800C0CCF3881C07FB0CF4174F68
:1049E0003F1F3F68C7F301477F1C7D00B4FBF5F70D
:1049F000076002E0124F076000BF00BF0F4F3F6823
:104A000007F0F0010909104F7A5C0768D74047604A
:104A10000A4F3F6807F4E051890A0B4F7A5C4768F8
:104A2000D7408760054F3F6807F46041490B064F48
:104A30007A5C4768D740C760F0BD00000838024084
:104A40000024F400001BB7000801002000B5024656
:104A5000501D01F0CFFDA0F2012008287ED2DFE832
:104A600000F0045295809595848ED079494908705C
:104A7000107A487002F1090001F0BCFD45494880F8
:104A800002F10B0001F0B6FD4249888002F10D00F1
:104A900001F0B0FD3F49C88002F10F0001F0AAFD0E
:104AA0003C49088102F1110001F0A4FD3949488117
:104AB00002F1130001F09EFD3649888102F11500D4
:104AC00001F098FD3349C88102F1170001F092FD11
:104AD0003049088202F1190001F08CFD2D4948820D
:104AE00002F11B0001F086FD2A49888202F11D00B7
:104AF00001F080FD2749C88202F11F0001F07AFD14
:104B00002449088343E0D01D01F074FD2249088048
:104B100002F1090001F06EFD1F49488002F10B000F
:104B200001F073FD10EE100A1B49486002F10F00FE
:104B300001F060FD1849088102F1110001F05AFDF1
:104B40001549488102F1130001F054FD1249888192
:104B500002F1150001F04EFD0F4900E016E0C8819A
:104B600015E0D0790D49087011E002F10A0001F05A
:104B70004CFD10EE100A0A49C1F8030007E002F1EB
:104B8000090001F037FD0749488000E000BF00BF81
:104B900000BD0000241200203F120020E40000208D
:104BA000E5000020EC00002010B500F04DF800F00A
:104BB00099F800F001F810BD00B58FB0012188050B
:104BC000FFF780FE4FF0206000901B4801901B48CB
:104BD0000290002003904FF4806004900020059024
:104BE0004FF4806006900020079008904FF480708A
:104BF00009904FF440300A9004200B9003200C9051
:104C000000200D900E9069460D48FDF7ABFB002289
:104C10000C490B48FDF73BFB01210948FDF72CFB34
:104C2000012240210448001F00F0A7FE0121044892
:104C3000FDF76AFA0FB000BD04140140240A0020F9
:104C400028640240240E002000B587B001214020D6
:104C5000FFF738FE01212020FFF764FE082209211A
:104C60001E48FDF708FE08220E211C48FDF703FE32
:104C70004FF48440059002208DF8180003208DF831
:104C8000190000208DF81A0001208DF81B0005A9DD
:104C90001248FDF7A8FD4FF4E13001900020ADF877
:104CA0000800ADF80A00ADF80C00ADF810000C20BB
:104CB000ADF80E0001A90A4800F0B8FE102108481E
:104CC00000F046FE012240F22441054800F088FE33
:104CD0000121034800F045FE07B000BD0018024066
:104CE0000014014008B547208DF8000000208DF821
:104CF00001008DF8020001208DF803006846FFF7DF
:104D000043FC08BD21B1028842F04002028004E069
:104D100002884FF6BF731A40028070470246002097
:104D200013890B400BB1012000E0002070470146C1
:104D3000888970478181704710B50022028802F48B
:104D400041520B884C8823438C882343CC882343CF
:104D50000C8923434C8923438C892343CC892343E7
:104D60001A430280838B4FF2FF74234083830B8AA4
:104D7000038210BD01461C48814201D200207047C9
:104D80001A48814201D20820F9E71948814201D22C
:104D90001020F4E71748814201D21820EFE71648A7
:104DA000814201D22020EAE71448814201D2282022
:104DB000E5E71348814201D23020E0E71148814203
:104DC00001D23820DBE71048814201D24020D6E7EB
:104DD0000E48814201D24820D1E70D48814201D2DC
:104DE0005020CCE75820CAE70040000800800008A7
:104DF00000C00008000001080000020800000408CC
:104E0000000006080000080800000A0800000C085E
:104E100000000E0830B503460C461546002206E099
:104E2000184600F007F844F822001B1D521CAA4245
:104E3000F6D330BD01460868704700002DE9F04701
:104E400004460E4617464FF009080025A946B4F15E
:104E5000006F02D304F0030008B1BDE8F087FDF74E
:104E60009FFC0020FDF7EAFB254604EB8709184864
:104E7000854215D211E02846FFF7DCFF401C58B1EF
:104E80002846FFF777FF82460221FDF7E9FB8046BF
:104E9000B8F1090F01D002E02D1D4D45EBD300BF45
:104EA000B8F1090F0CD108E020463168FDF750FC3D
:104EB000092800D003E0241D361D4C45F4D300BF63
:104EC0000120FDF7BBFBFDF739FC00BFC5E7000083
:104ED0000000FF1F0CB500200190009034480068CE
:104EE00040F480303249086000BF3148006800F467
:104EF000003000900198401C0190009818B901986A
:104F0000B0F5A04FF1D12A48006800F4003010B18C
:104F10000120009001E0002000900098012846D177
:104F200023484030006840F08050214940310860FB
:104F30002048006840F440401E4908601C48083082
:104F400000681B49083108600846006840F40040CA
:104F500008600846006840F4A05008601648091F21
:104F60000860081F006840F08070091F086000BFDB
:104F70000F48006800F000700028F9D040F205707A
:104F80000E4908600A480830006820F0030008490C
:104F9000083108600846006840F00200086000BF61
:104FA00003480830006800F00C000828F8D10CBD58
:104FB00000380240007000400C544007003C0240A2
:104FC00010B53848FFF716FC36485030FFF712FC92
:104FD0003548FFF70FFC34485030FFF70BFC022137
:104FE000DFED324A9FED324AF7EE003A9FED303A5C
:104FF000DFED2F2A9FED2F2ADFED2D1A9FED2B1AC3
:10500000DFED2A0AB2EE040A2648FFF743FC02212C
:10501000DFED264A9FED264AF7EE003A9FED243A4F
:10502000DFED232A9FED232ADFED211A9FED1F1AC2
:10503000DFED1E0AB2EE040A1A485030FFF72AFCD0
:105040000221DFED1A4A9FED1A4AF7EE003A9FED72
:10505000183ADFED172A9FED172ADFED151A9FED9D
:10506000131ADFED120AB2EE040A0F48FFF712FC22
:105070000221DFED0E4A9FED0E4AF7EE003A9FED5A
:105080000C3ADFED0B2A9FED0B2ADFED091A9FED9D
:10509000071ADFED060AB2EE040A03485030FFF7A4
:1050A000F9FB10BDE4080020840900200000000086
:1050B00000007A460000484210B53648007838B9FA
:1050C00040F2B6303449086000203449086007E0F7
:1050D0004FF448703049086041F288302F49086029
:1050E000FBF794FD2C4800682D4948632D48B0F922
:1050F000120000EE900AF8EEE00AB0EE600A2748CF
:10510000D0ED000AF8EEE00A2748FFF783FABDEE7B
:10511000C00A10EE100A01B22248C1832348B0F938
:10512000000000EE900AF8EEE00AB0EE600A2048B7
:10513000D0ED000AF8EEE00A1E48FFF76BFABDEE6C
:10514000C00A10EE100A00B2184988810846B0F96A
:10515000120000EE900AF8EEE00AB0EE600A144881
:105160000068404200EE900AF8EEE00A1148503024
:10517000FFF750FABDEEC00A10EE100A01B20B485C
:10518000C1830D48807A022802D100210548C183DD
:1051900010BD000018020020200200201C02002088
:1051A00000000140D2020020D4090020AE020020FD
:1051B00024020020E4080020300300200748C189B1
:1051C000074880891E30814203DA00200549487370
:1051D00002E00120034948737047000024120020B8
:1051E0003F1200206A03002010B52048B0F91200D9
:1051F00000EE900AF8EEE00AB0EE600ADFED1C0A5D
:105200001C48FFF707FABDEEC00A10EE100A01B203
:105210001648C1831848B0F9000000EE900AF8EE75
:10522000E00AB0EE600ADFED120A1448FFF7F2F967
:10523000BDEEC00A10EE100A00B20F498881084680
:10524000B0F9120000EE900AF8EEE00AB0EE600A43
:10525000DFED070A09485030FFF7DCF9BDEEC00A60
:1052600010EE100A01B20448C18310BDD202002022
:1052700000000000D4090020AE020020E408002055
:10528000042808D14FF0E021096941F004014FF0F2
:10529000E022116107E04FF0E021096921F00401EB
:1052A0004FF0E0221161704710B503F00DFD0128A9
:1052B00001D003F0CFF910BD10B51548006840F4D7
:1052C0007000134908601348006840F0010011495C
:1052D000086000200F49083108600E4800680E4938
:1052E00008400C4908600D48091D0860081F006847
:1052F00020F48020091F0860002006490C31086056
:10530000FFF7E8FD4FF0006001498039086010BDEB
:1053100088ED00E000380240FFFFF6FE1030002468
:1053200010B52DED048B0121364800F0D9F8012885
:1053300065D135480068401C334908603348B0F9EE
:10534000120000EE100AB8EEC00AF0EE000A20EEDD
:10535000200ABDEEC00A2E4880ED000A2D4890EDCF
:10536000000A2B48D0ED000AF8EEE00A9FED2A1A59
:1053700000EE810A274880ED000A90ED000A2748D8
:1053800080ED000A234890ED000ADFED250AB4EE17
:10539000E00AF1EE10FA12D22048006804F0C8FCCE
:1053A00041EC190B9FED1F0B53EC102B03F07CFF0E
:1053B00041EC180B03F046FF184908601BE0154844
:1053C00090ED000ADFED190AB4EEE00AF1EE10FAF2
:1053D00011DD1248006804F0ABFC41EC190B9FEDA5
:1053E000110B53EC102B04F0B9FB41EC180B03F03C
:1053F00029FF0A4908600121024800F053F8BDEC7A
:10540000048B10BD00100040F40000209E0300201B
:10541000FC000020F800002082A8FB3700010020DB
:10542000000034C3000000000080764000003443D8
:105430001FB5044601211020FFF754FA02945320AF
:10544000ADF804000020ADF80600ADF80C0001A98D
:105450000D4800F003F936208DF8000000208DF88B
:1054600001008DF8020001208DF803006846FFF767
:105470008BF801221146044800F043F8012102484C
:1054800000F013F81FBD00000010004021B1028899
:1054900042F08002028004E002884FF67F731A40D7
:1054A00002807047CA430282704721B1028842F0ED
:1054B0000102028004E002884FF6FE731A40028067
:1054C000704731B1B0F8442042F40042A0F84420C3
:1054D00005E0B0F84420C2F30E02A0F84420704763
:1054E00030B50246002000230024158A05EA010396
:1054F000958905EA010413B10CB1012000E00020F8
:1055000030BD1AB183890B43838102E083898B43C9
:105510008381704770B5002400220023058C4FF66C
:10552000FE7635400584028C8388048B4FF68F7598
:105530002C40B51E2C400D882C43751E2A408D89A9
:105540002A434D882A43104DA84202D00F4DA8424D
:1055500013D14FF6F7752A40CD892A434FF6FB75D4
:105560002A408D882A434FF6FF652B404FF6FF55A2
:105570002B400D8A2B434D8A2B43838004838D68F7
:105580004563028470BD000000000140000401403A
:105590000A460021018B4FF6F7731940114301832E
:1055A0007047000070B5002400220023058C4FF6E0
:1055B000FF6635400584028C8388848B4FF68F7597
:1055C0002C404FF6FC752C400D882C434FF6FF55B0
:1055D0002A408D894FF6FF7606EA05252A434D8835
:1055E00006EA05252A43154DA84202D0144DA842CB
:1055F0001DD14FF2FF752A40CD894FF6FF7606EA9E
:1056000005252A434FF6FF352A408D8806EA0525F1
:105610002A434EF6FF752B404DF6FF752B400D8A41
:1056200006EA05152B434D8A06EA05152B438380B0
:1056300084838D68C563028470BD00000000014052
:10564000000401400A460021818B4FF6F773194090
:105650001143818370474163704700000022028834
:10566000184B98420ED0184B98420BD0B0F1804F97
:1056700008D0164B984205D0154B984202D0154BD6
:10568000984204D14FF68F731A404B881A43124B3D
:10569000984207D0114B984204D04FF6FF431A406E
:1056A0000B891A4302804B68C3620B880385054B44
:1056B000984202D0044B984201D18B7A0386012391
:1056C0008382704700000140000401400004004054
:1056D00000080040000C0040001000400014004092
:1056E00010B502F0DFF910BD10B540F224411D489D
:1056F00000F04CF9002834D000241A4800F000FAD9
:105700001948FCF7D4FDA8B900211748FCF7FCFCA8
:105710001548FCF7C8FD04460A211348FCF74EFE65
:1057200001211148FCF7F0FC0A2C19D10F48FEF7B3
:10573000A5FC15E000210C48FCF7E6FC0A48FCF744
:10574000B2FD04460A210848FCF738FE012106484C
:10575000FCF7DAFC0A2C03D104480A38FEF78EFC69
:1057600000BF10BD0010014040640240FE03002055
:1057700010B540F224411D4800F008F9002834D04B
:1057800000241A4800F0BCF91948FCF790FDA8B9AC
:1057900000211748FCF7B8FC1548FCF784FD0446C7
:1057A00012211348FCF70AFE01211148FCF7ACFC5A
:1057B000122C19D10F48FCF703FE15E000210C480C
:1057C000FCF7A2FC0A48FCF76EFD044612210848CB
:1057D000FCF7F4FD01210648FCF796FC122C03D1DE
:1057E00004481238FCF7ECFD00BF10BD0048004033
:1057F000286002401E03002070B540F22441514849
:1058000000F0C4F800287DD0002400254D48008811
:105810004C48001D008800214B48FCF775FC4A48A5
:10582000FCF745FD002844D100BF25E0474901EBC6
:1058300084214819052100F08BF901281AD1434829
:1058400000EB8421681C085C0930404901EB84228C
:10585000A91C515C40EA01263C4901EB842148190E
:10586000314600F055F928B1384901EB8421481937
:10587000FFF7ECF8A81985B2344800EB8420405DAE
:10588000A528D3D0314901EB84204FF48061FAF789
:10589000DEFD4FF480612C48FCF790FD2A4800683B
:1058A00040F400202849086001212748FCF72CFC1F
:1058B00045E0012425E0254901EB84214819052113
:1058C00000F046F901281AD1204800EB8421681C19
:1058D000085C09301D4901EB8422A91C515C40EA97
:1058E00001261A4901EB84214819314600F010F9CC
:1058F00028B1164901EB84214819FFF7A7F8A81928
:1059000085B200E01CE0114800EB8420405DA52832
:10591000D1D00E4901EB84204FF48061FAF797FD56
:105920004FF480610848FCF749FD0748006820F4FF
:1059300000200549086001210348FCF7E5FB00BF92
:1059400070BD00000014014028640240240A0020B9
:1059500001F40072B2F5007F00D100BFCA4302809B
:10596000704721B1828942F40052828104E0828929
:105970004DF6FF731A40828170471AB1838A0B4338
:10598000838202E0838A8B438382704770B502462C
:10599000002400230025002040F66A16B14200D101
:1059A00000BFC1F3421501F01F03012606FA03F3FD
:1059B000012D02D19689334006E0022D02D1168ACC
:1059C000334001E0968A33400C12012606FA04F4B3
:1059D0001688344013B10CB1012000E0002070BDE6
:1059E000F0B50346002400260025002040F66A1783
:1059F000B94200D100BF1846C1F3421401F01F069E
:105A0000012707FA06F5012C01D10C3004E0022C25
:105A100001D1103000E014301AB107682F4307603D
:105A200002E00768AF430760F0BD00002DE9FF47C3
:105A300005460E460024A14600BFA046B08900B12D
:105A400000BF2C8A24F44054F08804432C82AC8993
:105A500041F20C608443B08831890843718908435E
:105A60000443AC81AC8A24F44074B0890443AC8212
:105A70006846FEF777FF2048854202D01F488542DE
:105A800002D1DDF80C9001E0DDF80890A88900F45F
:105A9000004040B109EBC90000EB09103168490032
:105AA000B0FBF1F707E009EBC90000EB0910316822
:105AB0008900B0FBF1F76420B7FBF0F00401200986
:105AC000642101FB1078A88900F4004040B1322025
:105AD00000EBC800B0FBF1F000F00700044308E061
