:020000040800F2
:10000000E846012059030008B53F0008753500088F
:10001000B13F0008AD0C0008E759000800000000DF
:100020000000000000000000000000006D02000859
:100030002725000800000000C102000885510008C3
:1000400073030008730300087303000873030008B8
:1000500073030008730300087303000873030008A8
:100060007303000873030008730300087303000898
:100070007303000873030008730300087303000888
:10008000730300087303000873030008E90F0008F6
:10009000D90D000873030008730300082925000820
:1000A0007303000873030008730300087303000858
:1000B0007303000873030008730300087303000848
:1000C0007303000873030008730300087303000838
:1000D00073030008C5550008730300084D56000857
:1000E0007303000873030008730300087303000818
:1000F0007303000873030008730300087303000808
:1001000073030008730300087303000873030008F7
:100110007303000873030008FD510008730300080F
:1001200073030008730300087303000873030008D7
:10013000730300087303000873030008AD1200087E
:10014000C511000873030008730300087303000857
:100150007303000873030008E91F0008D556000860
:100160007303000873030008730300087303000897
:100170007303000873030008730300087303000887
:10018000730300087303000800F002F800F05EF843
:100190000AA090E8000C82448344AAF10107DA45E2
:1001A00001D100F053F8AFF2090EBAE80F0013F0D6
:1001B000010F18BFFB1A43F0010318473C9F0000D2
:1001C0005C9F00000A444FF0000C10F8013B13F054
:1001D000070408BF10F8014B1D1108BF10F8015BA0
:1001E000641E05D010F8016B641E01F8016BF9D193
:1001F00013F0080F1EBF10F8014BAD1C0C1B09D1EA
:100200006D1E58BF01F801CBFAD505E014F8016B5B
:1002100001F8016B6D1EF9D59142D6D370470000ED
:100220000023002400250026103A28BF78C1FBD8FF
:10023000520728BF30C148BF0B6070471FB509F097
:1002400058FD00F0BEF81FBD10B510BD00F0A0F9BC
:100250001146FFF7F3FF06F0D9FC00F0BEF903B436
:10026000FFF7F2FF03BC00F0C3F900002A4B196846
:100270000868B0E8F04F80F30988BFF36F8F4FF044
:10028000000080F3118870470000000006480068F5
:10029000006880F3088862B661B6BFF34F8FBFF382
:1002A0006F8F00DF00BF00BF08ED00E0DFF80C003B
:1002B000016841F470010160704700BF88ED00E003
:1002C000EFF30980BFF36F8F134B1A681EF0100F06
:1002D00008BF20ED108A20E9F04F106008B44FF0FD
:1002E000500080F31188BFF34F8FBFF36F8F07F07B
:1002F0001FFF4FF0000080F3118808BC19680868E0
:10030000B0E8F04F1EF0100F08BFB0EC108A80F379
:100310000988BFF36F8F70470C010020EFF3058051
:10032000704700000B49D1F800C04A685CF8043BF4
:100330001068184442F8040B8C4528BFA1F1DC0C6E
:100340008A4228BFA1F1DC02C1F800C04A6020F057
:10035000004070477C400120094880470948004719
:10036000FEE7FEE7FEE7FEE7FEE7FEE7FEE7FEE765
:10037000FEE7FEE704480549054A064B70470000C2
:100380009551000889010008E8400120E846012055
:10039000E8420120E84201200B4910B5A1F17C029E
:1003A0000A4CC2E93712372106E000EB104342F84D
:1003B0002130074B00FB03400B1EA1F10101F4DCCF
:1003C00010BD0120E8E700001C400120E119D666BD
:1003D000CD0D0100032A40F2308010F0030C00F034
:1003E000158011F8013BBCF1020F624498BF11F86F
:1003F00001CB00F8013B38BF11F8013BA2F1040228
:1004000098BF00F801CB38BF00F8013B11F003039F
:1004100000F08480083AC0F0088051F8043B083AA4
:1004200051F804CBA0E80810F5E7121D5CBF51F8A5
:10043000043B40F8043BAFF30080D20724BF11F81F
:10044000013B11F801CB48BF11F8012B24BF00F884
:10045000013B00F801CB48BF00F8012B704702F0C8
:10046000FF0343EA032242EA024200F002B84FF0DF
:1004700000020429C0F0128010F0030C00F01B8071
:10048000CCF1040CBCF1020F18BF00F8012BA8BF7F
:1004900020F8022BA1EB0C0100F00DB85FEAC17C43
:1004A00024BF00F8012B00F8012B48BF00F8012BF6
:1004B00070474FF0000200B5134694469646203927
:1004C00022BFA0E80C50A0E80C50B1F12001BFF40D
:1004D000F7AF090728BFA0E80C5048BF0CC05DF873
:1004E00004EB890028BF40F8042B08BF704748BFC1
:1004F00020F8022B11F0804F18BF00F8012B704735
:1005000070477047704710B500F03AF8006810BDAA
:1005100010B5044600F034F8046010BD10B5203A60
:10052000C0F00B80B1E81850203AA0E81850B1E8AC
:100530001850A0E81850BFF4F5AF5FEA027C24BF62
:10054000B1E81850A0E8185044BF18C918C0BDE859
:1005500010405FEA827C24BF51F8043B40F8043B22
:1005600008BF7047D20728BF31F8023B48BF11F8D7
:10057000012B28BF20F8023B48BF00F8012B704731
:1005800000487047844001200048704784400120A3
:100590007546FFF7F9FFAE4605006946534620F061
:1005A0000700854618B020B5FFF7E4FEBDE82040FF
:1005B0004FF000064FF000074FF000084FF0000B1F
:1005C00021F00701AC46ACE8C009ACE8C009ACE8D2
:1005D000C009ACE8C0098D46704710B50446AFF3BA
:1005E00000802046BDE81040FFF739BE704700008C
:1005F00001491820ABBEFEE72600020002468A42EF
:1006000002DA02F5005070471046FCE710B51021E1
:10061000014802F000F910BD0000024010B51021A1
:10062000014802F0F6F810BD0000024010B50121AB
:10063000014802F0F0F810BD0004024010B501219D
:10064000014802F0E6F810BD000402401CB500208D
:1006500000900190FFF7E2FF922000F04BFA062293
:100660006946122000F027FAFFF7D0FF9DF801003D
:10067000000200B29DF8001040EA01045D480480C9
:100680009DF80300000200B29DF8021040EA010448
:10069000584844809DF80500000200B29DF80410FF
:1006A00040EA010453488480FFF7C8FF08226946E6
:1006B000002000F000FAFFF7B9FF9DF800000F28B6
:1006C00029D19DF80300000200B29DF8021040EA13
:1006D00001044848408B201A00B24649C8819DF861
:1006E0000500000200B29DF8041040EA01044148F0
:1006F000808B201A00B23F4908829DF80700000253
:1007000000B29DF8061040EA01043A48C08B201A56
:1007100000B238494882FFF781FFA22000F0EAF9D1
:1007200002226946222000F0C6F9FFF76FFF9DF80C
:100730000000C0009DF8011040EA6114B4F5806F1C
:1007400002DBA4F5006004B22A4884810146B1F9B5
:100750001200002801DB014600E04142142902DAC0
:10076000002024494882244822490A6802604A68D5
:100770004260896881601F48B0F90C0000EE100AE1
:10078000F8EEC00AB4EE001AB3EE070A00EE810AD2
:10079000194880ED030A1748B0F90E0000EE100A60
:1007A000B8EEC00A1548D0ED000A20EE200A124823
:1007B00080ED040A0F48B0F9100000EE100AB8EE00
:1007C000C00A0E48D0ED000A20EE200A0A4880ED4B
:1007D000050A0848B0F9120000EE100AB8EEC00A87
:1007E0000648D0ED000A20EE200A034880ED060AF4
:1007F0001CBD000092030020B4030020180000205C
:100800001CB5002000900190002460E0FFF706FF77
:10081000922000F06FF906226946122000F04BF991
:10082000FFF7F4FEFFF70AFF08226946002000F0F8
:1008300042F9FFF7FBFE9DF801009DF8001041EA28
:1008400000204349898A084400B2414988829DF8C2
:1008500003009DF8021041EA00203D49C98A08447E
:1008600000B23B49C8829DF805009DF8041041EA9A
:1008700000203749098B084400B2354908839DF8A8
:1008800003009DF8021041EA00203149498B0844D9
:1008900000B22F4948839DF805009DF8041041EAF5
:1008A00000202B49898B084400B2294988839DF890
:1008B00007009DF8061041EA00202549C98B08442D
:1008C00000B22349C883052006F09EF8641CB4F5E5
:1008D000967F9BDB1E48B0F914004FF4967190FB95
:1008E000F1F000B21A4988820846B0F916004FF4B8
:1008F000967190FBF1F000B21549C8820846B0F934
:1009000018004FF4967190FBF1F000B21049088383
:100910000846B0F91A004FF4967190FBF1F000B25E
:100920000B4948830846B0F91C004FF4967190FBC0
:10093000F1F000B2064988830846B0F91E004FF472
:10094000967190FBF1F000B20149C8831CBD000014
:100950009203002000B587B00121084603F020FF74
:100960000121022003F01CFF0121080303F048FFCE
:100970008020059002208DF8180000208DF81A00C4
:100980008DF81B0003208DF8190005A93E4801F0E1
:10099000CCFE1820059002208DF8180000208DF85C
:1009A0001A008DF81B0003208DF8190005A937489F
:1009B00001F0BBFE1020059001208DF818000020EA
:1009C0008DF81A0001208DF81B0003208DF8190006
:1009D00005A92D4801F0A9FE10212B4801F01BFFAD
:1009E000012005908DF8180000208DF81A000120D4
:1009F0008DF81B0003208DF8190005A9234801F08C
:100A000094FE0121214801F006FF052207211E481E
:100A100001F0D3FE052203211C4801F0CEFE052281
:100A200004211A4801F0C9FE0121080303F0F8FE71
:100A300000214FF4805003F0F3FE0020ADF80000D9
:100A40004FF48270ADF802003820ADF80C000020A1
:100A5000ADF804004FF40070ADF80A000220ADF8C4
:100A600006000120ADF808000020ADF80E000A20B5
:100A7000ADF810006946064804F0CCF8012104489E
:100A800004F0AEF807B000BD0000024000040240D0
:100A90000030014010B50024FFF75CFF05F036FD83
:100AA000044305F0C7FD04430A2005F067FFFFF784
:100AB000A7FE204610BD70B506460C46154646F00A
:100AC000800000F017F806E0552000F013F82070C1
:100AD000641C681EC5B2002DF6D170BD70B5044609
:100AE0000D4644F0800000F005F8552000F002F8B3
:100AF000287070BD10B5044600BF02210A4804F0FA
:100B00007BF80028F9D02146074804F081F800BF9F
:100B10000121054804F070F80028F9D0024804F0DB
:100B200074F8C0B210BD00000030014070B5054639
:100B30000C462846FFF7DEFF2046FFF7DBFF70BDBF
:100B400010B503F0EDF903F013FA01F03DFC00F0ED
:100B5000AFF8FFF79FFF4FF47A7004F0D7FB00F077
:100B600015F801F0DFF903F077FA03F08BFF02F0DC
:100B7000E7FA01F083F804F091F910BD024A106021
:100B8000014A1032116070472C08004000B58BB04C
:100B90000121042003F014FE0121082003F000FECF
:100BA00002220E211F4801F008FE4FF480400990F8
:100BB00002208DF8280000208DF82A0003208DF8EF
:100BC000290009A9174801F0B0FD5320ADF818001D
:100BD0000020ADF81A0040F2572007900020ADF831
:100BE000200006A9104804F0A7FC00200390602014
:100BF000ADF804000120ADF806000020ADF81000AB
:100C000001A9094804F03CFC0821074804F088FCCD
:100C10000121054804F0A8FB0121034804F0B3FBBF
:100C20000BB000BD000C0240000800401A48B0F9AB
:100C3000160042F21071884204DD18480068401C1A
:100C4000164908601648006801281DDB1448006832
:100C5000401C13490860084600681E2804DD002077
:100C600008600E49086016E00B48B0F9160010F550
:100C70007A6F03DD0B480C4908600CE0002008493E
:100C800008600649086006E0044800680A2802D1A6
:100C90000120034908607047C60200201C020020A2
:100CA0002002002030F8FFFF1002002000BFFEE706
:100CB00010B500F003F800F0F1F910BD00B58BB0ED
:100CC0000121082003F06CFD0121480603F078FDA6
:100CD000092200213E4801F070FD092201213C4813
:100CE00001F06BFD0320099002208DF828000320FD
:100CF0008DF8290000208DF82A0009A9344801F058
:100D000014FD14208DF8200002208DF82100002011
:100D10008DF8220001208DF8230008A803F0A2FB23
:100D200013208DF8200002208DF8210000208DF87E
:100D3000220001208DF8230008A803F093FB25482A
:100D400000F042FB05A800F0B9FD0320ADF8140047
:100D500000208DF816008DF8170008208DF8180077
:100D600003208DF8190000208DF81A008DF81B0063
:100D70008DF81C008DF81D008DF81E0001208DF8E7
:100D80001F0005A9134800F058FC0020ADF804002E
:100D9000ADF80600ADF80800ADF80A00ADF80C009B
:100DA0008DF80E008DF80F0001208DF810008DF8E1
:100DB000110001A800F024FB01220221054800F0E7
:100DC00033FC01221146034800F02EFC0BB000BD9D
:100DD000000C02400064004000B585B002212D489F
:100DE00000F092FB002852D06A460021294800F00A
:100DF000AEFC9DF80800002845D19DF809000028A8
:100E000041D19DF80A0008283DD1322022490860CE
:100E10000098A0F20120082833D2DFE800F004098E
:100E200011161C21272C69461C4800F0A5FA29E060
:100E300069461B4800F0A0FA194800F001FD21E0C6
:100E40006946184800F098FA1CE0694615481230C7
:100E500000F092FA16E06946134800F08DFA11E0AE
:100E600069461148123000F087FA0BE069460F48D6
:100E700000F082FA06E069460C48123000F07CFA75
:100E800000E000BF00BF0221024800F021FA05B0D7
:100E900000BD00000064004040000020240200204B
:100EA0006C020020A20200207E020020C602002068
:100EB00000B585B000208DF808008DF809000820E5
:100EC0008DF80A008001009019488089000A8DF889
:100ED0000B001748017B8DF80C1016488089010A19
:100EE0008DF80D101348017B8DF80E1000218DF840
:100EF0000F108DF810108DF811108DF812100020C1
:100F00000D4908700D480068002803DD69460C484B
:100F100000F0E4FC04E009480068002800DC03E07D
:100F2000054800780028F6D000BF05B000BD0000DD
:100F3000240200206C020020480000204000002015
:100F40000064004000B585B000208DF808008DF8E1
:100F5000090008208DF80A0040F2FF1000901D489B
:100F60008089000A8DF80B001A48017B8DF80C105F
:100F7000C08B010A8DF80D101648817F8DF80E1078
:100F800015488089010A8DF80F101348017B8DF8F0
:100F90001010C08B010A8DF811100F48817F8DF859
:100FA000121000200D4908700D480068002803DD6C
:100FB00069460C4800F092FC04E0094800680028EB
:100FC00000DC03E0054800780028F6D000BF05B03B
:100FD00000BD00007E020020C60200204800002064
:100FE000400000200064004010B50121054800F0D9
:100FF0008BFA30B10120044908700121014800F04A
:1010000067F910BD006400404800002000B585B0BD
:1010100000208DF808008DF8090008208DF80A00DE
:101020008001009000208DF80B0000218DF80C103D
:101030008DF80D108DF80E1014488089010A8DF876
:101040000F101248017B8DF81010C08B010A8DF82B
:1010500011100E48817F8DF8121000200C49087085
:101060000C480068002803DD69460B4800F036FC98
:1010700004E008480068002800DC03E00448007829
:101080000028F6D000BF05B000BD0000A20200207D
:1010900048000020400000200064004000B58BB0F4
:1010A0000121022003F07CFB0121480603F088FBAC
:1010B0000121880603F084FB092205213F4801F045
:1010C0007CFB092206213D4801F077FB6020099056
:1010D00002208DF8280003208DF8290000208DF8CB
:1010E0002A0009A9354801F020FB40208DF8200096
:1010F00002208DF8210000208DF8220001208DF8BB
:10110000230008A803F0AEF93F208DF8200002204C
:101110008DF8210000208DF8220001208DF8230099
:1011200008A803F09FF9264800F04EF905A800F042
:10113000C5FB0320ADF8140000208DF816008DF8D3
:10114000170008208DF8180003208DF819000020E2
:101150008DF81A008DF81B008DF81C008DF81D000D
:101160008DF81E0001208DF81F0005A9144800F01D
:1011700064FA0020ADF80400ADF80600ADF80800F0
:10118000ADF80A00ADF80C000E208DF80E0000201E
:101190008DF80F0001208DF810008DF8110001A8C6
:1011A00000F02EF901220221054800F03DFA01224B
:1011B0001146034800F038FA0BB000BD00040240AD
:1011C0000068004010B50221114800F09DF9E8B117
:1011D000104A00210E4800F0BAFA0E48007A88B989
:1011E0000C48407A70B90B48807A08280AD132201E
:1011F0000949086007480068A0F2011000B900E042
:1012000000BF00BF0221024800F062F810BD0000DC
:1012100000680040EC0200204400002000B585B0CA
:1012200000208DF808008DF8090008208DF80A00CC
:101230004FF48170009019488088000A8DF80B00E7
:10124000164801798DF80C10C088010A8DF80D1030
:10125000124881798DF80E100089010A8DF80F105F
:101260000E48017A8DF81010817A8DF81110C17A2C
:101270008DF8121000200A4908706946094800F0EC
:101280002DFB04E008480068002800DC03E0044867
:1012900000780028F6D000BF05B000BD2403002070
:1012A00049000020006800404400002010B50121E2
:1012B000054800F029F930B10120044908700121E6
:1012C000014800F005F810BD00680040490000200A
:1012D000B1F5007F3AD00FDC202928D006DC0129A7
:1012E0001CD004291DD0082940D11DE0402921D05F
:1012F000B1F5807F3AD126E0B1F5004F31D006DC60
:10130000B1F5806F25D0B1F5006F2FD124E0B1F594
:10131000803F12D0B1F5003F28D111E0154A82601C
:1013200025E00822C26022E01022C2601FE00822ED
:1013300002611CE01022026119E00822426016E0FE
:101340001022426013E00422426010E00422426056
:101350000DE0042242600AE0002282610422426021
:1013600005E0002282610422426000E000BF00BF6D
:1013700070470000010101000A7BCB7A42EA032298
:1013800012B242818B7B4A7B43EA022212B2028074
:101390000B7CCA7B43EA022212B282804A7CC28062
:1013A000028972B1B0F90A20B0F908309A4205DA20
:1013B000428902F5005212B2428004E04289428022
:1013C00001E042894280704710B504460B488442D0
:1013D00009D10121480603F003FA00214FF0007003
:1013E00003F0FEF908E00121880603F0F9F9002175
:1013F0004FF0806003F0F4F910BD0000006400407D
:1014000010B50021837A012202FA03F13D4A1268E5
:1014100042F001023B4B1A603A4A1C3212688A437E
:10142000384B1C331A60027BCAB9364A0C32126838
:101430008A43344B0C331A604288C38842EA034320
:10144000304A4032847A42F834300288838842EA53
:1014500003432C4A4032847A02EBC4025360027B7D
:10146000012A19D1274A0C3212680A43254B0C3342
:101470001A604288038842EA0343224A4032847A4F
:1014800042F83430C288838842EA03431D4A40321E
:10149000847A02EBC4025360C27A3AB9194A121D27
:1014A00012688A43174B1B1D1A6006E0154A121D6D
:1014B00012680A43134B1B1D1A60028932B9114A84
:1014C000143212688A430F4B14331A600289012ABE
:1014D00006D10C4A143212680A430A4B14331A60BC
:1014E000427B012A06D1074A1C3212680A43054B87
:1014F0001C331A60034A126822F00102014B1A6081
:1015000010BD00000066004070B504460D46002680
:1015100060692840002871D0B5F5807F5CD010DC70
:10152000082D35D006DC012D20D0022D24D0042D2D
:1015300072D127E0102D31D0202D35D0402D6BD128
:1015400038E0B5F5004F60D009DCB5F5007F49D033
:10155000B5F5806F4CD0B5F5006F5DD14FE0B5F5B6
:10156000803F2DD0B5F5003F56D12FE0A0682D4922
:1015700000F0CEFC064651E0E068032100F0C8FC14
:1015800006464BE0E068082100F0C2FC064645E054
:10159000E068102100F0BCFC06463FE02069032112
:1015A00000F0B6FC064639E02069082100F0B0FCE6
:1015B000064633E02069102100F0AAFC06462DE023
:1015C0006068082100F0A4FC064627E0606810214E
:1015D00000F09EFC064621E0A069012100F098FC85
:1015E00006461BE0A069022100F092FC064615E0C9
:1015F000A069042100F08CFC06460FE00FE0A06912
:10160000702100F085FC064608E06068042100F0C7
:101610007FFC064602E0FFE7002600BF00E0002650
:10162000304670BD010101001AB143690B434361AB
:1016300002E043698B434361704730B502460020A6
:101640000023146824F002041460146844F00104B8
:10165000146000E05B1C546804F001041CB94FF6F0
:10166000FF74A342F6D1546804F001040CB90020C1
:101670006CE08C79012C04D1146844F0800414606F
:1016800003E0146824F080041460CC79012C04D1A8
:10169000146844F04004146003E0146824F040042B
:1016A00014600C7A012C04D1146844F020041460F6
:1016B00003E0146824F0200414604C7A012C04D157
:1016C000146844F01004146003E0146824F010045B
:1016D00014608C7A012C04D1146844F0080414605E
:1016E00003E0146824F008041460CC7A012C04D1BF
:1016F000146844F00404146003E0146824F0040443
:1017000014608C78A407CD7844EA05640D7944EA26
:1017100005444D7944EA05540D886D1E2C43D4616F
:10172000146824F001041460002300E05B1C54687A
:1017300004F001041CB14FF6FF74A342F6D15468C3
:1017400004F001040CB1002000E0012030BD10B510
:1017500000F5D87303EB01131B6803F00403137245
:10176000137A53B900F5D87303EB01131B6840F2E9
:10177000FF7404EA5353136009E000F5D87303EBD8
:1017800001131B686FF0604404EAD303536000F553
:10179000D87303EB01131B6803F00203537200F5C7
:1017A000D87303EB01135B6803F00F03937200F52A
:1017B000D87303EB01135B681B0AD37400F5D8736D
:1017C00003EB01139B68D37200F5D87303EB01138D
:1017D0009B681C0A147300F5D87303EB01139B6814
:1017E0001C0C547300F5D87303EB01139B681B0E9C
:1017F000937300F5D87303EB0113DB68D37300F523
:10180000D87303EB0113DB681C0A147400F5D8735A
:1018100003EB0113DB681C0C547400F5D87303EB65
:101820000113DB681B0E937421B9C36843F02003D6
:10183000C36003E0036943F02003036110BD0000AF
:101840001A49096861B119490968491E174A1160A6
:10185000B0F90210164A11601146098809B20182D6
:10186000B0F90210B0F91020891AB1F5805F05DBDC
:1018700010490968491E0F4A11600CE0B0F90210C6
:10188000B0F91020891A11F5805F04DC0949096854
:10189000491C084A116041880182B0F902200549BB
:1018A000096802EB4131044A11607047540000207E
:1018B000580000204C0000205000002000218171C1
:1018C000C171017241728172C1728170C170032154
:1018D00001710221417101210180704710B502465A
:1018E0000020936803F08063B3F1806F00D110E0B3
:1018F000936803F00063B3F1006F01D1012008E0A9
:10190000936803F08053B3F1805F01D1022000E0BF
:101910000420042874D002F5C07303EB00131B6885
:1019200003F0010402F5C07303EB00131C600B7A93
:101930007BB94B7A0C8843EA445302F5C07404EB3C
:1019400000142468234302F5C07404EB00142360E0
:1019500010E00B7A4C6843EAC4034C7A234302F547
:10196000C07404EB00142468234302F5C07404EB34
:10197000001423608B7A03F00F038B7202F5C0739F
:1019800003EB00135B6823F00F0402F5C07303EB55
:1019900000135C6002F5C07303EB00135B688C7A84
:1019A000234302F5C07404EB001463608B7B1C06B8
:1019B0004B7B44EA03440B7B44EA0323CC7A234366
:1019C00002F5C07404EB0014A3608B7C1C064B7CF6
:1019D00044EA03440B7C44EA0323CC7B234302F513
:1019E000C07404EB0014E36002F5C07303EB001352
:1019F0001B6843F0010402F5C07303EB00131C6085
:101A000010BD000010B54FF40061694800F0F8FE09
:101A100008B9012000E00020664908604FF4005139
:101A2000634800F0EDFE644908606448006841F2D4
:101A30007071484300EE100AB8EEC00A604880EDAD
:101A4000010A0020FEF7A8FC5E48006898B9FEF77E
:101A500069FC041E01DB204600E06042052190FB8A
:101A6000F1F201FB12004FF49671484356490860A9
:101A700001205449086054480068401E52490860DB
:101A800008460068002801DC002008604E48006815
:101A900000281DDC4D480068401E4C49086008467F
:101AA000006820B9454800684042444908604748FA
:101AB000006800F5FA7058B94048006840423F4954
:101AC000086000203F4908604FF4FA703F49086001
:101AD0003848006810B90120384908603648006865
:101AE00018B94FF0FF30354908603448006838496C
:101AF000096888420FD031480068012804D14FF4AA
:101B0000C8703449086006E02C480068401C10B9D1
:101B10003148304908602F480068002818DA2D48FD
:101B20000068401C2B4908602C480068A0F51C5038
:101B3000103800EE100AB8EEC00AF0EE400A28484D
:101B400090ED000AB8EEC00A264802F0D1FC2AE067
:101B500020480068002816DD1E480068401E1D4908
:101B600008601E48006842F21071084400EE100A36
:101B7000F8EEC00A1A4890ED000AB8EEC00A1948FB
:101B800002F0B6FC0FE01348006860B9134890ED0E
:101B9000000AF8EEC00A124890ED000AB8EEC00A3A
:101BA000104802F0A5FC054800680949086010BD0E
:101BB00000100240980100209C010020A00100209C
:101BC000743F0120AC010020A8010020B0010020DA
:101BD000A40100209401002070FEFFFF58000020A7
:101BE000500000206805002010B54FF400611C482B
:101BF00000F006FE08B9012000E000201949086045
:101C00004FF40051164800F0FBFD174908601748D3
:101C100090ED010A164880ED010A1248006858B993
:101C2000134890ED010AB5EEC00AF1EE10FA03D2A6
:101C30009FED100A80ED010A0B48006858B90C4866
:101C400090ED010AB5EEC00AF1EE10FA03DD9FED4A
:101C5000090A80ED010A00200749888110BD0000B3
:101C600000100240980100209C010020883F0120C4
:101C7000743F0120000000006C02002010B5002419
:101C800023E004EB84013B4A02EB011002F020FD4B
:101C900004EB8401374A02EB01100021DFED364AE4
:101CA0009FED364AF7EE003A9FED353ADFED332AE5
:101CB0009FED342ADFED321A9FED2F1ADFED320A45
:101CC000B1EE0C0A02F054FD641C042CD9DB2F4841
:101CD00002F0FEFC0221DFED284A9FED294AF7EED3
:101CE000003A9FED2B3ADFED262A9FED2A2ADFED01
:101CF000241A9FED291ADFED200A9FED270A2348B9
:101D000002F036FD254802F0E3FC254802F0E0FC35
:101D10000221DFED194A9FED234AF7EE003A9FEDCD
:101D2000213ADFED202A9FED1B2ADFED1E1A9FEDE1
:101D3000121ADFED110AB7EE000A184802F018FD7A
:101D40000221DFED0D4A9FED174AF7EE003A9FEDB5
:101D5000153ADFED142A9FED0F2ADFED121A9FEDE1
:101D6000061ADFED050AB0EE000A0D4802F000FD8C
:101D700010BD0000280400200000000000409C4529
:101D800000007A460000FA43CDCCCC3D8808002004
:101D900000C0DA45000048420000C8426805002043
:101DA000B805002000401C469FED3E2AF0EE421A86
:101DB00030EE602A32EE012ABDEEC22A12EE100A7F
:101DC00000B239498881B1EE402A32EE602A32EE03
:101DD000012ABDEEC22A12EE100A01B23248C181B8
:101DE000B1EE402A32EE202A32EE012ABDEEC22A9E
:101DF00012EE100A01B22C48018230EE202A32EE97
:101E0000012ABDEEC22A12EE100A01B22648418212
:101E1000002021E0244A0C3232F91010002901DBA5
:101E20000A4600E04A4202EE102AB8EEC22AB4EE98
:101E3000E12AF1EE10FA0EDD1B4A0C3232F91010D5
:101E4000002901DB0A4600E04A4202EE102AB8EE01
:101E5000C22AF0EE421A401C0428DBDB9FED132A55
:101E6000F4EEC21AF1EE10FA1BDD002017E09FED30
:101E70000F2AC2EE212A0C490C3131F9101002EE62
:101E8000101AB8EEC22A22EE822ABDEEC22A12EE43
:101E9000101A0AB204490C3121F81020401C042801
:101EA000E5DB704700000000743F012000D00446CD
:101EB00010B54FF40061104800F0A2FC08B90120F1
:101EC00000E000200D4908604FF400510A4800F07E
:101ED00097FC0B4908609FED0B0A0B4880ED000A48
:101EE0009FED080A80ED010A9FED060A80ED020AC7
:101EF00000200649888110BD001002409801002092
:101F00009C01002000000000743F01206C020020B2
:101F10000246002002EA01030BB1012000E000208C
:101F20007047000010B500F009F84FF448710248FE
:101F300003F0FFFA10BD00000000014000B58BB0B7
:101F40000121084602F05CFC0121102002F028FC6F
:101F500001220921224800F030FC4FF40070099062
:101F600002208DF8280000208DF82A0003208DF82B
:101F7000290009A91A4800F0D8FBA720ADF81800DD
:101F80000020ADF81A0044F61F6007900020ADF85D
:101F9000200006A9134803F0CFFA4FF4FA6003902B
:101FA0006020ADF804000120ADF806000020ADF877
:101FB000100001A90B4803F01BFA0821094803F09F
:101FC00055FA0121074803F0CFF90121054803F034
:101FD000E6F90121034803F0D6F90BB000BD00007B
:101FE000001002400000014010B50949094800F006
:101FF0000BF9012807D10021064800F027F8172126
:10200000044800F07DF90249024800F005F810BDCF
:1020100000800028B86402400246094B9A4201D26F
:10202000084801E00648103801F000531BB1064B88
:102030000B40C36002E0044B0B408360704700001C
:1020400010640240006002407D0F7D0F21B10268E4
:1020500042F00102026003E0026822F00102026025
:1020600070470000016821F001010160002101605A
:1020700041608160C1600161212141614A4988421A
:1020800004D13D21484A103A91608CE0464918310C
:10209000884205D14FF47461434A103A916082E05E
:1020A00041493031884205D14FF474113E4A103A0B
:1020B000916078E03C494831884205D14FF0746125
:1020C000394A103A91606EE037496031884204D154
:1020D0003649354A103AD16065E033497831884253
:1020E00004D13349304A103AD1605CE02E49903136
:1020F000884204D12F492C4A103AD16053E02A4932
:10210000A831884205D14FF03D51274A103AD1609D
:1021100049E02949884204D13D21274A083A116003
:1021200041E025491831884205D14FF47461224AB3
:10213000083A116037E020493031884205D14FF428
:1021400074111D4A083A11602DE01B49483188423C
:1021500005D14FF07461184A083A116023E016491E
:102160006031884204D11149134A121F11601AE0EC
:1021700011497831884204D10D490F4A121F11606C
:1021800011E00D499031884204D10A490A4A121FD0
:10219000116008E00849A831884204D14FF03D5150
:1021A000054A121F11607047106002403D00002078
:1021B000400F002000003D201064024021B1026861
:1021C00042F48022026003E0026822F4802202606E
:1021D000704722B1036843F40023036003E00368FF
:1021E00023F400230360016170470146486880B210
:1021F0007047014600200A6802F400220AB101205B
:1022000000E000207047000070B502460020002466
:102210000025124EB24201D2114B01E00F4B103B90
:10222000104E0E4036B11E2606EAD124166806EA84
:10223000040502E0566906F0800501F000560EB173
:102240005C6800E01C68084E344004EA010616B1E0
:102250000DB1012000E0002070BD000010640240BC
:10226000006002403C0F3C0F7D0F7D0F10B501F068
:1022700080034BB122B1436943F08003436103E023
:10228000436923F08003436180290BD02AB103689E
:1022900001F01E042343036004E0036801F01E0400
:1022A000A343036010BD000010B500220268134B69
:1022B0001A40CC680B6823434C6923438C69234341
:1022C000CC6923430C6A23434C6A23438C6A23431F
:1022D0004C6B23438C6B23431A430260426922F008
:1022E0000702D1E90B3423431A4342610B6943606F
:1022F0004B6883608B68C36010BD00003F801CF09A
:102300004160704764212E4A11600178427841EAA9
:102310000221C1F30A01A1F580612A4A11804178A6
:10232000C910827841EA4211C1F30A01A1F5806126
:10233000244A518081788911C27841EA8201027968
:1023400041EA8221C1F30A01A1F580611D4A918011
:1023500001794910427941EAC211C1F30A01A1F59C
:102360008061184AD180017C427C41EA0221C1F39C
:102370000A01A1F58061134A118141790911890887
:1023800091724179C1F30111D1728179C27941EA27
:10239000022109B20B4A9181017A427A41EA022173
:1023A0000AB208494A83027B81F82820427B81F8DF
:1023B0002920817BC27B41EA022202494A8570477B
:1023C000600000202403002010B500F04DF800F05C
:1023D00099F800F001F810BD00B58FB00121480553
:1023E00002F0DEF91D48FFF73DFE4FF0006000905F
:1023F0001B4801901B48029000200390122004907B
:10240000002005904FF4806006900020079008900F
:102410004FF4807009904FF440300A9000200B90E8
:102420000C900D900E9069460C48FFF73DFF00227E
:102430000C4912310948FFF7CCFE01210748FFF78C
:10244000BDFE01210548FFF701FE0122402104489D
:10245000001F03F000FA0FB000BD0000286002402A
:10246000044800400003002000B587B0012104208B
:1024700002F096F90121880402F0A2F907220B214B
:102480001D4800F09AF94FF40060059002208DF885
:10249000180003208DF8190000208DF81A00012083
:1024A0008DF81B0005A9144800F03FF9134801906E
:1024B0000020ADF80800ADF80A004FF48060ADF8D8
:1024C0000C000020ADF810000420ADF80E0001A9AA
:1024D0000B4803F019FA1021094803F0A7F901226B
:1024E00040F22441064803F0E9F90121044803F0D1
:1024F000A6F907B000BD000000080240A086010058
:102500000048004008B527208DF8000001208DF814
:10251000010000208DF8020001208DF803006846BC
:1025200001F0A0FF08BD704710B54FF4807000F0B7
:102530000BF84FF4807000F001F810BD01490860FD
:1025400070470000143C014001460020034A126815
:102550000A400AB1012000E000207047143C01400D
:1025600001F58052B2F5005F04DBA1F5805212B292
:10257000028103E001F5805212B20281704700002F
:1025800030B10749096841F48061054A116005E0EE
:102590000349096821F48061014A11607047000015
:1025A000003C024070B504460A460026092502B9DF
:1025B00009E0012A01D1160205E0022A01D1160222
:1025C00001E04FF4407600F09FF80546092D28D130
:1025D0001548006820F440701349086008460068F8
:1025E000304308600846006820F0F800086008469C
:1025F000006844F0020108430B490860084600687F
:1026000040F48030086000F07FF805460648006816
:1026100020F00200044908600846006820F0F80035
:102620000860284670BD0000103C02400920134994
:10263000096801F48031B1F5803F01D101201CE02F
:102640000E49096801F0100109B1062015E00B4997
:10265000096801F4807109B102200EE00749096898
:1026600001F0EF0109B1072007E00449096801F012
:10267000020109B1082000E0092070470C3C02402B
:102680000348006840F000400149086070470000BE
:10269000103C024030B502460C46092500F034F8E3
:1026A0000546092D19D10E48006820F440700C49E8
:1026B00008600846006840F400700860084600683A
:1026C00040F001000860146000F01EF80546044860
:1026D000006820F0010002490860284630BD000073
:1026E000103C02400548006800F0004028B1044852
:1026F00002490C390860034808607047103C0240EA
:1027000023016745AB89EFCD08B509200090FFF79D
:102710008DFF009002E0FFF789FF00909DF8000018
:102720000128F8D09DF8000008BDF0B50A46002148
:102730000023002400BF3DE0012505FA01F31568E0
:1027400005EA03049C4234D105684F000326BE40CD
:10275000B543056015794E00B54006683543056000
:102760001579012D02D01579022D16D185684F00FB
:102770000326BE40B543856055794E00B540866856
:1027800035438560456801268E40B5434560456800
:1027900096798E40B6B235434560C5684F00032632
:1027A000BE40B543C560D5794E00B540C6683543D7
:1027B000C560491C1029BFD3F0BDF0B5002300242B
:1027C0004D07ED0E02FA05F3CE1000F1200555F885
:1027D00026504E07F70E0F26BE40B543CF1000F12E
:1027E000200646F82750CE1000F1200555F8265057
:1027F00045EA0304CE1000F1200545F82640F0BD5F
:102800000246002013690B400BB1012000E00020BC
:102810007047418370470183704742694A40426173
:102820007047000030B5034613B94FF6FF7030BD56
:1028300009E013F8014B82EA0400C0B2054D35F8F7
:10284000100080EA2222081EA1F10101F1D11046F8
:10285000EDE70000089E000830B5034605E013F8D8
:10286000010B80EA02040448025D081EA1F1010583
:10287000A9B2F4D1104630BD079D00080C48807AFB
:10288000012802D102200B4908700948807A0328E8
:1028900006D10748C07A032802D1012005490870F3
:1028A0000348807A022802D100200249087070474C
:1028B00024030020900100209FED0D0A0D4880EDBB
:1028C000000A0D48B0F9000000EE100AB8EEC00A88
:1028D0009FED0A1AC0EE010A9FED090A20EE800A58
:1028E000044880ED010A9FED020A80ED020A70475C
:1028F00000000000883F0120240300200000254440
:1029000000401C462248C07A012827D12048B0F94F
:102910000800B0F5167F02DD01201E4908601D4841
:10292000006801281AD11A48B0F90800642815DA9D
:102930001748B0F90800002810DD1748007818B9CA
:1029400001201549087006E013480078012802D1DB
:1029500000201149087000200E4908600F480078D7
:10296000022809D10E48807C012802D10A4908704A
:1029700002E00020084908700A48007830B940F2A7
:10298000B6300949486300200349087070470000C9
:1029900024030020FC0100200C020020B8010020CC
:1029A0001404002004020020000001401648807A30
:1029B000012806D11448C07A012802D113490870B1
:1029C0001AE01148807A032807D10F48C07A0128FD
:1029D00003D102200D4908700EE00B48807A0328CD
:1029E00007D10948C07A032803D10220074908709B
:1029F00002E00320054908700348807A022802D1CA
:102A0000002002490870704724030020B80100200C
:102A10001A48C07A012828D11848B0F9080010F5E2
:102A2000167F02DA0120164908601548006801285F
:102A30001BD11248B0F9080010F1640F15DD0F48E2
:102A4000B0F90800002810DA0E48007818B9012003
:102A50000C49087006E00B480078012802D10020DC
:102A6000084908700020064908600448807A022856
:102A700002D10020034908707047000024030020A1
:102A8000F80100200402002010B55D48807A022879
:102A900078D15B48C07A0228FAD15948B0F90000D1
:102AA00010F5167F6EDA5648B0F90200B0F5167FC1
:102AB00068DD5348B0F90400B0F5167FF8DD5048E2
:102AC000B0F90600B0F5167FF2DD64214FF47A709C
:102AD000FEF754F84FF4FA7003F050FF6421C80079
:102AE000FEF74CF84FF4FA7003F048FF00214FF462
:102AF0004870FEF743F864214FF47A70FEF73EF811
:102B00004FF4FA7003F03AFF6421C800FEF736F87C
:102B10004FF4FA7003F032FF00214FF44870FEF7D3
:102B20002DF804E03748B0F90A0037490860344806
:102B3000807A0328F6D164214FF47A70FEF71EF8EC
:102B40004FF4FA7003F01AFF00214FF47A70FEF789
:102B500015F804E02B48B0F91C002B4948602848C0
:102B6000807A0128F6D164214FF47A70FEF706F8D6
:102B70004FF4FA7003F002FF00214FF47A70FDF772
:102B8000FDFF05E03BE01F48B0F91C001E498860CE
:102B90001B48C07A0328F6D164214FF47A70FDF700
:102BA000EDFF4FF4FA7003F0E9FE00214FF47A7064
:102BB000FDF7E4FF04E01348B0F91C001249C860B7
:102BC0000F48C07A0128F6D164214FF47A70FDF7DE
:102BD000D5FF4FF4FA7003F0D1FE6421C800FDF771
:102BE000CDFF4FF4FA7003F0C9FE00214FF4487096
:102BF000FDF7C4FF10220449044802F08DF810BD0F
:102C0000240300207E0200207403002000F00F083F
:102C100010B51C480021016041608160C160102234
:102C20000146194802F064F81648406848BB154848
:102C3000806830BB1348C06818BB1248006800BBEE
:102C400064214FF47A70FDF799FF4FF4FA7003F0A6
:102C500095FE6421C800FDF791FF4FF4FA7003F070
:102C60008DFE64214FF47A70FDF788FF4FF4FA70FF
:102C700003F084FE00214FF44870FDF77FFF00BF92
:102C8000FEE710BD7403002000F00F0810B5AE4839
:102C90000078002868D0AD48B0F9140000EE100AA2
:102CA000B8EEC00AAA4880ED000AA74890ED020AD3
:102CB000A748D0ED000A30EE200A80ED000A90ED22
:102CC000000AA448D0ED000AB4EEE00AF1EE10FAD2
:102CD00005DD90ED000A9E4880ED000A0FE09C485B
:102CE00090ED000A9C48D0ED000AB4EEE00AF1EE47
:102CF00010FA04D290ED000A954880ED000A93483E
:102D0000B0F9020000EE100AB8EEC00A934880ED58
:102D1000000A8D4890ED010A9048D0ED000A30EE8F
:102D2000C00A80ED000A90ED000A8D48D0ED000A3F
:102D3000B4EEE00AF1EE10FA05DD90ED000A8748E6
:102D400080ED000A5EE0854890ED000A8548D0EDF0
:102D5000000AB4EEE00AF1EE10FA53D290ED000A48
:102D60007E4880ED000A4DE0794890ED000A7E48EB
:102D7000D0ED000A30EE200A754880ED000A90ED93
:102D8000000A7448D0ED000AB4EEE00AF1EE10FA41
:102D90000ADC6F4890ED000A6F48D0ED000AB4EEEF
:102DA000E00AF1EE10FA06D26F4890ED000AB1EE9B
:102DB000400A80ED000A694890ED000A6B48D0EDAA
:102DC000000A30EE200A654880ED000A90ED000A06
:102DD0006348D0ED000AB4EEE00AF1EE10FA0ADC26
:102DE0005E4890ED000A5F48D0ED000AB4EEE00ABC
:102DF000F1EE10FA06D25D4890ED000AB1EE400AFD
:102E000080ED000A524890ED000A5248D0ED000AC9
:102E1000B4EEE00AF1EE10FA05DD90ED000A4C4840
:102E200080ED000A0FE04A4890ED000A4A48D0EDD4
:102E3000000AB4EEE00AF1EE10FA04D290ED000AB6
:102E4000434880ED000A454890ED000A4448D0ED23
:102E5000000AB4EEE00AF1EE10FA05DD90ED000A8A
:102E60003E4880ED000A0FE03C4890ED000A3D48E6
:102E7000D0ED000AB4EEE00AF1EE10FA04D290EDC3
:102E8000000A364880ED000A3048B0F9140000EE20
:102E9000900AF8EEE00AB0EE600A2D48D0ED000A84
:102EA000334801F025FB3248503880ED1D0A90ED83
:102EB0001D1AF0EE410A2F48B0F91000404201EE11
:102EC000100AB8EEC11ADFED2C1A21EE211AB0EE6D
:102ED000410A2A4801F00CFBBDEEC00A10EE100AB0
:102EE00001B21A48C183B0F9020000EE900AF8EE70
:102EF000E00AB0EE600A1948D0ED000A1C485038CC
:102F000001F0F6FA1A48503880ED090A90ED091AD6
:102F1000F0EE410A1748B0F91200404201EE100AE3
:102F2000B8EEC11ADFED141A21EE211AB0EE410AF3
:102F30001248503801F0DCFABDEEC00A10EE100A5B
:102F400000B20249888110BD140400207E020020D6
:102F5000C8010020CC010020D0010020BC010020CD
:102F6000C0010020C4010020D4010020D8010020AD
:102F70005806002092030020CDCCCC3DF80600205E
:102F800010B56248B0F9060000EE100AF8EEC00A6B
:102F90009FED5F1A80EE810A5E48D0ED000A30EEA8
:102FA000C00A80ED000A90ED000A5B48D0ED000AEF
:102FB000B4EEE00AF1EE10FA05DD90ED000A554896
:102FC00080ED000A0FE0534890ED000A5348D0ED21
:102FD000000AB4EEE00AF1EE10FA04D290ED000A15
:102FE0004C4880ED000A4E48B0F9140000EE900AFB
:102FF000F8EEE00AB0EE600A4648D0ED000A494813
:1030000001F076FA4748503880ED1D0A90ED1D1A00
:10301000F0EE410A4448B0F91000404201EE100AB7
:10302000B8EEC11ADFED411A21EE211AB0EE410AC5
:103030003F4801F05DFABDEEC00A10EE100A01B281
:103040003748C1833148B0F9040000EE100AB8EEE9
:10305000C00A9FED2F1AC0EE010A364890ED000A13
:1030600030EE600A80ED000A90ED000A3248D0EDA3
:10307000000AB4EEE00AF1EE10FA05DD90ED000A68
:103080002C4880ED000A0FE02A4890ED000A2B48FA
:10309000D0ED000AB4EEE00AF1EE10FA04D290EDA1
:1030A000000A244880ED000A1D48B0F9020000EE35
:1030B000900AF8EEE00AB0EE600A1E48D0ED000A71
:1030C0001848503801F014FA1648503880ED090AB3
:1030D00090ED091AF0EE410A1348B0F9120040428F
:1030E00001EE100AB8EEC11ADFED101A21EE211A16
:1030F000B0EE410A0E48503801F0FAF9BDEEC00AB0
:1031000010EE100A00B20649888110BD2403002089
:1031100000004842C8010020CC010020D00100205E
:103120007E0200205806002092030020CDCCCC3D2A
:10313000F8060020BC010020C0010020C4010020CE
:1031400010B52DED048BFFF79FFC894801F0C0FA04
:103150008748503001F0BCFA864801F0B9FA85483A
:10316000503001F0B5FA0221DFED834A9FED834A2A
:10317000F7EE003A9FED823ADFED802A9FED7E2A3E
:10318000DFED7F1A9FED7C1ADFED7B0AB0EE000ABF
:103190007748503001F0ECFA0221DFED774A9FEDDD
:1031A000774AF7EE003A9FED753ADFED742A9FED0E
:1031B000742ADFED721A9FED701AF7EE000A9FED88
:1031C000710A6C48503001F0D3FA0221DFED6A4AEF
:1031D0009FED6A4AF7EE003A9FED693ADFED672A04
:1031E0009FED692ADFED661A9FED631ADFED620A33
:1031F000B7EE080A5E4801F0BBFA0221DFED5E4A35
:103200009FED5E4AF7EE003A9FED5C3ADFED5F2AF4
:103210009FED5F2ADFED591A9FED571AF7EE000A6E
:103220009FED5C0A534801F0A3FAFFF7F1FC5A48FE
:10323000008801B25948FFF793F95748808801B2D6
:1032400056481230FFF78CF9544AB2F91A10524A14
:103250005068FDF7D3F900EE100AB8EEC00A5048E6
:1032600080ED000A4D4AB2F91A104B4A9068FDF7FA
:10327000C5F900EE100AB8EEC00A4A4880ED000A0F
:10328000464AB2F91A10444AD068FDF7B7F900EE81
:10329000100AB8EEC00A444880ED000A414890ED9B
:1032A000000A4148D0ED000AB4EEE00AF1EE10FA4F
:1032B00013D23C4890ED000A3B4880ED000A374AA3
:1032C000B2F91A10344AD068FDF798F900EE100AE6
:1032D000B8EEC00A334880ED000A304AB2F908104F
:1032E0002D4A1068FDF78AF900EE100AB8EEC00A00
:1032F0002E4880ED000A006806F08AFC41EC190BAC
:103300009FED2B0B53EC102B06F098FB41EC180BA8
:1033100005F008FF284908602448006806F078FC9A
:1033200041EC190B9FED220B53EC102B05F02CFFF9
:1033300041EC180B05F0F6FE20490860174AB2F977
:103340000810154A1068FDF759F900B21C490880A9
:10335000134890ED000ABDEEC00A10EE100A00B24C
:10336000184908800A2003F009FBBDEC048B10BD4E
:1033700008060020A8060020000000000060EA46C1
:1033800000401C4600008C4200803B450000484342
:1033900000409C4500001643740300207E0200207C
:1033A000C8010020CC010020D0010020BC01002079
:1033B000000000000000A040C4010020C001002067
:1033C000640000206600002010B55A48B0F91400CF
:1033D00000EE100AB8EEC00A574880ED000A90EDE2
:1033E000000A5648D0ED000AB4EEE00AF1EE10FAF9
:1033F00005DD90ED000A504880ED000A0FE04E48D0
:1034000090ED000A4E48D0ED000AB4EEE00AF1EE6D
:1034100010FA04D290ED000A474880ED000A4548B2
:10342000B0F9140000EE900AF8EEE00AB0EE600A7F
:103430004148D0ED000A434801F05AF8414850385D
:1034400080ED1D0A90ED1D1AF0EE410A3E48B0F9DC
:103450001000404201EE100AB8EEC11ADFED3B1A2F
:1034600021EE211AB0EE410A394801F041F8BDEED3
:10347000C00A10EE100A01B22E48C183B0F9020052
:1034800000EE100AB8EEC00A324880ED000A90ED56
:10349000000A3148D0ED000AB4EEE00AF1EE10FA6D
:1034A00005DD90ED000A2B4880ED000A0FE0294869
:1034B00090ED000A2948D0ED000AB4EEE00AF1EEE2
:1034C00010FA04D290ED000A224880ED000A194853
:1034D000B0F9020000EE900AF8EEE00AB0EE600AE1
:1034E0001C48D0ED000A1748503801F001F8154883
:1034F000503880ED090A90ED091AF0EE410A1248A1
:10350000B0F91200404201EE100AB8EEC11ADFED28
:103510000F1A21EE211AB0EE410A0D48503800F082
:10352000E7FFBDEEC00A10EE100A00B20149888123
:1035300010BD00007E020020C8010020CC01002048
:10354000D00100205806002092030020CDCCCC3DB5
:10355000F8060020BC010020C0010020C4010020AA
:1035600000200349888100210148C1837047000081
:103570007E02002000BFFEE700B52DED108B93B05A
:10358000FE4890ED000AD0ED000A20EE200A8DEDF5
:10359000060A90ED000AFA48D0ED000A20EE200A53
:1035A000F0EE40CAF54890ED000AF648D0ED000A6A
:1035B00020EE200AB0EE409AF04890ED000AF24862
:1035C000D0ED000A20EE200A8DED050AEC4890EDC2
:1035D000000AD0ED000A20EE200AB0EE40DA90EDAD
:1035E000000AE848D0ED000A20EE200A8DED040A1A
:1035F000E34890ED000AE448D0ED000A20EE200AEE
:10360000F0EE409ADF4890ED000AD0ED000A20EE7F
:10361000200AB0EE40AA90ED000ADB48D0ED000A87
:1036200020EE200AF0EE40DA90ED000AD0ED000A1C
:1036300020EE200AB0EE40EAD44890ED040AD448C7
:1036400080ED000AD14890ED050AD24880ED000ACD
:10365000CE4890ED060AD04880ED000ACB48B0F97C
:10366000000000EE100AB8EEC00ACC4880ED000A57
:10367000C648B0F9020000EE100AB8EEC00AC84809
:1036800080ED000AC148B0F9040000EE100AB8EE5F
:10369000C00AC44880ED000ABC48B0F9060000EE3C
:1036A000100AB8EEC00AC04880ED000AB748B0F969
:1036B000080000EE100AB8EEC00ABC4880ED000A0F
:1036C000B248B0F90A0000EE100AB8EEC00AB848D5
:1036D00080ED000AB7480068B749086008460068EE
:1036E000B6490968401A00EE100AB8EE400ADFED4C
:1036F000B40A80EE201AF0EE418AAF480068AF4964
:103700000860A648D0ED000A90ED001A60EE810A2C
:10371000A34890ED001AD0ED001A41EE210AA1480D
:1037200090ED001AD0ED001A41EE210AB0EE600AC9
:1037300003F0F6F9B0EE408A984890ED000A20EECA
:10374000080A80ED000A964890ED000A20EE080A6B
:1037500080ED000A934890ED000A20EE080A80ED03
:10376000000A9FED980A904880ED000A9FED950AA7
:103770008E4880ED000A9FED930A8D4880ED000A87
:10378000894890ED000AF0EE000A20EE200AF6EEDD
:10379000000A70EECA0A70EECE0A20EE200A8348B4
:1037A000D0ED000AB0EE001A60EE811ADDED040AD9
:1037B0009DED051A70EEC10A01EEA00A7C48D0ED1D
:1037C000000AB0EE001A60EE810A39EE891A00EEA6
:1037D000810A8DED110A744890ED000AF0EE000A9E
:1037E00020EE201A9DED040ADDED050A30EE200AD8
:1037F00021EE000A6D48D0ED000AB0EE001A60EE2E
:10380000810AB6EE001A31EE4D1A31EE4E1A00EE74
:10381000810A6748D0ED000AB0EE001A60EE810A16
:103820003DEEEC1A00EE810A8DED100A5E4890ED37
:10383000000AF0EE000A20EE200A79EEC90A20EE16
:10384000200A5A48D0ED000AB0EE001A60EE810A54
:103850003DEEAC1A00EE810A5548D0ED000AB0EEFC
:10386000001A60EE810AB6EE001A31EE4D1A31EE02
:103870004A1A00EE810AF0EE40AA9DED110A60EEB0
:10388000000A9DED100A40EE000A10EE901A08465C
:1038900006F0BEF9CDE900019DED000B02F01EFD22
:1038A0008DED020B9DED020B51EC100B05F03AFC77
:1038B0000EEE900AB0EE6AFA39EEC90AF0EE000A8E
:1038C00020EE200A8DED0F0A3CEEAD0AF0EE000A64
:1038D00020EE200A8DED0E0A9DED060A30EE4D0A0F
:1038E00030EE4A0A30EE0E0A8DED0D0AB0EE000AF7
:1038F0002EEE800AF6EE000A70EECA0A70EECE0ACC
:1039000020EE200AF0EE000A6FEE200A39EEC91A06
:1039100000EE810A8DED0C0AB0EE000A2EEE801A40
:103920009DED040ADDED050A30EE600A21EE000A85
:10393000F0EE000A6FEE200A3CEEAD1A00EE810AAE
:103940008DED0B0AB0EE000A2EEE800A79EE290A00
:1039500020EE200AF0EE000A6FEE200AB6EE001A02
:1039600031EE4D1A31EE4A1A00EE810A8DED0A0A47
:103970000B48D0ED000A9DED0D0A25E068000020FF
:103980006C0000207000002074000020B4030020B0
:1039900084000020880000208C000020900000207F
:1039A00094000020980000209C000020A00000202F
:1039B000A4000020E8000020AC000020A8000020A7
:1039C0000000FA440000000020EE800AB54890EDA7
:1039D000001ADDED0E0A01EE600AB34890ED001A00
:1039E000DDED0A0A21EE201AB048D0ED001ADDED17
:1039F0000B0A01EEE01A30EE010AF0EE40FAA94897
:103A0000D0ED000A9DED0F0A60EE800AA84890ED07
:103A1000001A9DED0D0A41EE400AA44890ED001AEF
:103A20009DED0C0A21EE001AA248D0ED001A9DED82
:103A30000A0A01EEC01A30EE810A8DED090A9C488F
:103A4000D0ED000A9DED0E0A20EE800A9A4890ED16
:103A5000001ADDED0F0A01EE600A964890ED001A9B
:103A6000DDED0B0A21EE201A8F48D0ED001ADDEDB6
:103A70000C0A01EEE01A30EE010A8DED080AF5EEAF
:103A8000C0FAF1EE10FA63D09DED090AB5EEC00A56
:103A9000F1EE10FA5CD09DED080AB5EEC00AF1EE29
:103AA00010FA55D09FED850A6FEE800A844890ED9C
:103AB000000A00EEA80A80ED000A9DED090ADFED7C
:103AC0007F0A60EE200A7F4890ED000A00EEA80A07
:103AD00080ED000A9DED080ADFED780A60EE200A0D
:103AE000794890ED000A00EEA80A80ED000A7748B8
:103AF00090ED000AF0EE000A00EEAF0A7048D0ED3B
:103B0000000A30EE200A714880ED000A7048D0EDBE
:103B1000000A9DED090AB0EE001A41EE000A69485C
:103B200090ED000A30EE800A694880ED000A69488D
:103B3000D0ED000A9DED080AB0EE001A41EE000A31
:103B4000614890ED000A30EE800A624880ED000A7C
:103B5000614890ED000AB1EE400A5C48D0ED000AE1
:103B600020EE200A5D48D0ED000A594890ED001A79
:103B700000EEC10A5A4890ED001A5648D0ED001ADE
:103B8000F0EE400A41EE610A564890ED000A00EE60
:103B9000A80A8DED070A90ED000A4C48D0ED000A06
:103BA00020EE200A4D48D0ED000A4A4890ED001A58
:103BB00000EE810A4A48D0ED000A454890ED001A0F
:103BC00000EEC10A4448D0ED000AB0EE60BA00EE43
:103BD00028BA444890ED000A3D48D0ED000A20EE96
:103BE000200A3D48D0ED000A3A4890ED001A00EE58
:103BF000C10A3B48D0ED000A344890ED001A00EEAF
:103C0000810A3648D0ED000AF0EE60BA40EE28BADC
:103C1000344890ED000A2F48D0ED000A20EE200A2B
:103C20002D48D0ED000A2A4890ED001A00EE810AD6
:103C30002A48D0ED000A254890ED001A00EEC10A8E
:103C40002748D0ED000AB0EE60CA00EE28CADDEDCC
:103C5000070A60EEA00A4BEE0B0A4BEEAB0A4CEEE5
:103C60000C0AB0EE600A02F05BFFB0EE408A9DEDF8
:103C7000070A20EE080A1B4880ED000A2BEE080A0E
:103C8000154880ED000A2BEE880A144880ED000AE2
:103C90002CEE080A124880ED000A13B0BDEC108B20
:103CA00000BD000098000020A0000020A40000201B
:103CB000900000209C000020940000200AD7233CA4
:103CC000780000207C00002080000020840000207C
:103CD000880000208C0000206C0000207000002074
:103CE000740000206800002010B52DED088B794885
:103CF00090ED000AF8EE000A20EE200AD0ED000A4E
:103D000020EE200A7448D0ED000AB0EE001A60EEF2
:103D1000810A90ED001A00EEC10AF7EE000A30EEBB
:103D2000200A10EE101A084605F072FF41EC1A0B3B
:103D3000694890ED000AF0EE000A20EE200A67487C
:103D4000D0ED000A20EE200A6548D0ED000AB0EE62
:103D5000001A60EE810A5F4890ED001A00EE810AB9
:103D600010EE101A084605F053FF41EC1B0BB0EEA5
:103D70004A1AF0EE6A1AB0EE4B0AF0EE6B0A02F045
:103D8000A3F9B0EE409AF0EE609A9FED560B53EC1B
:103D9000102B51EC190B05F07BFC41EC180B05F0D6
:103DA000C1F9524988624B4890ED000AF8EE000ACA
:103DB00020EE200A4948D0ED000A20EE200A4848AB
:103DC000D0ED000AB0EE001A60EE810A424890ED94
:103DD000001A00EE810A10EE101A084605F018FFCE
:103DE00041EC1A0BB0EE4A0AF0EE6A0A01F050FEFE
:103DF000B0EE409AF0EE609A9FED3A0B53EC102B28
:103E000051EC190B05F044FC41EC180B05F08AF954
:103E10003649C862304890ED000AF8EE000A20EEFC
:103E2000200AD0ED000A20EE200A2C48D0ED000A2E
:103E3000B0EE001A60EE810A90ED001A00EEC10AA1
:103E4000F7EE000A30EE200A10EE101A084605F0D0
:103E5000DFFE41EC1A0B1F4890ED000AF0EE000A5D
:103E600020EE200A1C48D0ED000A20EE200A1C4853
:103E7000D0ED000AB0EE001A60EE810A174890ED0E
:103E8000001A00EE810A10EE101A084605F0C0FE76
:103E900041EC1B0BB0EE4A1AF0EE6A1AB0EE4B0A78
:103EA000F0EE6B0A02F010F9B0EE409AF0EE609A74
:103EB0009FED0C0B53EC102B51EC190B05F0E8FBAC
:103EC00041EC180B05F02EF908490863BDEC088B8E
:103ED00010BD00006C000020700000207400002065
:103EE000680000206666666666A64C40B403002043
:103EF0001CB50121102000F053FC4FF4205000901D
:103F000000208DF8040001208DF8070003208DF8B3
:103F1000050069460148FEF708FC1CBD0010024080
:103F20001CB50121802000F03BFC4FF4E0500090D4
:103F300001208DF8040000208DF8060003208DF884
:103F4000050069460448FEF7F0FB4FF4E0510248D3
:103F5000FEF75FFC1CBD0000001C024010B54FF4D2
:103F600000610248FEF759FC10BD0000001C024031
:103F70001CB50121042000F013FC4FF48070009068
:103F800001208DF8040000208DF8060003208DF834
:103F9000050069460548FEF7C8FB4FF480710348E9
:103FA000FEF739FCFFF7A4FF1CBD0000000802402B
:103FB00000BFFEE7704700000178C27811444279E3
:103FC0001144FF2291FBF2F302FB1311427A91425A
:103FD00030D101781F2901D1012100E000211C4AC4
:103FE00091744178827841EA022109B200EE101AF8
:103FF000B8EEC00A164981ED010AC178027941EA9A
:10400000022109B200EE101AB8EEC00A104981ED83
:10401000020A817949B20E4A117011460978A9B98C
:104020009FED0C0A114681ED010A9FED0A0A81ED10
:10403000020A0BE00021064A11709FED060A1146A4
:1040400081ED010A9FED030A81ED020A704700002D
:10405000140400200000000010B500F085F900F005
:10406000E1F900F009F910BD10B57648B0F9020089
:104070007549B1F90010401A00EE100AB8EEC00AF6
:104080009FED721AC0EE010A9FED710A20EE800AC0
:10409000F2EE040A20EE200A6E4880ED000A69481C
:1040A000B0F914006C49B1F90010401A00EE100A82
:1040B000F8EEC00A9FED651A80EE810ADFED640A12
:1040C00020EE200AF2EE040A20EE200A634880ED7A
:1040D000000A5C48B0F9000000EE100AB8EEC00A11
:1040E000DFED5F0A60EE200A9FED5E1A80EE810A26
:1040F000F2EE040A20EE200A5B4880ED000A5148E7
:10410000B0F9120000EE100AB8EEC00ADFED540A52
:1041100020EE200ADFED530A80EE201AB2EE040AE8
:1041200021EE000A514880ED000A7A2050490870BB
:10413000484890ED000ABDEEC00A10EE100A01B228
:10414000002002F0C1F94A498870424890ED000A07
:10415000BDEEC00A10EE100A01B2012002F0B4F95F
:104160004349C8703B4890ED000ABDEEC00A10EE0E
:10417000100A01B2022002F0A7F93D490871354842
:1041800090ED000ABDEEC00A10EE100A01B2032045
:1041900002F09AF936494871344890ED000ABDEEB4
:1041A000C00A10EE100A01B2002003F08BFB304968
:1041B00088712E4890ED000ABDEEC00A10EE100A7C
:1041C00001B2012003F07EFB2949C871264890ED19
:1041D000000ABDEEC00A10EE100A01B2002003F082
:1041E00071FB23490872204890ED000ABDEEC00A19
:1041F00010EE100A01B2012003F064FB1C49487262
:10420000164890ED000ABDEEC00A10EE100A01B289
:10421000002003F057FB16498874104890ED000AFF
:10422000BDEEC00A10EE100A01B2012003F04AFBF5
:104230000F49C8747B20887501210E48FDF706FFE1
:1042400010BD00007E020020640000200000004637
:1042500000003443C800002066000020CC0000208D
:104260000000B44300007042D0000020D4000020C1
:10427000FC030020B864024000B58FB0012188051E
:1042800000F08EFA4FF00060009033480190334800
:104290000290002003900A200490002005904FF423
:1042A000806006900020079008904FF4807009907D
:1042B0004FF440300A9000200B900C900D900E901F
:1042C00069462748FDF7F0FF002224490A312448B7
:1042D000FDF77FFF01212248FDF770FF01224021F9
:1042E0001D48001F01F0B7FA01211D48FDF7AEFE81
:1042F0004FF000600090184801901A48029040204A
:10430000039017200490002005904FF480600690E1
:1043100000200790089009904FF440300A90002048
:104320000B900C900D900E9069460D487830FDF77B
:10433000BBFF012280210848001F01F08CFA0122F6
:10434000102107487830FDF791FF012104487830AB
:10435000FDF77CFE0FB000BD04100140E803002013
:1043600040640240FC03002000B587B001210846EC
:1043700000F016FA0121102000F042FA072209216C
:104380002548FEF71AFA072211462448FEF715FAC7
:104390004FF40070059002208DF8180003208DF86E
:1043A000190000208DF81A0005A91B48FEF7BDF979
:1043B0008020059002208DF8180003208DF8190048
:1043C00000208DF81A0005A91448FEF7AEF94FF445
:1043D000E13001900020ADF80800ADF80A00ADF81A
:1043E0000C000C20ADF80E000020ADF8100001A963
:1043F0000B4801F089FA1021094801F017FA01224F
:1044000040F22441064801F059FA0121044801F024
:1044100016FA07B000BD0000000002400004024090
:104420000010014008B525208DF8000001208DF80E
:10443000010000208DF8020001208DF8030068467D
:1044400000F010F846208DF8000001208DF80100E2
:1044500000208DF8020001208DF80300684600F06E
:1044600001F808BD70B5002100230F22C4781CB3E9
:10447000174C246804F4E064C4F5E064C4F3072135
:10448000C1F10404E3B20A4144789C40E1B284786B
:10449000144021430C07210E0E4C05786155047819
:1044A00004F01F050124AC4005786D11AD0005F145
:1044B000E025C5F8004109E0047804F01F05012457
:1044C000AC40054D0678761145F8264070BD0000D9
:1044D0000CED00E000E400E080E100E0024901436F
:1044E000024A1160704700000000FA050CED00E080
:1044F00010B52DED088B0446B0EE408AF0EE608AD0
:1045000094ED110AC8EE000AB0EE608AC4ED108A7C
:1045100038EEC80A84ED030A94ED050A10EE101A6D
:10452000084605F075FB41EC190B94ED030A10EEFB
:10453000101A084605F06CFB41EC1B0BB0EE4B0A61
:10454000F0EE6B0A01F0C0FEB0EE40AAF0EE60AAF9
:1045500053EC192B51EC1A0B05F05EF803D29FEDCA
:104560005B0A84ED030A94ED000AD4ED030A20EE01
:10457000200A84ED060A94ED060AD4ED0B0AB4EE87
:10458000E00AF1EE10FA03DD94ED0B0A84ED060A61
:1045900094ED060AD4ED0B0AF1EE600AB4EEE00ADF
:1045A000F1EE10FA05D294ED0B0AB1EE400A84ED5B
:1045B000060A94ED070AD4ED010A94ED031A00EE01
:1045C000810A84ED070A94ED070AD4ED0C0AB4EED3
:1045D000E00AF1EE10FA03DD94ED0C0A84ED070A0F
:1045E00094ED070AD4ED0C0AF1EE600AB4EEE00A8D
:1045F000F1EE10FA05D294ED0C0AB1EE400A84ED0A
:10460000070A94ED030AD4ED040A30EE600AD4EDF3
:10461000020A20EE200A84ED080A94ED080AD4ED7F
:104620000D0AB4EEE00AF1EE10FA03DD94ED0D0A86
:1046300084ED080A94ED080AD4ED0D0AF1EE600A43
:10464000B4EEE00AF1EE10FA05D294ED0D0AB1EEE7
:10465000400A84ED080A94ED060AD4ED070A30EE0C
:10466000200AD4ED080A30EE200AD4ED0A0A30EE12
:10467000200A84ED090A94ED090AD4ED0E0AB4EE7D
:10468000E00AF1EE10FA03DD94ED0E0A84ED090A5A
:1046900094ED090AD4ED0E0AF1EE600AB4EEE00AD8
:1046A000F1EE10FA05D294ED0E0AB1EE400A84ED57
:1046B000090A94ED090A84ED0F0A94ED030A84EDCA
:1046C000040A94ED090ABDEC088B10BD000000003F
:1046D0009FED260A80ED000A9FED240A80ED010A75
:1046E0009FED220A80ED020A9FED200A80ED030A69
:1046F0009FED1E0A80ED040A9FED1C0A80ED050A5D
:104700009FED1A0A80ED060A9FED180A80ED070A50
:104710009FED160A80ED080A9FED140A80ED090A44
:104720009FED120A80ED0A0A9FED100A80ED0B0A38
:104730009FED0E0A80ED0C0A9FED0C0A80ED0D0A2C
:104740009FED0A0A80ED0E0A9FED080A80ED0F0A20
:104750009FED060A80ED100AB7EE000A80ED110AFF
:104760009FED020A80ED120A704700000000000071
:1047700080ED000AC0ED010A80ED021AC0ED0B1AAF
:1047800080ED0C2AC0ED0D2A80ED0E3AC0ED054AF1
:10479000C0ED113A80ED124A80F84C1070470000CD
:1047A00029B1064A12680243044B1A6004E0034A26
:1047B00012688243014B1A60704700003038024093
:1047C00029B1064A12680243044B1A6004E0034A06
:1047D00012688243014B1A60704700004038024063
:1047E00029B1064A12680243044B1A6004E0034AE6
:1047F00012688243014B1A60704700002038024063
:1048000029B1064A12680243044B1A6004E0034AC5
:1048100012688243014B1A6070470000443802401E
:1048200029B1064A12680243044B1A6004E0034AA5
:1048300012688243014B1A6070470000243802401E
:10484000F0B5002100220024022500260223324F69
:104850003F6807F00C0121B1042905D0082937D1A0
:1048600005E02E4F076036E02D4F076033E02A4FFA
:104870003F1F3F68C7F38056274F3F1F3F6807F031
:104880003F036EB1264FB7FBF3F7DFF88CC0ACF1F6
:10489000040CDCF800C0CCF3881C07FB0CF40CE023
:1048A0001E4FB7FBF3F7DFF870C0ACF1040CDCF877
:1048B00000C0CCF3881C07FB0CF4174F3F1F3F6868
:1048C000C7F301477F1C7D00B4FBF5F7076002E0EA
:1048D000124F076000BF00BF0F4F3F6807F0F001A5
:1048E0000909104F7A5C0768D74047600A4F3F6854
:1048F00007F4E051890A0B4F7A5C4768D74087601C
:10490000054F3F6807F46041490B064F7A5C4768E2
:10491000D740C760F0BD0000083802400024F40012
:10492000001BB700FC00002000B50246501D01F03E
:10493000D1FDA0F2012008287ED2DFE800F0045269
:1049400095809595848ED07949490870107A487081
:1049500002F1090001F0BEFD4549488002F10B005B
:1049600001F0B8FD4249888002F10D0001F0B2FD6E
:104970003F49C88002F10F0001F0ACFD3C490881BD
:1049800002F1110001F0A6FD3949488102F113003E
:1049900001F0A0FD3649888102F1150001F09AFD71
:1049A0003349C88102F1170001F094FD30490882B3
:1049B00002F1190001F08EFD2D49488202F11B0021
:1049C00001F088FD2A49888202F11D0001F082FD74
:1049D0002749C88202F11F0001F07CFD24490883A9
:1049E00043E0D01D01F076FD2249088002F1090064
:1049F00001F070FD1F49488002F10B0001F075FDC8
:104A000010EE100A1B49486002F10F0001F062FD30
:104A10001849088102F1110001F05CFD1549488137
:104A200002F1130001F056FD1249888102F11500D0
:104A300001F050FD0F4900E016E0C88115E0D07983
:104A40000D49087011E002F10A0001F04EFD10EE70
:104A5000100A0A49C1F8030007E002F1090001F059
:104A600039FD0749488000E000BF00BF00BD0000DD
:104A70001812002033120020D8000020D900002096
:104A8000E000002010B500F04DF800F099F800F0BB
:104A900001F810BD00B58FB001218805FFF780FE39
:104AA0004FF0206000901B4801901B4802900020AE
:104AB00003904FF480600490002005904FF48060D4
:104AC00006900020079008904FF4807009904FF4F2
:104AD00040300A9004200B9003200C9000200D9091
:104AE0000E9069460D48FDF7DFFB00220C490B488C
:104AF000FDF76FFB01210948FDF760FB0122402112
:104B00000448001F00F0A7FE01210448FDF79EFAAB
:104B10000FB000BD04140140180A002028640240B0
:104B2000180E002000B587B001214020FFF738FEA5
:104B300001212020FFF764FE082209211E48FDF70D
:104B40003CFE08220E211C48FDF737FE4FF484403E
:104B5000059002208DF8180003208DF81900002020
:104B60008DF81A0001208DF81B0005A91248FDF7E9
:104B7000DCFD4FF4E13001900020ADF80800ADF805
:104B80000A00ADF80C00ADF810000C20ADF80E00D6
:104B900001A90A4800F0B8FE1021084800F046FEBE
:104BA000012240F22441054800F088FE012103481B
:104BB00000F045FE07B000BD00180240001401409F
:104BC00008B547208DF8000000208DF801008DF811
:104BD000020001208DF803006846FFF743FC08BD82
:104BE00021B1028842F04002028004E002884FF6C0
:104BF000BF731A40028070470246002013890B40A1
:104C00000BB1012000E00020704701468889704701
:104C10008181704710B50022028802F441520B884E
:104C20004C8823438C882343CC8823430C8923431B
:104C30004C8923438C892343CC8923431A43028024
:104C4000838B4FF2FF74234083830B8A038210BD52
:104C500001461C48814201D2002070471A48814217
:104C600001D20820F9E71948814201D21020F4E767
:104C70001748814201D21820EFE71648814201D23D
:104C80002020EAE71448814201D22820E5E71348B2
:104C9000814201D23020E0E71148814201D2382020
:104CA000DBE71048814201D24020D6E70E4881421E
:104CB00001D24820D1E70D48814201D25020CCE7F3
:104CC0005820CAE7004000080080000800C0000823
:104CD00000000108000002080000040800000608A7
:104CE0000000080800000A0800000C0800000E0878
:104CF00030B503460C461546002206E0184600F083
:104D000007F844F822001B1D521CAA42F6D330BDFE
:104D100001460868704700002DE9F04704460E463A
:104D200017464FF009080025A946B4F1006F02D3D9
:104D300004F0030008B1BDE8F087FDF7D3FC0020C4
:104D4000FDF71EFC254604EB87091848854215D25D
:104D500011E02846FFF7DCFF401C58B12846FFF75A
:104D600077FF82460221FDF71DFC8046B8F1090F4E
:104D700001D002E02D1D4D45EBD300BFB8F1090F66
:104D80000CD108E020463168FDF784FC092800D0EA
:104D900003E0241D361D4C45F4D300BF0120FDF770
:104DA000EFFBFDF76DFC00BFC5E700000000FF1F33
:104DB0000CB50020019000903448006840F4803029
:104DC0003249086000BF3148006800F400300090AC
:104DD0000198401C0190009818B90198B0F5A04FB7
:104DE000F1D12A48006800F4003010B10120009091
:104DF00001E0002000900098012846D1234840306F
:104E0000006840F080502149403108602048006827
:104E100040F440401E4908601C48083000681B49A7
:104E2000083108600846006840F400400860084601
:104E3000006840F4A05008601648091F0860081F69
:104E4000006840F08070091F086000BF0F480068CC
:104E500000F000700028F9D040F205700E4908609B
:104E60000A480830006820F003000849083108604B
:104E70000846006840F00200086000BF03480830A0
:104E8000006800F00C000828F8D10CBD0038024082
:104E9000007000400C544007003C024010B53848F8
:104EA000FFF716FC36485030FFF712FC3548FFF785
:104EB0000FFC34485030FFF70BFC0221DFED324A83
:104EC0009FED324AF7EE003A9FED303ADFED2F2AA0
:104ED0009FED2F2ADFED2D1A9FED2B1ADFED2A0A09
:104EE000B2EE040A2648FFF743FC0221DFED264A12
:104EF0009FED264AF7EE003A9FED243ADFED232A94
:104F00009FED232ADFED211A9FED1F1ADFED1E0A08
:104F1000B2EE040A1A485030FFF72AFC0221DFEDF6
:104F20001A4A9FED1A4AF7EE003A9FED183ADFED64
:104F3000172A9FED172ADFED151A9FED131ADFEDE3
:104F4000120AB2EE040A0F48FFF712FC0221DFED4D
:104F50000E4A9FED0E4AF7EE003A9FED0C3ADFED58
:104F60000B2A9FED0B2ADFED091A9FED071ADFEDE3
:104F7000060AB2EE040A03485030FFF7F9FB10BDF1
:104F8000D8080020780900200000000000007A46C0
:104F90000000484210B53648007838B940F2B630C3
:104FA0003449086000203449086007E04FF4487035
:104FB0003049086041F288302F490860FBF736FE1F
:104FC0002C4800682D4948632D48B0F9120000EEC6
:104FD000900AF8EEE00AB0EE600A2748D0ED000A29
:104FE000F8EEE00A2748FFF783FABDEEC00A10EE9C
:104FF000100A01B22248C1832348B0F9000000EE34
:10500000900AF8EEE00AB0EE600A2048D0ED000AFF
:10501000F8EEE00A1E48FFF76BFABDEEC00A10EE8C
:10502000100A00B2184988810846B0F9120000EE53
:10503000900AF8EEE00AB0EE600A144800684042B8
:1050400000EE900AF8EEE00A11485030FFF750FAEF
:10505000BDEEC00A10EE100A01B20B48C1830D4824
:10506000807A022802D100210548C18310BD0000CA
:105070000C02002014020020100200200000014059
:10508000C6020020C8090020A20200201802002049
:10509000D8080020240300200748C18907488089D8
:1050A0001E30814203DA00200549487302E00120E6
:1050B0000349487370470000181200203312002083
:1050C0005E03002010B52048B0F9120000EE900AEF
:1050D000F8EEE00AB0EE600ADFED1C0A1C48FFF7AC
:1050E00007FABDEEC00A10EE100A01B21648C183DD
:1050F0001848B0F9000000EE900AF8EEE00AB0EEB1
:10510000600ADFED120A1448FFF7F2F9BDEEC00A9B
:1051100010EE100A00B20F4988810846B0F912005B
:1051200000EE900AF8EEE00AB0EE600ADFED070A42
:1051300009485030FFF7DCF9BDEEC00A10EE100A46
:1051400001B20448C18310BDC60200200000000067
:10515000C8090020A2020020D8080020042808D195
:105160004FF0E021096941F004014FF0E0221161A4
:1051700007E04FF0E021096921F004014FF0E0223F
:105180001161704710B503F00FFD012801D003F045
:10519000D1F910BD10B51548006840F470001349EE
:1051A00008601348006840F00100114908600020C1
:1051B0000F49083108600E4800680E4908400C4944
:1051C00008600D48091D0860081F006820F4802051
:1051D000091F0860002006490C310860FFF7E8FD50
:1051E0004FF0006001498039086010BD88ED00E093
:1051F00000380240FFFFF6FE1030002410B52DED00
:10520000048B0121364800F0D9F8012865D13548D2
:105210000068401C334908603348B0F9120000EEC2
:10522000100AB8EEC00AF0EE000A20EE200ABDEE29
:10523000C00A2E4880ED000A2D4890ED000A2B4848
:10524000D0ED000AF8EEE00A9FED2A1A00EE810A7E
:10525000274880ED000A90ED000A274880ED000AFB
:10526000234890ED000ADFED250AB4EEE00AF1EEE6
:1052700010FA12D22048006804F0CAFC41EC190B65
:105280009FED1F0B53EC102B03F07EFF41EC180B2E
:1052900003F048FF184908601BE0154890ED000A2C
:1052A000DFED190AB4EEE00AF1EE10FA11DD124852
:1052B000006804F0ADFC41EC190B9FED110B53ECB1
:1052C000102B04F0BBFB41EC180B03F02BFF0A4939
:1052D00008600121024800F053F8BDEC048B10BDBA
:1052E00000100040E800002092030020F0000020A1
:1052F000EC00002082A8FB37F4000020000034C33B
:105300000000000000807640000034431FB50446D2
:1053100001211020FFF754FA02945320ADF8040045
:105320000020ADF80600ADF80C0001A90D4800F012
:1053300003F936208DF8000000208DF801008DF86B
:10534000020001208DF803006846FFF78BF8012268
:105350001146044800F043F80121024800F013F818
:105360001FBD00000010004021B1028842F0800201
:10537000028004E002884FF67F731A400280704773
:10538000CA430282704721B1028842F001020280C2
:1053900004E002884FF6FE731A400280704731B174
:1053A000B0F8442042F40042A0F8442005E0B0F8F0
:1053B0004420C2F30E02A0F84420704730B50246E4
:1053C000002000230024158A05EA0103958905EAD7
:1053D000010413B10CB1012000E0002030BD1AB16E
:1053E00083890B43838102E083898B4383817047E8
:1053F00070B5002400220023058C4FF6FE76354060
:105400000584028C8388048B4FF68F752C40B51E63
:105410002C400D882C43751E2A408D892A434D88C7
:105420002A43104DA84202D00F4DA84213D14FF687
:10543000F7752A40CD892A434FF6FB752A408D889F
:105440002A434FF6FF652B404FF6FF552B400D8A40
:105450002B434D8A2B43838004838D6845630284EC
:1054600070BD000000000140000401400A46002118
:10547000018B4FF6F7731940114301837047000009
:1054800070B5002400220023058C4FF6FF663540DE
:105490000584028C8388848B4FF68F752C404FF6E1
:1054A000FC752C400D882C434FF6FF552A408D8902
:1054B0004FF6FF7606EA05252A434D8806EA0525BC
:1054C0002A43154DA84202D0144DA8421DD14FF2D7
:1054D000FF752A40CD894FF6FF7606EA05252A4357
:1054E0004FF6FF352A408D8806EA05252A434EF6F9
:1054F000FF752B404DF6FF752B400D8A06EA05150A
:105500002B434D8A06EA05152B43838084838D68DF
:10551000C563028470BD000000000140000401402A
:105520000A460021818B4FF6F7731940114381839E
:10553000704741637047000000220288184B984270
:105540000ED0184B98420BD0B0F1804F08D0164BBC
:10555000984205D0154B984202D0154B984204D181
:105560004FF68F731A404B881A43124B984207D05C
:10557000114B984204D04FF6FF431A400B891A434F
:1055800002804B68C3620B880385054B984202D0AA
:10559000044B984201D18B7A0386012383827047A2
:1055A00000000140000401400004004000080040E9
:1055B000000C0040001000400014004010B502F044
:1055C000E1F910BD10B540F224411D4800F04CF93E
:1055D000002834D000241A4800F000FA1948FCF7DB
:1055E00008FEA8B900211748FCF730FD1548FCF764
:1055F000FCFD04460A211348FCF782FE01211148F4
:10560000FCF724FD0A2C19D10F48FEF7D5FC15E054
:1056100000210C48FCF71AFD0A48FCF7E6FD044699
:105620000A210848FCF76CFE01210648FCF70EFD34
:105630000A2C03D104480A38FEF7BEFC00BF10BD97
:105640000010014040640240F203002010B540F217
:1056500024411D4800F008F9002834D000241A48DD
:1056600000F0BCF91948FCF7C4FDA8B9002117489F
:10567000FCF7ECFC1548FCF7B8FD04461221134872
:10568000FCF73EFE01211148FCF7E0FC122C19D179
:105690000F48FCF737FE15E000210C48FCF7D6FC5C
:1056A0000A48FCF7A2FD044612210848FCF728FE30
:1056B00001210648FCF7CAFC122C03D10448123819
:1056C000FCF720FE00BF10BD0048004028600240EB
:1056D0001203002070B540F22441514800F0C4F894
:1056E00000287DD0002400254D4800884C48001D2E
:1056F000008800214B48FCF7A9FC4A48FCF779FDDB
:10570000002844D100BF25E0474901EB8421481916
:10571000052100F08BF901281AD1434800EB8421C0
:10572000681C085C0930404901EB8422A91C515CCB
:1057300040EA01263C4901EB84214819314600F03A
:1057400055F928B1384901EB84214819FFF7ECF8E5
:10575000A81985B2344800EB8420405DA528D3D039
:10576000314901EB84204FF48061FAF780FE4FF459
:1057700080612C48FCF7C4FD2A48006840F40020F2
:105780002849086001212748FCF760FC45E0012416
:1057900025E0254901EB84214819052100F046F94F
:1057A00001281AD1204800EB8421681C085C0930CC
:1057B0001D4901EB8422A91C515C40EA01261A49CB
:1057C00001EB84214819314600F010F928B116493F
:1057D00001EB84214819FFF7A7F8A81985B200E06A
:1057E0001CE0114800EB8420405DA528D1D00E4973
:1057F00001EB84204FF48061FAF739FE4FF48061A9
:105800000848FCF77DFD0748006820F400200549A2
:10581000086001210348FCF719FC00BF70BD0000BF
:105820000014014028640240180A002001F40072AC
:10583000B2F5007F00D100BFCA430280704721B19A
:10584000828942F40052828104E082894DF6FF731E
:105850001A40828170471AB1838A0B43838202E027
:10586000838A8B438382704770B5024600240023ED
:105870000025002040F66A16B14200D100BFC1F3F6
:10588000421501F01F03012606FA03F3012D02D190
:105890009689334006E0022D02D1168A334001E09A
:1058A000968A33400C12012606FA04F41688344016
:1058B00013B10CB1012000E0002070BDF0B503462B
:1058C000002400260025002040F66A17B94200D1C6
:1058D00000BF1846C1F3421401F01F06012707FA62
:1058E00006F5012C01D10C3004E0022C01D110305E
:1058F00000E014301AB107682F43076002E0076820
:10590000AF430760F0BD00002DE9FF4705460E4696
:105910000024A14600BFA046B08900B100BF2C8A78
:1059200024F44054F08804432C82AC8941F20C608A
:105930008443B08831890843718908430443AC81AA
:10594000AC8A24F44074B0890443AC826846FEF704
:1059500077FF2048854202D01F48854202D1DDF8FA
:105960000C9001E0DDF80890A88900F4004040B1F7
:1059700009EBC90000EB091031684900B0FBF1F7F1
:1059800007E009EBC90000EB091031688900B0FBA2
:10599000F1F76420B7FBF0F004012009642101FB5A
:1059A0001078A88900F4004040B1322000EBC80014
:1059B000B0FBF1F000F00700044308E0322000EBF8
:1059C00008106421B0FBF1F000F00F0004432C81BB
:1059D000BDE8FF870010014000140140014688889F
:1059E000C0F30800704700BFFEE7000070B5054631
:1059F0000C4600260DB1022C01D8002070BDA11E5E
:105A0000094802882846FCF70DFF0646F1B2A01EA1
:105A1000285C814206D1601E285CB0EB162F01D1B4
:105A20000120EBE70020E9E75C00002070B50546A7
:105A30000C4600260DB1022C01DC002070BD601E5A
:105A400081B2FF222846FCF707FF0646601E285C4D
:105A5000B04201D10120F1E70020EFE703B4019843
:105A60004100009850EAC12018BF04204A0D18BF19
:105A700040F0010040F2FF72B2EB515F08BF40F00E
:105A80000200012808BF052002B070470000000096
:105A900070B5C1482DED020B2DED0E8B82B0119D1E
:105AA00025F000449FEDBEDB9FEDBFEB84423EDB63
:105AB000A4F140511098A1F17F6108430FD0BC4878
:105AC000844202DC28D1109830B39DED100B02B057
:105AD000BDEC0E8B02B0BDE8704000F0B8BC9DED8F
